:020000040800F2
:1000000070090020A50200085124000849240008B6
:100010004D240008891300085D2500080000000039
:10002000000000000000000000000000592400084B
:100030008D13000800000000552400085D2400080E
:10004000BF020008BF020008BF020008BF0200088C
:10005000BF020008BF020008BF020008BF0200087C
:10006000BF020008BF020008BF020008BF0200086C
:10007000BF020008BF020008BF020008BF0200085C
:10008000BF020008BF020008BF020008BF0200084C
:10009000BF020008BF020008BF020008BF0200083C
:1000A000BF020008BF020008BF020008BF0200082C
:1000B000BF020008BF020008BF020008BF0200081C
:1000C000BF020008BF020008BF020008BF0200080C
:1000D000BF020008BF020008BF020008BF020008FC
:1000E000BF020008BF020008BF020008BF020008EC
:1000F000BF020008BF020008BF020008BF020008DC
:10010000BF020008BF020008BF020008BF020008CB
:10011000BF020008BF020008BF020008BF020008BB
:10012000BF020008BF020008BF020008BF020008AB
:10013000BF0200080000000000000000BF0200082D
:10014000BF020008BF020008BF020008BF0200088B
:10015000BF020008BF020008BF020008BF0200087B
:10016000BF020008BF020008BF020008BF0200086B
:10017000BF020008BF0200080000000000000000ED
:10018000BF020008BF02000800F002F800F07BF890
:1001900014A696E8000CB244B344DA4501D100F04D
:1001A00072F8BAE80F000FA696E83000A5EB040538
:1001B00004EB0607AAEB0704A7F101074FEA1515A0
:1001C0004FEA3414A4F10104AC4201D300F05BF80F
:1001D00013F0010F18BFFB1A43F0010300F001F800
:1001E000DBE7184700300000203000000A4410F818
:1001F000014B14F00F0508BF10F8015B240908BF7C
:1002000010F8014B6D1E05D010F8013B6D1E01F872
:10021000013BF9D1641E03D0641E01F8015BFBD1E0
:100220009142E4D37047000070470000002300248F
:1002300000250026103A28BF78C1FBD8520728BFF6
:1002400030C148BF0B607047782900F01F817329C7
:1002500000F0E382002070471FB502F005FF9DE823
:10026000030000F02DFF00F051FD040000200021EC
:1002700002F0E4FE401C606000F086FC1FBD10B57B
:1002800000F0EBFC10BD00F01BFD1146FFF7E4FF92
:1002900002F064FE00F0E8FE03B4FFF7F0FF03BCD9
:1002A00000F0E0FF0948804709480047FEE7FEE705
:1002B000FEE7FEE7FEE7FEE7FEE7FEE7FEE7FEE716
:1002C00004480549054A064B7047000061240008B0
:1002D00089010008700300207009002070050020CB
:1002E0007005002053EA020C00F069802DE9F04B04
:1002F0004FF00006002B1FBFB3FA83F503FA05F495
:1003000024FA05F65E4012BF1643B2FA82F502FAED
:1003100005F4C5F120051EBF22FA05FC44EA0C04D1
:10032000203556EA044C4FEA144418BF641C4FF0C1
:1003300000084FF00009904271EB030C39D30029FB
:1003400019BFB1FA81F701FA07F6B0FA80F700FA9F
:1003500007F6C7F120071EBF20FA07FC46EA0C0685
:100360002037B6FBF4FCA7EB0507103F07F01F0B87
:10037000CBF120062CFA06F60CFA0BFB44BFB34671
:100380000026202FA4BF5E464FF0000B5BEA060C50
:1003900008BF4FF0010B19EB0B0948EB0608ABFB4C
:1003A000027C06FB02CC0BFB03CCC01B71EB0C01E7
:1003B000C1E70B46024641464846BDE8F08B13B5FF
:1003C000084318BF4FF0FF300146AFF30080BDE88F
:1003D0001C4070470FB4044910B503AA029800F0FE
:1003E00021FA10BC5DF814FBAC01002070B5044686
:1003F00085690068C10601D5302600E02026C007C7
:1004000007D070BDD4E9012130469047206A401CD6
:1004100020626D1EF6D570BD70B504468569007802
:10042000C00707D170BDD4E9012120209047206A80
:10043000401C20626D1EF6D570BD70B50C46054699
:10044000012A05D02878800600D5EA69002302E059
:10045000012305E05B1C934202D2E05C0028F9D145
:10046000A869E618C01AA861286A184428622846B4
:10047000FFF7BCFF04E0D5E9012114F8010B904718
:10048000B442F8D32846FFF7C7FF70BD70B50446E5
:100490000D4621461068AFF300802188090502D57A
:1004A0000F4A7A4402E00E4A7A440E32002104F1E7
:1004B000240305E000F00F060009965D5E54491C18
:1004C0000028F7D120780023000704D5702D02D032
:1004D00009B1022311322046BDE8704000F032B964
:1004E000DC2B00002DE9F05F894604464FF0000A3E
:1004F000DFF824B1FB44C0F820A02046E16888471B
:1005000000287DD0252806D0D4E901219047206A13
:10051000401C2062F1E700255F462046E1688847DD
:100520002028064607DB312E05D2B81910F8200C1A
:1005300008B10543F1E7A80701D525F00405C4F883
:100540001CA00027C4F818A02A2E09D0304602F0BB
:100550005FFD38B304EB8708303EC8F8186019E037
:1005600059F8041B204604EB87029161E168884733
:10057000012F064618D1E069002820DA25F0200571
:100580001DE0D8F8180000EB800006EB4000303882
:10059000C8F818002046E1688847064602F038FD92
:1005A0000028EED1012F0AD02E2E08D12046E16876
:1005B00088477F1C0646022F45F02005C4DBA06952
:1005C000002803DA404245F00105A061E80701D0A8
:1005D00025F01005A6B1A6F14100192802D8203651
:1005E00045F400654A463146204625604D46FFF7F2
:1005F0002BFE60B1012807D0ED1D25F0070000E0BB
:1006000007E000F1080978E705F1040975E73046CD
:100610007AE7206ABDE8F09FB22B000070B506466D
:1006200000F08CF80468054630460A22002100F0EC
:100630000BF92C6070BD000010B5044603E002F019
:10064000EEFC401C09D014F8010B05490028F6D136
:10065000BDE810400A2002F0E2BC4FF0FF3010BDB0
:10066000AC0100204FF0000200B5134694469646B8
:10067000203922BFA0E80C50A0E80C50B1F12001B5
:10068000BFF4F7AF090728BFA0E80C5048BF0CC063
:100690005DF804EB890028BF40F8042B08BF7047C1
:1006A00048BF20F8022B11F0804F18BF00F8012B33
:1006B000704700000000000030B44FF0013C50F8DB
:1006C000042B51F8043BCCFA52F4D51A20D1FCB9D2
:1006D00050F8042B51F8043BCCFA52F4D51A17D138
:1006E000B4B950F8042B51F8043BCCFA52F4D51AA3
:1006F0000ED16CB950F8042B51F8043BCCFA52F4EB
:10070000D51A05D1002CDAD030BC4FF0000070476C
:1007100029BAB1FA81F111F01801D1F12000844019
:10072000F2D1CA40CB4012F0FF0213F0FF0330BCFD
:10073000D01A7047704770477047000000487047F4
:10074000540200202DE9F0470D4699469246044692
:1007500000F124080168880604D5E06921F0100141
:10076000216000E00120A84201DD471B00E00027D6
:10077000A1697A1902EB0900081AA0612078C00665
:1007800002D42046FFF732FE002608E0D4E901211A
:100790001AF806009047206A401C761C20624E45DD
:1007A000F4DB2078C0060AD52046FFF71FFE06E0DE
:1007B000D4E9012130209047206A401C2062381E75
:1007C000A7F10107F4DC07E0D4E9012118F80500DE
:1007D0009047206A401C2062281EA5F10105F3DC29
:1007E0002046FFF719FE2078000602D50220BDE85A
:1007F000F0870120FBE710B5436913B1AFF3008028
:1008000001E0FFF71AFE012010BD127800F124016B
:100810000A7000224A700122EDE711684FF0FF32A2
:10082000E9E70000074B70B50D467B4400F055F832
:100830000446284600F0B3F810B14FF0FF3070BD09
:10084000204670BDF12700002DE9F04791460F4684
:1008500080460446002614F8015B2DB100F030F804
:100860000068405DC007F6D12B2D02D02D2D18D089
:10087000641E4A463946204600F042F827B13968DE
:10088000A14201D1C7F800804FF0020471050BD5D9
:100890004042002803DDFFF751FF0460A007BDE8D8
:1008A000F08746F48066E4E70028F8DAFFF746FFB1
:1008B00004606FF00040F2E70048704754020020E7
:1008C00010B500F023FA001D10BD00BF7127000015
:1008D00001694A1C02610878704700B58FB0CDE904
:1008E00001310021059105497944CDE903101146F4
:1008F0006846FFF7F7FD0FB000BD0000E5FFFFFF02
:100900002DE9F05F824615468B4600270AF1010467
:10091000B9460078302801D09DB113E014F8010BDE
:100920000127782803D0582801D045B10AE00DB13D
:10093000102D07D1002714F8010B102502E008251F
:1009400000E00A250026B0460EE005FB080005FB86
:1009500006F101271FFA80F801EB1046B6F5803F3B
:1009600000D3B94614F8010B294600F029FA0028F3
:10097000EBDABBF1000F05D00FB1641E00E0544666
:10098000CBF80040B9F1000F06D0FFF7D7FE0221E7
:100990000160C81EBDE8F09F48EA0640FAE7007B08
:1009A00000F0800070472DE9F05F054617460C46C1
:1009B000C86820F4201040F48000C860800602D58A
:1009C000084600F092FAE06841F282014FF0FF3AE7
:1009D0000140022903D0204600F024FAB9E000F4D7
:1009E0002041B1F5004F0FD1C00306D56168E06A20
:1009F000884200D80846606006E02069E0626060D6
:100A0000606902F055FAA061A0680022EEB20028E9
:100A10000DDAE1688B050AD4C043A06041F4903040
:100A20002260E0606068411C61600670AAE0E068D6
:100A30009146226040F40050E060206978BB606914
:100A400002F038FA04F124054FF00108A8B1A0899A
:100A500010F4407F08D0E06900F05CF9206118B123
:100A6000E06840F4006017E0C4F81C802561E0688D
:100A700020F4407040F480600EE0E06900F04AF934
:100A800000282061F0D0E06840F4006010F4407F5E
:100A9000E06002D140F48070E06020696060E0684E
:100AA00025696FF0010BC1051ED56168E06A8842B7
:100AB00000D80846411B04D02246284600F0BCF965
:100AC000E8BB1FB1E562C4E9015959E0681CE06266
:100AD0006060E069401EA060E06840F48030E06043
:100AE00030462E70BDE8F09F17B100F480320AE066
:100AF0006068411C61600670E0680A2E40F4803036
:100B0000E06006D00022E16A6068814203D90B46AA
:100B100002E00122F7E70346B4F80CC05B1B5FEA72
:100B20004C5C04D4D4F81CC09C4500DD02B3814267
:100B300000D80146002BA1EB0008E56200E008E0C8
:100B4000C4E9015907DD22461946284600F074F928
:100B500008B15046C6E7B8F1000F09D0A169E562B7
:100B60006560A1EB0800A061E06840F01000E06063
:100B700047B16168A069E562491B08446560A061EE
:100B80005846AFE73046ADE710B542485421FFF76D
:100B900069FD41485421FFF765FD40485421FFF7A6
:100BA00061FD3F493B483C4A3F4B08603D490A6074
:100BB0003A491960531C0365481C106501200865FB
:100BC0003B48344A39A1784400F0B0F920B938489C
:100BD00078440A3800F051FA37482F4A35A1784452
:100BE00000F0A4F920B9344878440A3800F045FAF6
:100BF00032482A4A2FA1784400F098F920B92F48AA
:100C000078440A3800F039FA40232248DC000021F9
:100C1000224600F0E3F820B125487844543800F02B
:100C20002CFA1D4822464023002100F0D7F820B1BD
:100C300021487844543800F020FA184822461023FE
:100C4000002100F0CBF8002806D01C487844BDE80D
:100C50001040563800F011BA10BD104870B5006D44
:100C600020F001040B4800F0D9F90B4800F0D6F948
:100C70000A4800F0D3F909E0206D20F00105204674
:100C800000F0CCF9204600F074F82C46002CF3D18B
:100C900070BD000058010020AC01002000020020BF
:100CA0000000002004000020080000207200000066
:100CB000222500007700000011250000EA24000032
:100CC0007546FFF7F9FDAE4605006946534620F02C
:100CD0000700854618B020B5FFF7F2FABDE82040BE
:100CE0004FF000064FF000074FF000084FF0000BE8
:100CF000AC46ACE8C009ACE8C009ACE8C009ACE857
:100D0000C00921F007018D46704700000048704778
:100D10007402002070B5064600F0B6F9056806F1C9
:100D20000B0020F00704B4429CBF002070BD2B468E
:100D30006A68BAB11068A04210D304F10801884271
:100D40003CBF5068586007D3516810194160116862
:100D5000091B016058601460101D70BD1346526875
:100D6000002AE7D12146284600F096F90028DED176
:100D700070BD70B50446051F00F086F90068002CB0
:100D800014BF446870BD002C18BFAC423CBF204665
:100D90006468F8D301680A18AA4218BF456003D1F5
:100DA0002A6805461144016028684119A1421CBF08
:100DB0006C6070BD6168696021680844286070BD1E
:100DC0003A2800D2303820F02002412A01D3A2F183
:100DD0003700884201D34FF0FF30704770B5C468C8
:100DE000A50713D0650211D4B2F5807F09D0B2F502
:100DF000007F06D0B2F5806F08D1012300F12401F5
:100E000006E05D1E6FF07F46B54201D3012070BD44
:100E10000161C361416024F470611143C16000202D
:100E200070BD0000C16821F4001141F08001C16073
:100E300000218160016070472DE9F74F15460C468F
:100E40004FF0FF3B3848D768D2F814A0074209D0CA
:100E50005046A96902F066F8002819DB3248C04301
:100E60000740EF604FF000496FF000484C4501D358
:100E7000464600E0264600993B465046324602F080
:100E800055F8A96920F00042B21A1144A96128B1AD
:100E90002846FFF7C7FF5846BDE8FE8FA41BE5D1E3
:100EA0000020F9E770B504460569C06A61688842A8
:100EB00000D80846E16821F42011E160C90312D589
:100EC000A84208D02246411B2846FFF7B5FF10B1C3
:100ED0004FF0FF3070BD0020E562C4E90150E068CA
:100EE00020F48030E060002070BD10B50446C0687A
:100EF00020F02000E060A16AA06988420DD0204661
:100F0000FFF7D0FFE06820F4405040F01000E060B0
:100F1000A06AA0612069E062606044F24001E0687C
:100F20008843E06010BD0000100002002DE9F04190
:100F30000C461646070047D0104600F06FF82078A0
:100F4000611C61280AD0722802D077283CD102E0C7
:100F50000125002405E00225042402E0082448F2CB
:100F6000020511F8010B2B2806D0622809D011F8D0
:100F7000010C74280AD00BE045F0030544F002048C
:100F8000EFE745F0040544F00104EAE744F01004FB
:100F90003846214601F096FF411C15D000213161F1
:100FA00071604FF40071F560F1617061200704D544
:100FB00030460222002100F0B9F8306D40F0010007
:100FC00030653046BDE8F0810020FBE72DE9F041B7
:100FD0000D460646104C206DC10704D0410804D0D0
:100FE00020F00104F7E722460EE05420FFF792FEBE
:100FF00007000ED0206D47F0010108435421206501
:101000003846FFF72FFB3A4629463046BDE8F04107
:101010008CE70020D6E70000580100202DE9F047BA
:1010200004464FF0FF380026C568D4E90497A807A6
:1010300018D02046FFF736FF384601F02FFF002872
:1010400000DA4646280502D54846FFF792FE4C21B5
:101050002046FFF707FB206D20F001002065304699
:10106000BDE8F0874046FBE710B50446AFF30080CB
:101070002046BDE81040FFF70FB910B500F0D8F8D2
:10108000BDE8104000F0CEB8004870475C02002078
:10109000704770477047704738B504460A460020CD
:1010A0006946AFF30080002808BF38BD02460099AA
:1010B000204600F0DDF8012038BD012000F02CB9F9
:1010C000F8B5AFF30080054600200C460C2000BFA9
:1010D0000646A819A0420DD9324669460020AFF352
:1010E0000080070008BF00F017F90098A04218BF61
:1010F0000546C419FFF7C8FF05600746F01D20F03C
:1011000007004619284600F00AF8B44208BFF8BDA7
:10111000A21B31463868BDE8F84000F0A9B80021AC
:101120000160416070470C20704700002DE9F041DC
:10113000044616460D464769007B80072ED0384688
:1011400001F0B8FE50BB3EB3012E02D0022E25D1D5
:1011500004E0204600F0A6F805441DE0384601F002
:10116000A7FEE168002841F01001E16005DA2046A1
:10117000FFF758FE0120BDE8F081C9030BD5626876
:10118000E16A914200D81146A26911442269891A84
:10119000814200DD08460544002D01DA0220EAE71D
:1011A000E16A6068E268814206D29103E06203D599
:1011B00022F4003141F01002A6690027AE4213DC90
:1011C000E16A814201D90B4600E0034603EB060CBD
:1011D0002369ACEB030CAC4506DD814201D98C469A
:1011E00000E084469C4505D1A760276042F02000BE
:1011F000A5620DE0AD1BE669AE1B8142A66000D979
:101200000846C01A281A20605819606022F0200091
:1012100003490840E060002084F84870ABE7000014
:10122000BFCFD7FF002801D000F01CB870470000E6
:1012300010B5014602A000F056F8012010BD0000D4
:1012400053494752545245443A2052656469726585
:1012500063743A2063616E2774206F70656E3A2064
:101260000000000001491820ABBEFEE72600020086
:10127000034640688C46002818BF88423CBF03469E
:101280004068F8D318681844884207D00CF103006E
:1012900020F00700001D411A521A0146081D0A607D
:1012A000FFF767BD10B50146C268900703D09006EE
:1012B00007D5886A0AE0FFF741FA01210160881E1C
:1012C00010BD8B69486818440B69C01A91F8483002
:1012D0001BB191F84910401A10BD1103FCD500282C
:1012E000FADD401E10BD70B505460C460A2000E030
:1012F0006D1C00F018F835B128780028F8D102E00C
:10130000641C00F010F814B120780028F8D1BDE872
:1013100070400A2000F007B810B500F00DF8BDE8E5
:101320001040FFF77FBF08B569468DF80000032025
:10133000ABBE08BD7047000010B5012805D00021E4
:1013400003A0FFF7D0FF012010BD09A1F8E70000BE
:1013500053494752544D454D3A204F7574206F669E
:101360002068656170206D656D6F72790000000006
:101370003A2048656170206D656D6F727920636FEA
:101380007272757074656400FEE7000070470000BB
:1013900080B543F61043C4F20203D3F800C04FF403
:1013A000407E2CF440721A601A68032938BF4FEA55
:1013B000012E42EA0E011960196821F078011960C6
:1013C000196841EAC00040F002001860186840F453
:1013D0008030186080BD0000F0B581B040F2483721
:1013E000044643F60C46C2F200070020C4F202068F
:1013F000F86100F00DFA3168C9031BD43068C007EA
:101400001CBF01203060306810F0F20F30D030681F
:10141000C00631D43068800637D4306840063DD4E9
:101420003068000643D43068800749D4012001B0F9
:10143000F0BD00BFC4B10546601C10D13068C003C8
:10144000DCD53068C00344BF30685FEAC030D5D512
:101450003068C003F2D4D1E73068C003CED500F0C5
:10146000D7F9401BA042F7D9032001B0F0BD00BF5F
:10147000002001B0F0BD00BFF86940F01000F86135
:101480001020306030688006C7D5F86940F0080049
:10149000F8612020306030684006C1D5F86940F01E
:1014A0000400F8614020306030680006BBD5F86960
:1014B00040F00200F8618020306030688007B5D5C8
:1014C000F86940F02000F86102203060012001B08E
:1014D000F0BD000080B543F610004CF6FF11C4F2D9
:1014E0000200CFF2FE6147F6331201610021C0F223
:1014F00077420161426141F2FF12C2F26002416132
:101500000260C1220160426001224160826081600C
:1015100000F0D2F9002080BDB0B5044600F078F9A3
:10152000054640F20C00C2F200000078611C18BFB2
:10153000044400BF00F06CF9401BA042FAD3B0BDD8
:1015400043F61041C4F20201086840F00042002056
:101550000A6070472DE9F04140F24834C2F20004BD
:10156000277E012F04BF0220BDE8F081054601203F
:1015700020764CF2503098460F461646FFF72CFF67
:1015800020B100212176BDE8F08100BF2A46022D5E
:1015900043F61045C4F202051ED0012A31463846F2
:1015A0000CD03ABB2A6822F440722A602A682A606A
:1015B0002A6842F001022A6001702CE02A6822F4B5
:1015C00040722A602A6842F480722A602A6842F0D7
:1015D00001022A6001801EE0286820F44070286023
:1015E000286840F400702860286840F001002860F6
:1015F0003E6010E02A6822F440722A602A6842F4B1
:1016000040722A602A6842F001022A600160BFF33A
:101610006F8FC0F804804CF25030FFF7DDFE296870
:1016200021F00101296000212176BDE8F081000050
:1016300043F60440C4F20200C168B1F1FF3FC4BFE9
:101640000020704740F22311C4F26751016048F650
:10165000AB11CCF6EF510160C068C00F70470000BD
:101660002DE9F04F83B000F1200200F13E4741F632
:101670000045009207F1FF77C4F2020508224FEA05
:10168000B726A84208BF072200254FF000084FF0F8
:101690000009072E38BF4FEAB72201920AE000BFC7
:1016A00009F1010908F10208B9F1100F05F104056B
:1016B00000F0A2800F68012202FA09FE17EA0E0A62
:1016C000EED0D1F804C003220CF003077E1E02FA0C
:1016D00008F4012E6FEA040B12D88468CE6804EA7D
:1016E0000B0406FA08F634438460446824EA0E06C4
:1016F000CCF3001404FA09F42643466004E000BF6A
:10170000032F01D103271EE0C6688C6806EA0B068A
:1017100004FA08F42643022FC66014D16FF00302C6
:10172000009E02EA590756F807C005F01C040F2274
:101730000B69A2402CEA0202A3401A43F251D1F8ED
:1017400004C00CF00307026807FA08F302EA0B0270
:101750001A431CF4403F0260A2D0002243F6440327
:101760000292C4F202031A6843F6004442F4804233
:101770001A601A68C4F2010402F480420292029ACA
:1017800029F003024FF6084C2244CFF6FF7C52F8B2
:101790000C3005F00C070F26BE40B343019E06FA3D
:1017A00007F73B4342F80C30A2684B6842EA0A074D
:1017B00043F60C4CDE0258BF22EA0A07A760C4F2C7
:1017C000010CDCF800209E0242EA0A0758BF22EA18
:1017D0000A07CCF8007062689E0342EA0A0758BF05
:1017E00022EA0A0767602268DB0342EA0A0758BF59
:1017F00022EA0A07276053E703B0BDE8F08F000034
:10180000426902EA0103914341EA03418161704761
:1018100040F26830C2F200000068704740F20C00ED
:1018200040F26831C2F20000C2F2000100780A689A
:10183000104408607047000080B543F60040C4F2D1
:101840000200016841F400710160016841F48061A7
:101850000160016841F480710160032000F076F8B6
:101860000F2000F005F800F029F8002080BD0000EE
:1018700070B540F20C06C2F2000640F21401327854
:10188000C2F200014FF47A730968B3FBF2F2044626
:10189000B1FBF2F1084600F051FB0F2C4FF00105AF
:1018A00008D838B94FF0FF3021460022002500F05B
:1018B00021F87460284670BD7047000082B0002097
:1018C00043F640010190C4F202014A6842F48042AA
:1018D0004A604A6802F480420192019A00900868C6
:1018E00040F080500860086800F080500090009838
:1018F00002B0704710B54EF60C5CCEF2000CDCF86E
:101900000030C3F3022E8EF00704042C28BF0424F9
:10191000BEF103034FF0FF3E0EFA04F438BF00237C
:10192000A14399400EFA03F39A43114300F00F02CA
:1019300000F160430901043A03F56443624400285E
:1019400048BF02F10C03197010BD00004EF60C5197
:10195000CEF200010A684FF6FF031A4060F30A2234
:1019600042F0806040F0FD7008607047002804BFBE
:10197000012070472DE9F04143F60808C4F202083F
:101980000446D8F8F8030D4600F00700814207D955
:1019900088F8F853D8F8F80300F00700A84277D188
:1019A0002068810717D5410705D5D8F8001041F404
:1019B000E051C8F80010010705D5D8F8001041F42F
:1019C0006041C8F80010D8F80010A26821F0F001BA
:1019D0001143C8F80010C00740D1D8F8F80300F050
:1019E0000700854207D288F8F853D8F8F80300F0CA
:1019F0000700A8424CD12068410707D5D8F800104D
:101A0000E26821F4E0511143C8F80010000708D53E
:101A1000D8F80000216920F4604040EAC100C8F80D
:101A2000000000F07DF8D8F8001043F2BB02C1F3CB
:101A30000311C0F60002515C40F2140220FA01F1D9
:101A400040F21000C2F200000068C2F20002116011
:101A5000FFF70EFF0020BDE8F08100BF6068811E27
:101A6000022907D258F8081C89015CBF0120BDE893
:101A7000F08111E0012807D158F8081C89035CBFE8
:101A80000120BDE8F08107E058F8081C890703D45D
:101A90000120BDE8F08100BFD8F8001021F003015B
:101AA0000843C8F80000FFF7B3FE064641F2883746
:101AB000D8F80000616800F00C00B0EB810F8CD00A
:101AC000FFF7A6FE801BB842F2D90320BDE8F081E3
:101AD00040F2140043F60801C2F20000C4F2020111
:101AE0000068096843F2CB02C1F38221C0F600020C
:101AF000515CC8407047000040F2140043F60801F2
:101B0000C2F20000C4F202010068096843F2CB028D
:101B1000C1F34231C0F60002515CC840704700007A
:101B200010B543F60404C4F202046168C1F38101F4
:101B300042F20040C0F2F400DFE801F002040A02C1
:101B400010BD00BF47F64000C0F27D1010BD00BFC1
:101B5000206821682368490247F64001C0F27D11E0
:101B600000F03F02C3F388105CBF42F20041C0F2B4
:101B7000F401A1FB00010023FEF7B4FB216802225F
:101B8000C1F3014102EB4101B0FBF1F010BD0000D7
:101B9000002804BF012070472DE9F04182B00446BF
:101BA000007843F60006C007C4F202060CD0B06805
:101BB00000F00C00042840F081803068800303D5D9
:101BC0006068002800F06881207880071BD5B06825
:101BD00010F00C0F09D0B06800F00C00082840F09D
:101BE00087807068400200F183803068800703D5E9
:101BF000E068012840F050813068216920F0F80049
:101C000040EAC10030602078000713D420784007F4
:101C10002AD4A569002D00F03A81B06800F00C00CC
:101C2000082840F0A580012D40F00E81012002B06F
:101C3000BDE8F0816069002800F082800020C4F2D5
:101C400047200121C0F8801EFFF7E2FD054600BFD6
:101C5000706F8007DAD4FFF7DBFD401B0228F7D94D
:101C6000032002B0BDE8F081306C5FEAC0080AD4FE
:101C700000200190306C40F080503064306C00F0F7
:101C800080500190019847F20007C4F200073868BD
:101C9000C00547D4386840F480703860FFF7B8FD5D
:101CA000054600BF3868C0053CD4FFF7B1FD401BB6
:101CB0000228F7D9032002B0BDE8F081B06800F037
:101CC0000C00082803D1706840023FF576AF6168C8
:101CD0003068B1F5803F07D0B1F5A02F40F09A8071
:101CE00040F480203060306840F4803030609AE00A
:101CF000E068002840F20000C4F247205CD00121D7
:101D00000160FFF785FD0546306880073FF574AF39
:101D1000FFF77EFD401B0228F6D9032002B0BDE884
:101D2000F08100BFA168306F012905D0052955D188
:101D300040F004003067306F40F00100306756E03B
:101D40000020C4F247200021C0F8801EFFF760FD8C
:101D5000054600BF706F80077FF558AFFFF758FD4D
:101D6000401B0228F6D9032002B0BDE8F08100BF75
:101D70000027C4F2472700203866FFF749FD022DEF
:101D800005460DD13068800140F18A80FFF740FDA3
:101D9000401B02284FF00300F4D902B0BDE8F081E7
:101DA0003068800173D5FFF733FD401B02284FF0E8
:101DB0000300F5D9F1E700BF00210160FFF728FD1E
:101DC000054600BF306880077FF51DAFFFF720FD97
:101DD000401B02284FF00300F4D9DEE720F0010099
:101DE0003067306F002920F0040030677AD0FFF7A9
:101DF0000FFD054641F28837306F800700F184807F
:101E0000FFF706FD401BB842F6D9032002B0BDE83B
:101E1000F08100BF20F4803030603068002920F469
:101E2000802030607AD0FFF7F3FC054630688003ED
:101E30003FF5CAAEFFF7ECFC401B6428F6D903203F
:101E400002B0BDE8F08100BF7068E16900F4800273
:101E50008A4221D1216A00F03F028A421CD147F612
:101E6000C071626A0140B1EB821F15D1A16A4FF6C1
:101E7000FF73C903994300F44032A1F580318A42CF
:101E80000AD1E16A00F07060B0EB016F04D100206C
:101E900002B0BDE8F08100BF012002B0BDE8F081D2
:101EA00004F11C052FCD084340EA8210D9034FF6F8
:101EB000FF729143A1F5803140EA056008437060EC
:101EC00001203866FFF7A4FC044600BF306880019B
:101ED000DDD4FFF79DFC001B02284FF00300F5D96D
:101EE0005BE700BFFFF794FC054641F2883700BF6F
:101EF000306F800708D5FFF78BFC401BB8424FF0CE
:101F00000300F5D949E700BFB8F1000F3FF581AEF6
:101F1000306C20F0805030647BE600BFFFF778FC27
:101F2000054600BF306880037FF54EAEFFF770FCBA
:101F3000401B64284FF00300F4D92EE7411E002017
:101F4000B0EB116F1CBF012070474EF21002CEF2B1
:101F5000000251604EF62351CEF20001F0230B70C7
:101F60000721906011607047002804BF012070476E
:101F700010B5044690F8410028B9002084F84000CC
:101F8000204600F021F8242084F841002068C16830
:101F900021F40051C160204600F06CFA206801690C
:101FA00021F490410161416921F02A014161C16838
:101FB00041F40051C16000202021606484F8411088
:101FC00084F84210606310BD80B586B0006841F2AD
:101FD0000002C4F2010200219042CDE90411CDE9D2
:101FE0000211019122D044F60041C4F2000188425E
:101FF00045D1002043F630010090C4F202010A6985
:1020000042F400220A610A6902F400220092009A56
:102010000090086840F0010008600868032100F0A3
:1020200001000090009808201BE000BF43F630003C
:102030000091C4F20200426942F01002426142691A
:1020400002F010020092009A0091016841F0010133
:10205000016000684FF4C06100F00100009000983A
:102060000720019102210291002103910321CDE972
:1020700004100020C4F2020001A9FFF7F1FA06B033
:1020800080BD00002DE9F04381B0044690F8420085
:10209000202809D1884600294FF0010018BF002AE6
:1020A00006D101B0BDE8F083022001B0BDE8F083A5
:1020B000002022211D46606484F8421020631646E9
:1020C000FFF7A6FBA685E685A1680746B1F5805F08
:1020D00002D12069002851D046464FF00008E08D1B
:1020E00000284FD005F101090CE000BF4068002630
:1020F0006FF35F2028F8020BE08D0138E085E08D5A
:1021000000283FD020680168890617D4B9F1000F74
:1021100022D0002D00F0CA80FFF77AFBC01BA84236
:1021200000F2BC802068C168490744BF01685FEACB
:1021300001712FD401688906EED500BF002ED5D0DD
:10214000A168B1F5805F15D009B9216991B14068E6
:1021500000F07F000FE000BF01688906EED401683F
:1021600089065CBF01685FEA8161E7D4016889067E
:10217000F2D5E3E7406806F8010BBDE70026E08DE5
:102180000028AFD10020202184F8421001B0BDE822
:10219000F08300BF00210091016800914068009029
:1021A000009800BF206850E8030F216820F4907069
:1021B00041E80302BAB3206850E8030F216820F415
:1021C000907041E8030272B3206850E8030F216861
:1021D00020F4907041E803022AB3206850E8030F0E
:1021E000216820F4907041E80302002ADAD11AE055
:1021F000206850E8050F216820F0010041E8050241
:10220000DAB1206850E8050F216820F0010041E8AC
:10221000050292B1206850E8050F216820F0010006
:1022200041E805024AB1206850E8050F216820F016
:10223000010041E80502002ADAD1206B012824D1EF
:10224000206850E8030F216820F0100041E80302E5
:10225000DAB1206850E8030F216820F0100041E84F
:10226000030292B1206850E8030F216820F01000AB
:1022700041E803024AB1206850E8030F216820F0CA
:10228000100041E80302002ADAD1202084F842003D
:10229000002008212063616484F84000032020218D
:1022A00084F8421001B0BDE8F08300BFFFF7B0FA38
:1022B000F4E700002DE9F04381B0044690F84100B6
:1022C000202809D100294FF0010018BF002A07D1AA
:1022D00001B0BDE8F08300BF022001B0BDE8F0838B
:1022E0000020606421201D460E4684F841001746F8
:1022F000FFF78EFAA784E784A1688146B1F5805F75
:1023000002D1206900285DD037460020E28C216888
:10231000002A5DD06A1C24D0002D4AD0804600BF20
:102320000868000608D4FFF773FAA0EB0900A8427A
:102330007AD82168C868F3E717B117F8010B04E0F1
:1023400038F8020B00276FF35F204860E08C0138FB
:10235000E084E08C0028E3D13AE000BF0A6812066E
:1023600009D40A68120606D40A6812065CBF0A6815
:102370005FEA0262F2D51FB117F8012B05E000BF3A
:1023800030F8022B00276FF35F224A60E28C013A9B
:10239000E284E28C002AE4D11AE000BF30F8022B7C
:1023A00000276FF35F224A60E28C013AE284E28CFC
:1023B00072B10A68120635D5002FEFD017F8012B3D
:1023C000F1E700BF00273046E28C2168002AA1D146
:1023D000086840061ED42DB3681C14D10868400656
:1023E0002AD40868400627D40868400624D4086820
:1023F00040064FF00000F1D50DE000BF2068C16835
:102400000068400618D4FFF703FAA0EB0900A842C1
:10241000F4D909E00020202184F8411001B0BDE882
:10242000F08300BFFFF7F4F90320202184F8411066
:1024300001B0BDE8F08300BF0020202184F84110E6
:1024400001B0BDE8F0830000FEE70000FEE70000F9
:10245000FEE700007047000070470000FFF7DEB99C
:102460004EF68850CEF20000016841F47001016020
:1024700070470000B0B50446006804F108030ECBB5
:102480000569194325F440552A4302616269E369ED
:102490001143C268194349F20C639A431143C16066
:1024A0004169A26921F4407141F20043114340F4B3
:1024B0008062C4F201039A42416103D1FFF71CFB21
:1024C00002E000BFFFF704FBE1694FF69C7563680B
:1024D0001922C0F6FF75B1F5004FA0FB02011FD114
:1024E0005A00DB0FFDF7FEFE48F21F51C5F2EB115B
:1024F000A0FB01235A0905F1805302FB030032239C
:1025000003EBC000A0FB01014FF4F87000EA1110CA
:1025100000EB0210C1F34211084421688860B0BD8D
:102520009A009B0FFDF7DEFE48F21F51C5F2EB113A
:10253000A0FB01235A0902FB0500322303EB001024
:10254000A0FB0101F02000EA511000EB0210C1F3E2
:102550004311084421688860B0BD0000FEE7000018
:1025600070B5054640F21800C2F2000014460E464F
:1025700000F0F4FB2968401AB04298BF70BD40F2E9
:102580001800C2F2000000F0E9FB0146A2682046F4
:102590002960BDE87040104770B592B006AC204687
:1025A0003021FEF75FF8002543F640000595CDE9A0
:1025B0000355CDE901550095C4F2020001680226D9
:1025C00041F080510160006800F080500090009858
:1025D00047F200000095C4F20000016841F4804118
:1025E0000160006800F4804000900098012009908C
:1025F00010200A9008200E90A820CDE90F06042094
:10260000119020460696CDE90C65FFF7C1FA18B186
:1026100072B600BFFEE700BF0F20CDE901064FF400
:10262000A05004904FF48050059001A80521039517
:10263000FFF79CF910B172B6FEE700BF12B070BD93
:1026400082B040F21804C2F2000420464FF4FA713E
:1026500000F080FB204600F055FB28B940F218003E
:10266000C2F2000000F07CFB63A0FDF7E5FF40F242
:102670001804C2F20004204600F0ECFB43F2A31061
:10268000C0F60000FDF7D8FF43F2BC10C0F6000012
:10269000FDF7D2FF204600F0CBF843F2CE10C0F693
:1026A0000000FDF7C9FF204600F03AFB43F273102B
:1026B000C0F60000FDF7C0FF204600F0FDF805461B
:1026C000204640F6C41100F045FB9DB1681C09D0BE
:1026D000A81C28D143F23F10C0F60000FDF7ACFF64
:1026E00021E000BF43F22910C0F60000FDF7A4FF6F
:1026F00019E000BF43F2551004F12801C0F60000B4
:10270000FDF768FE43F2641004F22911C0F60000E0
:10271000FDF760FE43F2FB00C0F60000FDF78CFF02
:10272000204600F01DFB43F2A31943F2BC1743F20D
:10273000CE1543F273160FF2D808C0F60009C0F6A2
:102740000007C0F60005C0F6000604F1280004F2F8
:10275000291B019006E000BF43F22910C0F60000DB
:10276000FDF76AFF4046FDF767FF204600F072FB69
:102770004846FDF761FF3846FDF75EFF204600F052
:1027800057F82846FDF758FF204600F0C9FA3046B2
:10279000FDF752FF204600F08FF88246204640F6B3
:1027A000C41100F0D7FA1AF102001DD01AF101008D
:1027B000D2D0BAF1000FD5D143F255100199C0F62D
:1027C0000000FDF707FE43F26410C0F60000594612
:1027D000FDF700FE43F2FB00C0F60000FDF72CFF02
:1027E000204600F0BDFABDE743F23F10C0F60000FE
:1027F000FDF722FFB6E700BF426F6F746C6F616434
:1028000065722072756E6E696E672E2E2E00000046
:10281000556E6B6E6F776E204572726F722C204E04
:102820006F772052657472792E2E2E0A00000000F8
:1028300080B5FEF7FDFE05200221FEF7A9FDBDE8EB
:102840008040FEF77DBE00002DE9F0411C46154694
:102850000E46FEF7EDFE6CB12A78002031460023CB
:102860004FF00008FEF776FE60B1FEF769FE4046C5
:10287000BDE8F0814FF00108FEF762FE4046BDE87A
:10288000F08100BF012000BF0746844209D0EA5D05
:10289000F11900200023FEF75DFE002807F101007A
:1028A000F2D04FF00008A74228BF4FF00108FEF712
:1028B00047FE4046BDE8F0812DE9F04FADF2144DE2
:1028C00003AE0446D0F820A0304640F20541FDF7A3
:1028D000C9FE002706F1030904F229100DF1080BC7
:1028E0004FF0000802970190002502E0204600F01A
:1028F000DBF8204631465A464FF47A7300F0E6F88A
:1029000040B1012800F0A2804544052D00F3A280CB
:102910004321EBE7029D681C00F0A48045B19DF8BF
:102920000D00F9B2884209D000251521DEE700BF6D
:102930002046062100F0B8F80027D5E767B1204609
:1029400051464A462B46FFF77FFF002800F096804D
:10295000AA44062172E000BF9DF80F10002900F084
:102960008180002032181579231883F828109DB132
:10297000517983F8295089B1957983F82A107DB16E
:10298000D179021D83F82B5019B10330FF2810466E
:10299000E8D3B018023004E0D01C02E0101D00E0C3
:1029A000501D8278002A3ED0C178019B1A70D1B3A5
:1029B000027984F82A11B2B3417984F82B2191B3BA
:1029C000827984F82C1172B3C17984F82D2151B326
:1029D000027A84F82E1132B3417A84F82F2111B390
:1029E000827A84F83011F2B1C17A84F83121D1B100
:1029F000027B84F83211B2B1417B84F8332191B16A
:102A0000827B84F8341172B1C17B84F8352151B1D5
:102A1000027C84F8361132B1407C84F837210028DA
:102A200018BF84F838010198FDF7F8FDE169884284
:102A300028D82046062100F037F84321204600F030
:102A400033F801374FF001084EE700BF6FF0020581
:102A500001E000BF002520461821182600F024F8C8
:102A600002E000BF002506262046314600F01CF893
:102A700028460DF2144DBDE8F08F00BF6FF0010540
:102A8000E9E700BF4FF0FF35E5E7000080B540F211
:102A900000301346C2F200000122FFF7F3FAB0FA49
:102AA00080F0400980BD000080B582B040F2003067
:102AB0008DF80710C2F200000DF1070101224FF05E
:102AC000FF33FFF7F7FB02B080BD00002DE9F04FA8
:102AD00081B0074600209246884610600DF1030140
:102AE00038461A469B46FFF7D1FF002800F0F080D9
:102AF0009DF803104A1E172A00F2E28000204FF0D2
:102B00008009DFE812F01B001900E500FC00E50079
:102B1000E500E500E500E500E500E500E500E5008D
:102B2000E500E500E500E500E500E500E500E5007D
:102B3000E500E500EB0000BF4FF48069454605F86D
:102B4000011B49F005040126384629465A46FFF77D
:102B50009DFF002800F0BC800136B44205F101055C
:102B6000F2D898F8010098F802104840FF2840F089
:102B7000AF804FF6FE7008F10301C0F2010001EBD7
:102B80000902002641F2210311F8017B00EA460503
:102B900045EAD715360448BF5D40C7F3801646EABC
:102BA00045062D0448BF5E40C7F3401545EA46057B
:102BB000360448BF5D40C7F3001646EA45062D04BB
:102BC00048BF5E40C7F3C00545EA4605360448BF26
:102BD0005D40C7F3800646EA45062D0448BF5E40C7
:102BE000C7F3400545EA4605360407F0010748BF2C
:102BF0005D4047EA45062F0448BF5E409142C3D37B
:102C0000B2B241F2210181EA4203B2F5004F38BF6E
:102C1000530081EA43021F0458BF5A0081EA42036D
:102C2000170458BF530081EA43021F0458BF5A00DB
:102C300081EA4203170458BF530081EA43021F048C
:102C400058BF5A0081EA4203170458BF530081EA73
:102C500043021F0458BF5A0000EA4200120448BF52
:102C6000484081EA4002030458BF420081EA420022
:102C7000130458BF500081EA4002030458BF4200C9
:102C800081EA4200130458BF500081EA4002030465
:102C900058BF420081EA4200130458BF500081EA45
:102CA0004001020458BF410008EB0900C2780079D6
:102CB00089B240EA022088420AD1CAF800901DE099
:102CC000412901D0612903D1012001B0BDE8F08F75
:102CD0004FF0FF3001B0BDE8F08F00BF0DF10301F0
:102CE00038465A46FFF7D2FE00284FF0FF3006D094
:102CF0009DF80310182902D1CAF80000002001B085
:102D0000BDE8F08F43F67401C4F202010868820046
:102D100003D50A6842F080720A60C0F340707047C1
:102D200081B040F20030C2F200000168CA6822F0AF
:102D30002002CA606FF020020A60002200920A6836
:102D40000092496800910099202180F8421001B05A
:102D5000704700000846FEF7DFBB0000FEF758BDD5
:102D600070B50546006AE96804688C423ED368691C
:102D700084423BD822A0FDF75FFC4EF21006CEF253
:102D800000064FF0FF30C6F87001C6F87002C6F8B2
:102D90007401C6F87402C6F87801C6F87802C6F85D
:102DA0007C01C6F87C02C6F88001C6F88002C6F82D
:102DB0008401C6F88402C6F88801C6F88802C6F8FD
:102DC0008C01C6F88C02FEF785FB00203060706035
:102DD000B060286A4EF60851CEF2000108604068E3
:102DE00084F30888BDE87040004700BF08A0FDF7E5
:102DF00023FC13A02146BDE87040FDF7EBBA00BFED
:102E00004A756D7020746F204150502E2E2E000098
:102E10004572726F7220537461636B546F702C2013
:102E20004150502050726F636564757265206D610A
:102E300079206E6F742065786973742E000000002D
:102E4000537461636B546F703A2030782530385872
:102E50000A00000080B584B042F68D60C0F6000024
:102E6000029043F2D400C0F60000039040F2B42078
:102E7000C2F200006A464FF4FA71FFF771FB039843
:102E8000416809B10098884704B080BD40F6004011
:102E9000C4F202000421FEF7B3BC000048F20401B2
:102EA000411A002011F1030F38BF4FF0FF30704777
:102EB0000020704748F20101411A0020032938BF61
:102EC0000120704710B301783A291FD110B543F2A1
:102ED000EC01C0F600010446FDF7EEFBD0B143F271
:102EE000F301C0F600012046FDF7E6FBB0B143F266
:102EF000E401C0F600012046FDF7DEFB01464FF07D
:102F0000FF30002908BF48F2030010BD4FF0FF302A
:102F1000704700BF48F2010010BD00BF48F2020038
:102F200010BD00004FF0FF3070470000B0B51446F0
:102F300048F2030290420BD048F20202904209D1BB
:102F400034B14D1E15F8010F00F04EF8013CF9D1D7
:102F50000020B0BD4FF0FF30B0BD000082B044F69D
:102F60000044C4F20004FEF767FCFFF715FB0025E0
:102F700043F630000195C4F2020001684FF4E137D6
:102F800041F001010160006804F5444100F00100D6
:102F90000190019840F2B820C2F200000C26C0E96E
:102FA0000017C0E90255C0E90456C0E90655FEF70E
:102FB000DBFF18B172B600BFFEE700BF40F2003081
:102FC000C2F20000C0E90047C0E90255C0E904565A
:102FD000C0E90655FEF7C8FF10B172B6FEE700BFA4
:102FE000FFF72EFBFCE7000040F20031C2F20001C7
:102FF00009680A68520609D40A6852065CBF0A6862
:103000005FEA426202D40A685206F2D5486070470D
:1030100030380A2801D201207047002070478A68A2
:10302000002A02DC0022FDF7BEBC521E8A604A68FC
:10303000C0B2531C4B6010707047000010B50029DF
:103040000AD00878002807D005487844FDF734FBFB
:10305000002801D0002010BD0248784410BD0000B7
:10306000BA010000B2010000F1EE100A4FF6FF7144
:10307000C0F2C03120EA010040F04070E1EE100AD9
:103080007047303132333435363738394142434472
:1030900045464030580030313233343536373839D0
:1030A00061626364656640307800040000080000D7
:1030B00000000000000200010000100000000000FD
:1030C00000000001020304060708090000000001D7
:1030D00002030400000000000000000000000000E7
:1030E000000000003A535444455252003A535444AD
:1030F000494E003A5354444F555400596D6F64651E
:103100006D20646F776E6C6F61642066696E6973A1
:103110006865642C204E6F77204A756D7020746F3F
:10312000204150502E2E2E0A0046696C65205369AE
:103130007A6520546F6F204C617267652E0A0046D5
:103140006C6173682050726F6772616D2045727296
:103150006F722E0A0046696C65204E616D653A20DB
:1031600025730A0046696C652053697A653A202503
:10317000730A004E6F77206C616E75636820426C35
:103180006F636B696E6720596D6F64656D2C20509D
:103190006C656173652073656E642066696C652E6D
:1031A0002E2E00596D6F64656D20646F776E6C6FA5
:1031B00061642073746172742E2E2E004E6F77201E
:1031C000457261736520466C6173682E2E004572EE
:1031D00061736520466C6173682046696E69736827
:1031E00065642E001833000800000020580100001C
:1031F000EC010008403300085801002018080000C6
:103200002C0200081001000043000000F8FFFFFF3F
:1032100000404040404040404040414141414140E9
:10322000404040404040404040404040404040409E
:10323000400502020202020202020202020202022D
:103240000220202020202020202020020202020232
:10325000020290909090909010101010101010108A
:103260001010101010101010101010100202020296
:1032700002028888888888880808080808080808DA
:1032800008080808080808080808080802020202D6
:1032900040000000000000000000000000000000EE
:1032A000000000000000000000000000000000001E
:1032B000000000000000000000000000000000000E
:1032C00000000000000000000000000000000000FE
:1032D00000000000000000000000000000000000EE
:1032E00000000000000000000000000000000000DE
:1032F00000000000000000000000000000000000CE
:1033000000000000000000000000000000000000BD
:103310000000000000000000D1420152105324F4CC
:1033200032084210431008352000C00134C001208B
:103330004202420233020803FF0408011B0000009E
:040000050800018965
:00000001FF
