:020000040800F2
:10000000B02B01206D030008B5590008AD59000858
:10001000B1590008C125000835680008000000003B
:10002000000000000000000000000000BD590008B2
:10003000D125000800000000B9590008C159000886
:100040008703000887030008870300088703000868
:100050008703000887030008870300088703000858
:10006000870300088703000887030008C5250008E8
:100070008703000887030008870300088703000838
:100080008703000887030008870300088703000828
:100090008703000887030008870300088703000818
:1000A0008703000887030008870300088703000808
:1000B00087030008870300088703000887030008F8
:1000C00087030008870300088703000887030008E8
:1000D00087030008870300088703000887030008D8
:1000E00087030008870300088703000887030008C8
:1000F00087030008870300088703000887030008B8
:1001000087030008870300088703000887030008A7
:10011000395B00088703000887030008870300088D
:100120008703000887030008870300088703000887
:100130008703000887030008870300088703000877
:100140008703000887030008870300088703000867
:100150008703000887030008870300088703000857
:100160008703000887030008870300088703000847
:100170008703000887030008D9590008870300088F
:100180008703000887030008870300088703000827
:1001900087030008000000008703000887030008A9
:1001A0008703000887030008870300088703000807
:1001B00087030008870300088703000887030008F7
:1001C00087030008870300088703000887030008E7
:1001D000870300088703000800F002F800F0B7F872
:1001E00014A696E8000CB244B344DA4501D100F0FD
:1001F000AEF8BAE80F000FA696E83000A5EB0405AC
:1002000004EB0607AAEB0704A7F101074FEA15154F
:100210004FEA3414A4F10104AC4201D300F097F882
:1002200013F0010F18BFFB1A43F0010300F001F8AF
:10023000DBE71847A0F90000C0F90000103A24BF1E
:1002400078C878C1FAD8520724BF30C830C144BF3B
:1002500004680C6070470000704700000023002411
:1002600000250026103A28BF78C1FBD8520728BFC6
:1002700030C148BF0B6070476E2900F0D9817029EA
:1002800000F0BF8266290EF01C8565290EF01985E5
:1002900067290EF0168561290EF0158503681B0A83
:1002A00028BF41F08001692900F08681642900F0AF
:1002B0008381752900F080816F2900F04D827829B3
:1002C00000F08B82E92901F0DB81E42901F0D8817B
:1002D000F52901F0D581EF2900F04A82F82900F0D4
:1002E0008A820368DB0928BF41F08001632900F09E
:1002F0005D86732900F06286E32900F07F86F3298A
:1003000000F08486002070471FB50EF0CDFC9DE8FC
:10031000030000F071FF01F037FC04000020002111
:100320000EF096FC401C6060002000210EF0A6FC40
:10033000E06001F0F5FB01F025FB00F0E7FC1FBDDC
:1003400010B5002001F0BAFB01F085FB10BD01F0F3
:10035000F5FB1146FFF7D8FF0DF0B4FE01F0FCFFEE
:1003600003B4FFF7EDFF03BC00F012FF094880471C
:1003700009480047FEE7FEE7FEE7FEE7FEE7FEE787
:10038000FEE7FEE7FEE7FEE704480549054A064B9F
:1003900070470000C5590008D9010008B02B0020A3
:1003A000B02B0120B0AB0020B0AB002053EA020C10
:1003B00000F069802DE9F04B4FF00006002B1FBFC5
:1003C000B3FA83F503FA05F424FA05F65E4012BF8A
:1003D0001643B2FA82F502FA05F4C5F120051EBFF4
:1003E00022FA05FC44EA0C04203556EA044C4FEA94
:1003F000144418BF641C4FF000084FF000099042ED
:1004000071EB030C39D3002919BFB1FA81F701FA56
:1004100007F6B0FA80F700FA07F6C7F120071EBF0B
:1004200020FA07FC46EA0C062037B6FBF4FCA7EBE3
:100430000507103F07F01F0BCBF120062CFA06F63C
:100440000CFA0BFB44BFB3460026202FA4BF5E4628
:100450004FF0000B5BEA060C08BF4FF0010B19EBE5
:100460000B0948EB0608ABFB027C06FB02CC0BFB3E
:1004700003CCC01B71EB0C01C1E70B4602464146A1
:100480004846BDE8F08B13B5084318BF4FF0FF3066
:100490000146AFF30080BDE81C4070470FB404492B
:1004A00010B503AA029800F08DFD10BC5DF814FB96
:1004B000CC0000200FB41CB50C0007AA009007D098
:1004C0004142A14202D32044401E01E04FF0FF30E0
:1004D000074B7B4469460190069800F042FD0021DD
:1004E000002C01D0009A11701CBC5DF814FB0000B8
:1004F000B30A000070B5044685690068C10601D5DD
:10050000302600E02026C00707D070BDD4E90121C5
:1005100030469047206A401C20626D1EF6D570BDA3
:1005200070B5044685690078C00707D170BDD4E96D
:10053000012120209047206A401C20626D1EF6D5C4
:1005400070BD09684A0501D540B27047C905FCD5A0
:1005500000B2704709684A0501D5C0B27047C905A5
:10056000FCD580B2704770B50C460546012A05D00F
:100570002878800600D5EA69002302E0012305E01F
:100580005B1C934202D2E05C0028F9D1A869E6180E
:10059000C01AA861286A184428622846FFF7AAFFF3
:1005A00004E0D5E9012114F8010B9047B442F8D3D7
:1005B0002846FFF7B5FF70BD2DE9F041064600243F
:1005C00010687529314616A510D0FFF7BAFF00282C
:1005D00002DA404213A507E031688A0701D512A567
:1005E00002E0490704D511A5012401E0FFF7B2FF9D
:1005F00000210A2206F1240709E0B0FBF2FCB0FB5F
:10060000F2F302FB1C00303078541846491C0028D5
:10061000F3D123462A463046BDE8F04100F042BC03
:10062000000000002D0000002B0000002000000052
:1006300011680268006A530501D508700AE0D30505
:1006400001D5088006E0130603D5C217C1E90002F0
:1006500000E00860012070472DE9FF5F15468A46DB
:100660000446DFF8AC80F8440027D8E900103E4685
:10067000CDE9001010E03AF816106A4602A800F022
:1006800002FD411C07D02178890603D5E26939189B
:1006900091420DD80744761C2078800602D5E06987
:1006A000B84205DDAE42E6DB3AF816000028E2D19A
:1006B000A069C01BA0612046FFF71CFFD8E900100D
:1006C000CDE90010002017E03AF818106A4602A899
:1006D00000F0D9FCB0F1FF3F81460BD000250DF1B1
:1006E000080B05E0D4E901211BF8050090476D1CBB
:1006F0004D45F7D308F10100B0428046E4DB206AA3
:10070000384420622046FFF70BFFBDE8FF9F000042
:1007100062E6000030B4002100F1240408E002F099
:100720000705D208303542EA4372DB086554491C9C
:1007300052EA0305F3D10468002310A2250708D567
:1007400004F020040C4304D0C46901230CA2641EED
:10075000C46130BC00F0A6BB10B504462146106849
:10076000FFF7F8FE02462046BDE810400023D1E71F
:10077000D21D22F00701D1E90023CBE700000000E1
:1007800030000000F0B40D460188090502D5214C67
:100790007C4402E01F4C7C440E34002100F124060E
:1007A00008E002F00F071209E75D42EA03721B0935
:1007B0007754491C52EA0307F3D102780023120749
:1007C00004D5702D06D009B1022311342246F0BCA5
:1007D00000F068BB01231034F8E770B504460D46FD
:1007E00021461068FFF7B6FE024629462046BDE8BE
:1007F00070400023C6E7D21D22F00703D3E900238F
:10080000C0E70368126843F0200303600823C36154
:100810000023B7E740E500002DE9F05F8946044674
:100820004FF0000ADFF874B1FB44C0F820A0204666
:10083000E1688847002874D0252806D0D4E9012132
:100840009047206A401C2062F1E700265F46204660
:10085000E16888472028054607DB312D05D2781945
:1008600010F8200C08B10643F1E7B00701D526F0D7
:100870000406C4F81CA00027C4F818A02A2D09D02B
:1008800028460EF0CFF938B304EB8708303DC8F89E
:10089000185019E059F8041B204604EB87029161B7
:1008A000E1688847012F054618D1E069002820DA61
:1008B00026F020061DE0D8F8180000EB800005EBBC
:1008C00040003038C8F818002046E16888470546DF
:1008D0000EF0A8F90028EED1012F0AD02E2D08D154
:1008E0002046E16888477F1C0546022F46F0200617
:1008F000C4DBA069002803DA404246F00106A0618B
:10090000F00701D026F010066C2D0BD0682D09D011
:100910004C2D39D06A2D35D0742D35D07A2D33D069
:1009200016E038E0E1682F4620468847B842054681
:1009300009D16C2F26D04FF48060E1680643204631
:100940008847054604E06C2F1AD04FF480700643A8
:100950000DB3A5F14100192802D8203546F40066F0
:100960004A462946204626604E46FFF785FC80B160
:1009700001280BD0F61D26F0070000F1080956E704
:100980004020E4E78020D8E70020D6E706F10409FC
:100990004DE7284652E7206ABDE8F09FD0E400000A
:1009A00010B5044603E00EF044F9401C09D014F8D9
:1009B000010B05490028F6D1BDE810400A200EF0D1
:1009C00038B94FF0FF3010BDCC0000200B46014677
:1009D000184600F087BB40EA010310B59B070FD112
:1009E000042A0DD310C808C9121F9C42F8D020BA9F
:1009F00019BA884201D9012010BD4FF0FF3010BD57
:100A00001AB1D30703D0521C07E0002010BD10F824
:100A1000013B11F8014B1B1B07D110F8013B11F8EA
:100A2000014B1B1B01D1921EF1D1184610BD10B510
:100A3000431C02E010F8011B71B18107FAD14FF09D
:100A4000013202C88C1A8C4314EAC211F9D0C01AC0
:100A50000A0603D0C01E10BDC01A10BD0A0401D082
:100A6000801E10BD0902FCD0401E10BD032A40F2BA
:100A7000308010F0030C00F0158011F8013BBCF140
:100A8000020F624498BF11F801CB00F8013B38BF58
:100A900011F8013BA2F1040298BF00F801CB38BF66
:100AA00000F8013B11F0030300F04083083AC0F066
:100AB000088051F8043B083A51F804CBA0E808102C
:100AC000F5E7121D5CBF51F8043B40F8043BAFF35F
:100AD0000080D20724BF11F8013B11F801CB48BFB9
:100AE00011F8012B24BF00F8013B00F801CB48BFEF
:100AF00000F8012B7047431A28BF9A427FF6B6AF21
:100B000010441144032A40F2268010F0030F1EBF48
:100B100011F8013D521E00F8013D10F0030F7FF463
:100B2000F6AF11F0030300F03B80083AC0F00B80F1
:100B300051F8043D083A51F804CD40F8043D40F81E
:100B400004CDFFF7F3BF121D5CBF51F8043D40F820
:100B5000043DAFF30080D20724BF11F8013D11F826
:100B600001CD48BF11F8012C24BF00F8013D00F869
:100B700001CD48BF00F8012C7047431A28BF9A42A4
:100B800040F2D4821044114410F0030F1EBF11F83C
:100B9000013D521E00F8013D10F0030F7FF4F6AF47
:100BA000103AC0F00A8010B531E9185020E9185009
:100BB000103ABFF4F9AFBDE81040530724BF31E944
:100BC000081020E9081044BF51F8043D40F8043DE6
:100BD00012F0030F08BF7047D20728BF31F8023D5B
:100BE00048BF11F8012C28BF20F8023D48BF00F88B
:100BF000012C70474FF000020429C0F0128010F061
:100C0000030C00F01B80CCF1040CBCF1020F18BFE8
:100C100000F8012BA8BF20F8022BA1EB0C0100F07B
:100C20000DB85FEAC17C24BF00F8012B00F8012B4E
:100C300048BF00F8012B70474FF0000200B5134683
:100C400094469646203922BFA0E80C50A0E80C50EC
:100C5000B1F12001BFF4F7AF090728BFA0E80C509D
:100C600048BF0CC05DF804EB890028BF40F8042B96
:100C700008BF704748BF20F8022B11F0804F18BF03
:100C800000F8012B7047000030B44FF0013C50F8E1
:100C9000042B51F8043BCCFA52F4D51A20D1FCB9FC
:100CA00050F8042B51F8043BCCFA52F4D51A17D162
:100CB000B4B950F8042B51F8043BCCFA52F4D51ACD
:100CC0000ED16CB950F8042B51F8043BCCFA52F415
:100CD000D51A05D1002CDAD030BC4FF00000704797
:100CE00029BAB1FA81F111F01801D1F12000844044
:100CF000F2D1CA40CB4012F0FF0213F0FF0330BC28
:100D0000D01A7047704770477047000008487CB59C
:100D10007844009007487844009C0546019004E020
:100D20002046016808448047241DAC42F8D17CBDB0
:100D30000CF000001AF00000004870477401002019
:100D400070B5064600F038FA056806F10B0020F091
:100D50000704B4429CBF002070BD2B466A68BAB13C
:100D60001068A04210D304F1080188423CBF5068CB
:100D7000586007D35168101941601168091B016060
:100D800058601460101D70BD13465268002AE7D1E8
:100D90002146284600F01CFA0028DED170BD70B54F
:100DA0000446051F00F008FA0068002C14BF4468D0
:100DB00070BD002C18BFAC423CBF20466468F8D31D
:100DC00001680A18AA4218BF456003D12A6805467F
:100DD0001144016028684119A1421CBF6C6070BDBC
:100DE0006168696021680844286070BD2DE9F0479A
:100DF00091460C46804600F0DFF90768604234EA0D
:100E0000000001D1042C02D20520BDE8F087601E4D
:100E100040F0070609F10B0020F007054D4539D9D0
:100E20003B467A6882B31468101D404206EA000C03
:100E3000644525D9A4EB0C00854221D8BCF1000FF4
:100E40000BD0104601686244A1EB0C0111604168AF
:100E50005160C0F800C058600346116805F10800F1
:100E6000814205D35019491B016015605860034643
:100E700052F8040F58600020C8F80020BDE8F08741
:100E800013465268002ACED12946384600F0A0F910
:100E90000028C5D10620BDE8F0870B46014618465C
:100EA00000F090B82DE9F0470D4699469246044669
:100EB00000F124080168880604D5E06921F01001DA
:100EC000216000E00120A84201DD471B00E000276F
:100ED000A1697A1902EB0900081AA0612078C006FE
:100EE00002D42046FFF706FB002608E0D4E90121E2
:100EF0001AF806009047206A401C761C20624E4576
:100F0000F4DB2078C0060AD52046FFF7F3FA06E0A6
:100F1000D4E9012130209047206A401C2062381E0D
:100F2000A7F10107F4DC07E0D4E9012118F8050076
:100F30009047206A401C2062281EA5F10105F3DCC1
:100F40002046FFF7EDFA2078000602D50220BDE822
:100F5000F0870120FBE7000001694A1C0261087864
:100F6000704700B58FB0CDE90131002105910549E9
:100F70007944CDE9031011466846FFF74DFC0FB0E8
:100F800000BD0000E5FFFFFFD1E900239A4202D235
:100F9000531C0B601070704710B5436913B1AFF369
:100FA000008001E0FFF7DFFA012010BD127800F1A8
:100FB00024010A7000224A700122EDE711684FF007
:100FC000FF32E9E7074B70B50D467B44FFF7C9FFD9
:100FD0000446284600F0E1FB10B14FF0FF3070BD31
:100FE000204670BD65DC000010B5436913B1AFF356
:100FF000008001E0FFF730FB012010BD128800F1F6
:10100000240182840022C2840122EDE711684FF09E
:10101000FF32E9E72DE9F05F93460F46804604462C
:101020000026FFF789FED0F80090824614F8015B95
:101030002DB100F0B9F80068405DC007F6D12B2D46
:1010400002D02D2D1AD0641E0021CAF800105A4675
:101050003946204600F052FB014627B13868A042CD
:1010600001D1C7F80080DAF80000022809D0CAF8D8
:101070000090700505D54842BDE8F09F46F48066B3
:10108000E2E70846F8E72DE9F04116460C4605462A
:1010900000F08AF8036893F80101012807D0FF2CBB
:1010A00012D8185D80B101202C70BDE8F081D3F812
:1010B00007013246214603F20713C7182846BC46EB
:1010C000BDE8F041002360474FF0FF30EDE710B579
:1010D000002000F02BFDFFF733F9BDE810400120A0
:1010E00000F056B82DE9F041074615460E4610208F
:1010F000FFF726FE040013D06760C4E902650948C3
:10110000AFF3008000F05CF80168216006490460DC
:10111000002008600348AFF300800020BDE8F081A4
:101120000120FBE7100000200C00002010B5203A41
:10113000C0F00B80B1E81850A0E81850B1E8185082
:10114000A0E81850203ABFF4F5AF5FEA027C24BF54
:10115000B1E81850A0E8185044BF18C918C0BDE83D
:1011600010405FEA827C24BF51F8043B40F8043B06
:1011700008BF7047D20728BF31F8023B48BF11F8BB
:10118000012B28BF20F8023B48BF00F8012B704715
:1011900001491820ABBEFEE7260002000048704758
:1011A000740100200020704710B500F0EDFC001D18
:1011B00010BD00BF9DDA0000004870477C01002090
:1011C00000487047AC010020704770477047704777
:1011D00038B504460A4600206946AFF3008000286F
:1011E00008BF38BD02460099204600F0D1FC01201E
:1011F00038BD012001F0DDB8F8B5AFF30080054639
:1012000000200C460C2000BF0646A819A0420DD9AC
:10121000324669460020AFF30080070008BF01F0A6
:10122000C8F80098A04218BF0546C419FFF7C4FFCC
:1012300005600746F01D20F007004619284600F01B
:101240000AF8B44208BFF8BDA21B31463868BDE8B1
:10125000F84000F09DBC00210160416070470C2007
:1012600070472DE9FF4F0C461E464FF0FF378BB0FD
:10127000D2E90001DDF860800A908A46C1F30A5580
:1012800005B93D46002108464FF00000BAF1000FB5
:1012900000F4400005DA00EB80004FF4400101EA61
:1012A00050004FEA9059B9F1010F00DDB9460A9894
:1012B00050EA4A000ED044F61050A5F2FF354543DF
:1012C0002F14B8F1000F1ED07542291E1EDDC9F182
:1012D00000021CE0B8F1010F4FF0000001D03021F6
:1012E00003E0F24305E02154401CB042FBDB3046F2
:1012F0000022002121540B99C1F80880C1E9002087
:101300000FB0BDE8F08FBD1B6D1CDEE74A4600DA6A
:10131000694206A800F068FE06AB93E8070003AB3D
:1013200083E8070050460A990DF089F88DE8070018
:10133000A0F500501F3800900398002D0ADD42F2FE
:101340001F014A460844002303A9039068460DF094
:10135000F3FA09E0A0F500504A461F38002303A91C
:10136000039068460DF0FDFA8DE807000004000CBC
:1013700003D04FF0FF30410800E01046B8F1000FF5
:1013800003D00022009215461EE0751E05D400F021
:1013900019FC303262556D1EF9D5B346012208435F
:1013A00002D000227F1C04E02078302801D10022E6
:1013B0007F1E002A099784D01DE0112D07DA00F066
:1013C00001FC303262556D1C50EA0102F5D1084330
:1013D00002D00098C8B10EE00021681E05E0235C31
:1013E000625C63542254401E491C8142F7DBAB46C9
:1013F000A81B401E0990002004F80B000B98099AC6
:10140000C0F80880C0E9002B7AE711264FF00008E9
:1014100057E72DE9F04F88460446D21D22F0070118
:1014200091B0D1E90001CDE90A010DF0E3FB0246DC
:101430000B98C00F01D02D2007E02068810701D54F
:101440002B2002E0202101EAC000032A099001D0EC
:10145000072A05DB03464146204600F077FD0BE1F5
:101460002078800601D5E06900E00620B8F1650F1C
:10147000814606D0B8F1660F18D0B8F1670F70D169
:1014800031E00020B9F1110F009001DB112301E0E0
:1014900009F101030AAA01A90CA8FFF7E2FEDDE9A0
:1014A0000C70002609F10105834647E001204B46F8
:1014B00000904FF000470AAA01A90CA8FFF7D1FE3F
:1014C000DDE90DB00C995D46002610B909F1010067
:1014D0000D18B9EB050003D4C0F1FF3609F1010581
:1014E000A5EB09002BE0B9F1010F01DA4FF001097A
:1014F0000020B9F1110F0090484601DD112300E0F2
:1015000003460AAA01A90CA8FFF7ABFEDDE90C709F
:101510004D4600268346207800070AD4AB4500DA02
:101520005D4601A8012D04DD411911F8011C302987
:1015300007D04F4502DA17F1040F04DA0120824682
:101540000FE06D1EEEE7002F02DCED1B3E4403E0D2
:10155000781CA84200DD7D1CB81B00F1010A4FF089
:1015600000472078000703D4AA4501DB4FF0FF3A7B
:101570000021B7F1004F0DF143088DF8431024D03E
:1015800002202B23002F01DA7F422D230A21021E85
:10159000A0F1010000DC5FB197FBF1FC97FBF1F2D9
:1015A00001FB1C7C17460CF1300C08F801CDEEE76E
:1015B000A8F1010003702188090501D5452100E04B
:1015C0006521A0F1010800F8011C09980FA9A1EB01
:1015D0000807FF1D00B10120411901EBEA70A16964
:1015E0003844081A401EA0612078C00602D4204664
:1015F000FEF780FF099828B1D4E901219047206ABD
:10160000401C20622078C00622D52046FEF772FFDB
:101610001EE0002E04DBB34502DD01A8805D00E082
:101620003020D4E901219047206A401C2062761CBA
:10163000AAF101005FEA000A0AD100F0A5FAC06829
:101640000168405CD4E901219047206A401C206277
:10165000281EA5F10105DCDC07E0D4E9012118F81A
:10166000010B9047206A401C2062381EA7F1010739
:10167000F3DC2046FEF754FF032011B041E60000E2
:101680002DE9F0418046D21D22F007020025D2E963
:101690000002F52915A614D0011E72F1000106DA28
:1016A0000023D0EB030063EB020211A608E0D8F898
:1016B00000108B0701D50FA602E0490701D50EA641
:1016C00001251146002408F1240704E000F07AFA0D
:1016D00030323A55641C50EA0102F7D12B463246AB
:1016E00021464046BDE8F041FFF7DCBB00000000AA
:1016F0002D0000002B000000200000002DE9F05F0D
:10170000824615468B4600270AF10104B946007847
:10171000302801D09DB113E014F8010B012778287F
:1017200003D0582801D045B10AE00DB1102D07D1E2
:10173000002714F8010B102502E0082500E00A2517
:101740000026B0460EE005FB080005FB06F1012768
:101750001FFA80F801EB1046B6F5803F00D3B9467A
:1017600014F8010B294600F031FC0028EBDABBF13C
:10177000000F05D00FB1641E00E05446CBF80040C6
:10178000B9F1000F06D0FFF7D7FA02210160C81E99
:10179000BDE8F09F48EA0640FAE7007B00F08000D1
:1017A00070472DE9F05F054617460C46C86820F4DF
:1017B000201040F48000C860800602D5084600F082
:1017C0000CFDE06841F282014FF0FF3A014002292E
:1017D00003D0204600F09EFCB9E000F42041B1F5B2
:1017E000004F0FD1C00306D56168E06A884200D877
:1017F0000846606006E02069E062606060690CF0A5
:101800000BFCA061A0680022EEB200280DDAE168AE
:101810008B050AD4C043A06041F490302260E060A0
:101820006068411C61600670AAE0E0689146226031
:1018300040F40050E060206978BB60690CF0EEFB7A
:1018400004F124054FF00108A8B1A08910F4407FED
:1018500008D0E069FFF774FA206118B1E06840F43D
:10186000006017E0C4F81C802561E06820F4407037
:1018700040F480600EE0E069FFF762FA0028206122
:10188000F0D0E06840F4006010F4407FE06002D1E6
:1018900040F48070E06020696060E06825696FF066
:1018A000010BC1051ED56168E06A884200D8084670
:1018B000411B04D02246284600F036FCE8BB1FB18D
:1018C000E562C4E9015959E0681CE0626060E069C2
:1018D000401EA060E06840F48030E06030462E702A
:1018E000BDE8F09F17B100F480320AE06068411C47
:1018F00061600670E0680A2E40F48030E06006D037
:101900000022E16A6068814203D90B4602E00122AD
:10191000F7E70346B4F80CC05B1B5FEA4C5C04D4E9
:10192000D4F81CC09C4500DD02B3814200D80146BA
:10193000002BA1EB0008E56200E008E0C4E90159D2
:1019400007DD22461946284600F0EEFB08B1504656
:10195000C6E7B8F1000F09D0A169E5626560A1EBA7
:101960000800A061E06840F01000E06047B16168E5
:10197000A069E562491B08446560A0615846AFE76D
:101980003046ADE710B542485421FFF755F94148BC
:101990005421FFF751F940485421FFF74DF93F49D1
:1019A0003B483C4A3F4B08603D490A603A49196050
:1019B000531C0365481C1065012008653B48344AE8
:1019C00039A1784400F02AFC20B9384878440A3814
:1019D00000F0E8FC37482F4A35A1784400F01EFC9F
:1019E00020B9344878440A3800F0DCFC32482A4AEE
:1019F0002FA1784400F012FC20B92F4878440A380F
:101A000000F0D0FC40232248DC000021224600F0F8
:101A10005DFB20B125487844543800F0C3FC1D48D4
:101A200022464023002100F051FB20B12148784498
:101A3000543800F0B7FC184822461023002100F06B
:101A400045FB002806D01C487844BDE810405638B5
:101A500000F0A8BC10BD104870B5006D20F0010466
:101A60000B4800F053FC0B4800F050FC0A4800F013
:101A70004DFC09E0206D20F00105204600F046FCF9
:101A80002046FFF78CF92C46002CF3D170BD0000E6
:101A900078000020CC000020200100200000002061
:101AA00004000020080000207200000076D600002C
:101AB0007700000065D600003ED600002DE9F8430F
:101AC00006461548AFF30080FFF77AFB134F8146B7
:101AD000E8464D4616E026B1E068B04201D0254602
:101AE00010E0206828600C48C7F80080AFF3008041
:101AF000D4E9010188470848AFF3008039684145BF
:101B000000D04D462C68002CE5D1002038600248FA
:101B1000AFF30080BDE8F883100000200C00002027
:101B20000148FFF73FBB00001000002010B500F097
:101B300021FCBDE8104000F018BC70477546FFF767
:101B40002DFBAE4605006946534620F0070085464A
:101B500018B020B5FEF718FCBDE820404FF0000695
:101B60004FF000074FF000084FF0000BAC46ACE818
:101B7000C009ACE8C009ACE8C009ACE8C00921F074
:101B800007018D467047000000487047940100200F
:101B9000034640688C46002818BF88423CBF034675
:101BA0004068F8D318681844884207D00CF1030045
:101BB00020F00700001D411A521A0146081D0A6054
:101BC000FFF7EDB830B5B0F10A0271F100034FEA4A
:101BD000900E4EEA817EB0EB0E0061EB91014FEA70
:101BE000101E4EEA017E10EB0E0041EB11114FEA80
:101BF000102E4EEA016E10EB0E0041EB11214FEA60
:101C0000104E4EEA014E10EB0E0041EB1141401810
:101C100041F100014FEAD00040EA41704FEAD101A2
:101C20004FEA810444EA907410EB800544EB010410
:101C30006D1944EB0404521BA3414FF0000348BF4D
:101C40000A3200D530BD401C41F1000130BD00001A
:101C50002DE9F04F04460D46D21D22F0070089B051
:101C6000D0E90097484639460CF0C4FF0246F80F09
:101C700001D02D2307E02068810701D52B2302E046
:101C8000202101EAC0038DF820300BB1012000E0D3
:101C90000020032A824601D0072A04DB2946204679
:101CA00000F054F93FE12078800601D40D2500E0D2
:101CB000E569C7F30A560D2D49DA00214FEA175B93
:101CC00008464FF00000002F00F4400007DA00EB58
:101CD00080004FF4400100EBD07001EA60008115F4
:101CE000012901DD4FF0FF3100224FEA850CBCF1E4
:101CF000180F06D31346ACF118004FF08052C240C3
:101D000003E04FF4801323FA0CF30CF10C0CBCF13C
:101D1000200F04D3ACF1200C09FA0CF001E007FA13
:101D20000CF000294FF0004801DD18B90FE00ED18A
:101D300040450CD319EB02095F4121B9404502D15E
:101D40009F4329EA0209BBEB175F00D0761C20886D
:101D5000000502D57B48784402E07A487844193877
:101D600008AA302302F80A30037C0AF10101002E90
:101D70000AF1020A53546A4602DC4FF0300101E0D6
:101D80004FF031014FF001088DF8001002D0A6F29B
:101D9000FF3603E059EA470100D06B4E002D02DC0C
:101DA0002178090704D54FF002082E218DF8011083
:101DB000C44600210BE0C7F303433F01C35C491C49
:101DC0006D1E02F80830052908F1010801DA002D1E
:101DD000F1DC00210CE000EB1973491C1B786D1E2F
:101DE000082902F808304FEA091908F1010801DA58
:101DF000002DF0DC21688B0602D516E0A8F1010861
:101E0000E04505DD02EB080313F8013C302BF5D06B
:101E1000B8F1000F09DD02EB080313F8013C2E2B8B
:101E200003D1090701D4A8F10108002D05DD3E21E9
:101E300002F808106D1E08F10108407C002E02F81F
:101E4000080008F1010804DA2D20764202F80800A3
:101E500002E02B2002F808000A214FF47A70864233
:101E600008F101080BDB96FBF0F3303302F8083081
:101E700096FBF0F308F1010800FB136601E0642E05
:101E80000CDB642096FBF0F3303302F8083096FB4D
:101E9000F0F308F1010800FB136601E00A2E06DBEF
:101EA00096FBF1F0303002F8080008F1010896FBCB
:101EB000F1F001FB1060303002F80800A16908F170
:101EC000010808EB050202EB0A00081AA06120785D
:101ED000C00602D42046FEF70DFB216A08AE01EBD6
:101EE0000A00206204E0D4E9012116F8010B9047B2
:101EF000BAF1010AF7D22078C00602D52046FEF7D3
:101F0000F9FA6E4609E016F8010B3E280FD0D4E925
:101F100001219047206A401C2062B8F10108F2D2EA
:101F20002046FEF7FDFA09B00320BDE8F08F206AD5
:101F30002844206203E0D4E90121302090476D1E3F
:101F4000EBD3F8E7C6CF000002FCFFFF2DE9F0411C
:101F50001F46044603260168072A01F4006004DBDB
:101F600008B116A505E016A503E008B115A500E027
:101F700015A521F010002060A069C01EA0610FB15E
:101F8000401EA0612046FEF7B5FA4FB1D4E9012109
:101F900038469047206A401C2062C01C206206E040
:101FA000206AFAE7D4E9012115F8010B9047761E63
:101FB000F8D22046FEF7B4FABDE8F0814E414E005B
:101FC0006E616E00494E4600696E66003A2800D286
:101FD000303820F02002412A01D3A2F13700884294
:101FE00001D34FF0FF3070472DE9F0478146164688
:101FF0008AB0354878440DC88DE80D0032487844E1
:10200000801C03AC0DC884E80D0041F69B300844E9
:10201000372190FBF1F290FBF1F5A5F1800501FB72
:1020200012041B3C02D56442012000E00020DFF8CE
:1020300098A080460027FA44AAF1BE0A0EE0E00705
:102040000AD03246684607EB470101230AEB8101BB
:102050000CF087FC8DE8070064107F1C002CEED18B
:10206000194F7F44AE3F19E0E80715D007EB041085
:102070000DF1180A90E80E008AE80E00C068F042E0
:1020800001D1981908903246012306A903A80CF043
:1020900068FC03AB83E807006D10641C002DE3D1DE
:1020A0004FF0010332466946B8F1000F03A802D091
:1020B0000CF042FC01E00CF054FCC9E90001C9F845
:1020C00008200AB0BDE8F087B8CD000070B5C4683C
:1020D000A50713D0650211D4B2F5807F09D0B2F5FF
:1020E000007F06D0B2F5806F08D1012300F12401F2
:1020F00006E05D1E6FF07F46B54201D3012070BD42
:102100000161C361416024F470611143C16000202A
:1021100070BD0000C16821F4001141F08001C16070
:1021200000218160016070472DE9F74F15460C468C
:102130004FF0FF3B3848D768D2F814A0074209D0C7
:102140005046A9690BF0A2FF002819DB3248C043B2
:102150000740EF604FF000496FF000484C4501D355
:10216000464600E0264600993B46504632460BF074
:1021700091FFA96920F00042B21A1144A96128B167
:102180002846FFF7C7FF5846BDE8FE8FA41BE5D1E0
:102190000020F9E770B504460569C06A61688842A5
:1021A00000D80846E16821F42011E160C90312D586
:1021B000A84208D02246411B2846FFF7B5FF10B1C0
:1021C0004FF0FF3070BD0020E562C4E90150E068C7
:1021D00020F48030E060002070BD10B50446C06877
:1021E00020F02000E060A16AA06988420DD020465E
:1021F000FFF7D0FFE06820F4405040F01000E060AE
:10220000A06AA0612069E062606044F24001E06879
:102210008843E06010BD0000100002002DE9F0418D
:102220000C461646070047D0104600F06FF820789D
:10223000611C61280AD0722802D077283CD102E0C4
:102240000125002405E00225042402E0082448F2C8
:10225000020511F8010B2B2806D0622809D011F8CD
:10226000010C74280AD00BE045F0030544F0020489
:10227000EFE745F0040544F00104EAE744F01004F8
:10228000384621460BF0D2FE411C15D000213161A9
:1022900071604FF40071F560F1617061200704D541
:1022A00030460222002100F08BF8306D40F0010032
:1022B00030653046BDE8F0810020FBE72DE9F041B4
:1022C0000D460646104C206DC10704D0410804D0CD
:1022D00020F00104F7E722460EE05420FEF730FD1F
:1022E00007000ED0206D47F00101084354212065FE
:1022F0003846FEF7A1FC3A4629463046BDE8F04193
:102300008CE70020D6E70000780000202DE9F04798
:1023100004464FF0FF380026C568D4E90497A807A3
:1023200018D02046FFF736FF38460BF06BFE00282A
:1023300000DA4646280502D54846FEF730FD4C2116
:102340002046FEF779FC206D20F001002065304624
:10235000BDE8F0874046FBE710B50446AFF30080C8
:102360002046BDE81040FDF7FBBF002801D0FEF776
:102370000FBF704710B5002102A000F09DF80120AA
:1023800010BD0000534947414252543A2041626E09
:102390006F726D616C207465726D696E6174696FC6
:1023A0006E00000010B500F0A1F8BDE81040FFF786
:1023B000DCBF10B500F0B4F8BDE81040FFF7D5BFA2
:1023C0002DE9F041044616460D464769007B80071B
:1023D0002ED038460BF022FE50BB3EB3012E02D069
:1023E000022E25D104E0204600F0C9F805441DE086
:1023F00038460BF011FEE168002841F01001E16061
:1024000005DA2046FFF786FE0120BDE8F081C9030A
:102410000BD56268E16A914200D81146A269114465
:102420002269891A814200DD08460544002D01DA3F
:102430000220EAE7E16A6068E268814206D291031D
:10244000E06203D522F4003141F01002A6690027B2
:10245000AE4213DCE16A814201D90B4600E003463B
:1024600003EB060C2369ACEB030CAC4506DD8142A3
:1024700001D98C4600E084469C4505D1A7602760C1
:1024800042F02000A5620DE0AD1BE669AE1B814263
:10249000A66000D90846C01A281A20605819606042
:1024A00022F0200003490840E060002084F84870D2
:1024B000ABE70000BFCFD7FF70B505460C460A203A
:1024C00000E06D1C00F054F835B128780028F8D1F0
:1024D00002E0641C00F04CF814B120780028F8D118
:1024E000BDE870400A2000F043B8000010B5014676
:1024F00002A0FFF7E1FF012010BD00005349475241
:10250000545245443A2052656469726563743A20B6
:1025100063616E2774206F70656E3A2000000000C2
:1025200010B5012805D0002103A0FFF7C5FF012049
:1025300010BD09A1F8E7000053494752544D454DDD
:102540003A204F7574206F662068656170206D6554
:102550006D6F7279000000003A2048656170206D4F
:10256000656D6F727920636F727275707465640047
:1025700008B569468DF800000320ABBE08BD10B554
:102580000146C268900703D0900607D5886A0AE022
:10259000FEF7D2FB01210160881E10BD8B694868DF
:1025A00018440B69C01A91F848301BB191F84910D2
:1025B000401A10BD1103FCD50028FADD401E10BDE5
:1025C000FEE7000042F65410C2F2000000F088BAA4
:1025D00070470000EFF3108072B600BFFEE7000006
:1025E00040F25800C2F20000027F02F0FD01012912
:1025F00042F20001C4F2020106D002F0FE02022AF9
:1026000016D00021017770470B6823F400730B602C
:102610000B6843F400630B600B6823F400630B60EA
:102620000B6843F400730B6002F0FE02022AE8D14B
:102630000A6842F480520A600A6822F480520A60F2
:102640000A6842F480620A60002101777047000046
:1026500070B542F210060446C4F2020600F084FF90
:10266000054600BF3068C00306D500F07DFF401B63
:10267000A042F7D9032070BD30684CF2FA31014016
:102680000AD040F25800C2F2000042680A43426099
:102690000120316070BD00BF3068C0074FF00000FE
:1026A00008BF70BD0121316070BD0000CB0704BFC1
:1026B0000120704710B54FF68073C7F6FF7311EA1B
:1026C000030C4FEAF20418BF4FF0010C032C0AD898
:1026D00040F2000EC7F6FF7EDFE804F01502081096
:1026E00011EA0E030FD0012010BD00BF0EF57F438D
:1026F0000B401CBF012010BD05E000BFBCF1000F66
:102700001CBF012010BD00684161816821F01801E3
:1027100011438160002010BD2DE9F0418046022068
:1027200088F81D00D8F80000D8F820608568012ED0
:1027300045F00105856047D0022E37D0032E4FD1DA
:10274000002A00F0A08002F0030C95084FF0000270
:1027500011D0A1F11006A2EB850500BF56F8104F6D
:10276000043A0460746895420460B4680460F468D4
:102770000460F3D15242BCF1000F00F0848051F8A4
:102780002230BCF1010F036000F07D8001EB82017B
:102790004A68BCF1020F026075D089680160006868
:1027A000012188F81D10BDE8F08100BF5FEA520CDE
:1027B0001CD0ACF10103032B0CF0030E1AD2002540
:1027C000BEF1000F41D158E0960811D0751E032DBF
:1027D00006F0030C5ED20026BCF1000F7BD18CE02A
:1027E0000020012188F81D10BDE8F081002646E098
:1027F000002684E06FF0030303EA520301F10E04A4
:102800005E42002534F80E3C34F80C7C043D47EA67
:102810000343036034F80A3C34F8087CAE4247EACC
:102820000343036034F8063C34F8047C47EA03436E
:10283000036034F8023C34F8107B47EA034303603A
:10284000E0D16D42BEF1000F17D001EB850431F8E5
:1028500025306588BEF1010F45EA034303600CD0C3
:10286000A388E588BEF1020F45EA0343036004D064
:102870002389678947EA034303604FEA8C06D2073E
:102880001CBF895B01800068012188F81D10BDE82C
:10289000F08100BF6FF0030505EA920501F10F0614
:1028A0006C42002556F80F3C043D1BBA036056F8F5
:1028B0000B3CAC421BBA036056F8073C1BBA0360E2
:1028C00056F8033C06F110061BBA0360EAD16E42CB
:1028D000BCF1000F11D051F82630BCF1010F1BBA2A
:1028E00003600AD001EB86067368BCF1020F1BBAC5
:1028F000036002D0B3681BBA036022F0030602F043
:102900000302DFE802F01503050D00BF895D0EE04C
:102910008A19895D527842EA0121018008E000BFEE
:102920008A19895D537843EA012101809178017009
:10293000D8F800000068012188F81D10BDE8F0817A
:10294000002804BF0120704710B50446407F20B91D
:1029500000202077204600F031F8022060772079AF
:1029600050B1D4E902122046FFF7A0FE00281CBF98
:10297000012010BD0AE000BF206841F6B751C0F247
:10298000C1414161816821F01801816060790028AE
:1029900014BF20694FF0FF302168D4E90523086196
:1029A000886820F0600010438860886820F080000C
:1029B0001843886001206077002010BD006843F252
:1029C0000001C4F20201884218BF704781B041F291
:1029D0004800C4F20200016841F4805101600068BF
:1029E00000F480500090009801B07047014690F8C4
:1029F0002500022828D180B50868D1E910CE8A6C5C
:102A0000036823F00E030360136823F480731360DC
:102A1000026822F0010202600EF01F00012202FA99
:102A200000F0CCF80400D1E913205060486D30B1BB
:102A3000026822F480720260D1E91602426000202E
:102A4000BDE8804003E000BF0420C86301200122EC
:102A500081F82520002281F82420704790F8251065
:102A6000022931D180B50168D0E910CE826C0B68A3
:102A700023F00E030B600B6823F001030B60116859
:102A800021F4807111600EF01F02012101FA02F29F
:102A9000CCF80420D0E913325A60426D32B1136889
:102AA00023F480731360D0E91623536080F8251057
:102AB000826B002180F824100AB190470021BDE804
:102AC00080400846704700BF0421C16301210022F5
:102AD00080F8251080F8242008467047C06B7047A6
:102AE000B0B5D0E910C30268DCF8001003F01F0392
:102AF0000424D2F800E09C400C4218BF1EF00405EC
:102B000020D102249C400C4218BF1EF0020529D19E
:102B1000D940090714D51EF0080108BFB0BD1168DF
:102B200021F00E011160012101FA03F2CCF804201A
:102B3000C16380F82510416B002280F8242069B918
:102B4000B0BD00BF1168890603D4116821F00401EB
:102B50001160CCF80440016B0029F1D0BDE8B04011
:102B6000084700BF1168890606D4116821F00A01E0
:102B70001160012180F82510CCF80440C16A0022C0
:102B8000002980F82420E9D1DAE7000000284FF07E
:102B9000010100F085802DE9F04740F2000CC4F2FD
:102BA000020C03684FF6F8320CF5816ECBF6FD721D
:102BB000734538BF02F580624CF6CD441A44CCF61A
:102BC000CC44A2FB042903F0FC02A2F10802A2FB00
:102BD00004280CF580646FF00305D0E902A60769AC
:102BE0003CBF0024C4F2020405EA9905C0E910457F
:102BF000022480F825401C6847F6F07224EA02029D
:102C0000324346693A4387693243C6693A43076AA1
:102C100032433A4342EA0A021A600CF502627345F3
:102C200038BF0CF50062AB180CF50862C264C8F33B
:102C3000041201FA02F540F68401BAF5804FC4F29D
:102C400002018364056505D1002242601A600D60AF
:102C500018E000BF4268D4B2013A032A4FF00002E4
:102C60001C600D600ED8631E01EB830747F87C2FB4
:102C700003F01F0201239340C1F8C030BC313A4633
:102C800002E000BF00210023C0E91521002101223C
:102C9000C365C16380F8252080F82410BDE8F047A3
:102CA0000846704790F824C0BCF1010F47D04FF0A0
:102CB000010C80F824C090F825C0BCF1010F3BD175
:102CC0002DE9F0414FF0020C80F825C04FF0000CC8
:102CD000C0F83CC0D0F800C000F14C0E9EE8304077
:102CE000DCF80060BEF1000F26F00106CCF80060B1
:102CF00065601CBFD0E916456560D0E91056012714
:102D000006F01F06846807FA06F6D0F830806E6079
:102D1000CCF804300B46102C04BF13460A46CCF8FE
:102D20000830CCF80C20DCF80010B8F1000F09D006
:102D300041F00E010EE000BF002180F824100220B7
:102D4000704700BF21F00401CCF80010DCF800103F
:102D500041F00A01CCF80010806C0168C90303D56A
:102D6000016841F480710160BEF1000F05D0DEF80A
:102D7000000040F48070CEF80000DCF8000040F065
:102D80000100CCF800000020BDE8F08180B541F2E0
:102D90002800C4F202004FF0FF31002201610261FD
:102DA0008161826101600260416042608160826095
:102DB00000F05EFC002080BDB0B5044600F0D4FBFE
:102DC000054640F21400C2F200004068611C18BFC2
:102DD000044400BF00F0C8FB401BA042FAD3B0BDC2
:102DE0002DE9F04740F25809C2F2000999F8002095
:102DF000012A04BF0220BDE8F0870546012089F8BA
:102E000000004FF47A708846FFF722FC20B10021C1
:102E100089F80010BDE8F08742F214070020C4F2E0
:102E20000207C9F8040057F8140C57F8141C490598
:102E30004CD4C0F3402089F81C002868012856D0E3
:102E40004FF0FF30C8F80000D5E90240204484422A
:102E500034D2E60040F2FA3A6868F968490203D4CD
:102E6000386820F4006006E0C00739680CBF41F400
:102E7000006021F400603860386806F4FF6120F4D7
:102E80007E7008433860386840F002003860386867
:102E900040F4803038604FF47A70FFF7D9FB39681E
:102EA000002821EA0A01396040F07E80D5E902015C
:102EB00001340844844206F10806CDD3002099F875
:102EC0001C1001F0FD02012A38D04FE057F8141C05
:102ED00010F400704FF0030021F4806108BF02205D
:102EE00047F8141C89F81C0028680128A8D16868D4
:102EF000F968490202D448F2040009E0C10703D08E
:102F0000396841F004013960800704D54FF400406E
:102F1000396808433860386840F4803038604FF4CE
:102F20007A70FFF795FB396848F2040291433960E3
:102F300099F81C1001F0FD02012A17D157F8142C42
:102F400022F4007247F8142C57F8142C42F4006253
:102F500047F8142C57F8142C22F4006247F8142C6C
:102F600057F8142C42F4007247F8142C01F0FE01BB
:102F7000022911D157F8141C41F4805147F8141C50
:102F800057F8141C21F4805147F8141C57F8141CEE
:102F900041F4806147F8141C002189F81C100021BD
:102FA00089F80010BDE8F087C8F8004099F81C10B7
:102FB00001F0FD02012AC1D0D8E7000040F2580C10
:102FC000C2F2000C9CF80020012A04BF02207047C6
:102FD00042F20002C4F20202536A916A8B426ED935
:102FE000516C936C99426AD9116821F48071116017
:102FF000116889050BD5116821F400711160116801
:1030000041F400611160116821F4006111601168E0
:1030100049050BD5116821F480611160116841F4F4
:1030200080511160116821F480511160D16A01F062
:103030007F03C1F306418B4204D8D16A21F07F118E
:103040007F31D162116B01F07F03C1F306418B42E6
:1030500004D8116B21F07F117F311163D16C01F025
:103060007F03C1F306418B4204D8D16C21F07F115C
:103070007F31D164116D01F07F03C1F306418B42B2
:1030800004D8116D21F07F117F311165116A21F48F
:10309000800108431062506940F40030506140F2F2
:1030A0001C00C2F200000068B0F5FA5F0CD2506953
:1030B00020F400305061506940F000605061002001
:1030C0008CF800000120704744F6D351C1F2620130
:1030D000A0FB0101480A4FF47A714843C0F1040093
:1030E0001169C90344BF11695FEAC131DFD51169B4
:1030F000C90344BF11695FEAC131D8D5002800F186
:103100000400EDD1D3E7000042F21400C4F2020043
:10311000016841F0004101600068C043C00F704782
:10312000B0B542F21005C4F20205686840F00060D4
:10313000686000F019FA04462868C00308D500F05A
:1031400013FA001BB0F57A7FF6D90320B0BD00BF9B
:1031500028684CF2FA3101400AD040F25800C2F21D
:10316000000042680A43426001202960B0BD00BFF0
:103170002868C0074FF0000008BFB0BD01212960DA
:10318000B0BD000042F20C00C4F2020081684900A8
:103190005CBF0020704742F63B21C0F61901016078
:1031A00046F67F61C4F65D4101608068C0F38070BF
:1031B000704700002DE9F04740F25809C2F20009BB
:1031C00099F80070012F04BF0220BDE8F087054682
:1031D00042F21006012098468A461746C4F20206BB
:1031E00089F8000000F0C0F9044600BF3068C00351
:1031F0000CD500F0B9F9001BB0F57A7FF6D90320A1
:10320000002189F80010BDE8F08700BF30684CF25B
:10321000FA3108400CD0D9F804100143C9F8041061
:1032200030600120002189F80010BDE8F08700BF60
:1032300030680021C0071CBF01203060C9F80410AD
:1032400056F8100C4005284606D556F8101C21F4F7
:10325000806146F8101C0221002889F81C1041D01A
:1032600002284DD87168A7F1400341F480217160B4
:10327000EFF31081EFF3108272B6AAF140024027FB
:1032800053F8405F103F42F8405F5D683C06556070
:103290009D689560DD68D5601D6915615D69556142
:1032A0009D699561DD69D5611D6A15625D6A55622A
:1032B0009D6A9562DD6AD5621D6B15635D6B556312
:1032C0009D6B9563DD6BD563DAD1871E18BF01272F
:1032D00081F310886FF48028022818BF4FF0FF3860
:1032E00011E000BF706840F001007060CAF8007023
:1032F000BFF36F8FCAF804806FF00108002702E067
:103300004FF0FF38012700F02FF904463068C00362
:1033100008D500F029F9001BB0F57A7FF6D9032013
:1033200013E000BF30684CF2FA31014006D0D9F802
:1033300004000843C9F80400012005E03068C00714
:103340004FF0000001D00121316004461FB97068C0
:1033500000EA08007060FFF743F92046002189F871
:103360000010BDE8F087000042F20800C4F202003D
:10337000C168B1F1FF3FC4BF0020704740F2231184
:10338000C4F26751016048F6AB11CCF6EF51016011
:10339000C068C00F704700002DE9F04F83B00E6881
:1033A000002E00F0CF8000F1200241F2004C00928C
:1033B00000F13847C4F6000C06224FEAB7256045F5
:1033C00008BF0522052D38BF4FEAB7220025002788
:1033D0004FF0000801920AE00E6808F1010836FA81
:1033E00008F207F1020705F1040500F0AB800122A5
:1033F00002FA08FE16EA0E09EED0D1F804C0032244
:103400000CF0030BABF1010602FA07F4012E6FEA90
:10341000040A11D88468CE6804EA0A04BE40344322
:103420008460446824EA0E06CCF3001404FA08F41D
:103430002643466006E000BFBBF1030F02D14FF008
:10344000030B21E0C6688C6806EA0A06BC402643E6
:10345000BBF1020FC66017D16FF00302009B02EAB6
:10346000580605F01C020F2453F806C004FA02FEA9
:103470000C692CEA0E0C04FA02F242EA0C029A5190
:10348000D1F804C00CF0030B02680BFA07F302EA50
:103490000A021A431CF4403F02609DD041F26003CF
:1034A000C4F202031A6840F2004E42F001021A60B0
:1034B0001A68C4F2010E02F001020292029A28F088
:1034C00003024FF6084C7244CFF6FF7C52F80C30E2
:1034D00005F00C060F24B440A343019C04FA06F641
:1034E000334342F80C30DEF808204B6842EA090604
:1034F00040F20C4CDC0258BF22EA0906CEF8086004
:10350000C4F2010CDCF800209C0242EA090658BF14
:1035100022EA0906CCF80060DEF804209C0342EAA7
:10352000090658BF22EA0906CEF80460DEF800203A
:10353000DB0342EA090658BF22EA0906CEF800601A
:103540004AE700BF03B0BDE8F08F0000426902EA1D
:103550000103914341EA0341816170471823002A26
:1035600008BF2823C150704742F6AC30C2F20000B9
:1035700000687047002804BF01207047B0B50446BA
:103580000068D4E901124CF6CC43036045F2555370
:10359000036041608260FFF7E7FF2168CA68520755
:1035A00010D0054603E000BFC86840070AD0FFF707
:1035B000DBFF401B21683228F6D3C8684007F3D0F0
:1035C0000320B0BD0A69E068824206BF4AF6AA201D
:1035D000086008610020B0BD01684AF6AA220020F8
:1035E0000A60704740F2140042F6AC31C2F20000AB
:1035F000C2F2000140680A68104408607047000089
:1036000080B5032000F08EF80F2000F009F80028A4
:103610001CBF012080BD00F02DF8002080BD0000FF
:10362000B0B540F21405C2F200056968F1B1044674
:1036300040F21C00C2F200004FF47A720068B2FB44
:10364000F1F1B0FBF1F000F0D3FE01460F2C4FF08A
:1036500001000AD8002918BFB0BD4FF0FF30214645
:10366000002200F033F800202C60B0BD0120B0BD76
:103670007047000082B041F25800C4F20200816835
:1036800041F001018160816801F00101019101991E
:10369000016841F080510160006800F080500090A6
:1036A000009802B000F0D6B8002848BF704700F07C
:1036B0001F01012202FA01F11C2202EAD0004EF29F
:1036C0000012CEF2000281507047000010B54EF695
:1036D0000C5CCEF2000CDCF80030C3F3022E8EF04E
:1036E0000704042C28BF0424BEF103034FF0FF3E5F
:1036F0000EFA04F438BF0023A14399400EFA03F3F5
:103700009A43114300F00F0200F160430901043AAB
:1037100003F564436244002848BF02F10C031970AA
:1037200010BD00004EF60C51CEF200010A684FF6B3
:10373000FF031A4060F30A2242F0806040F0FD70FF
:103740000860704747F21401C4F2000151F8142CCC
:10375000B0F5007F3CD0002874D1C86E02F4C0627E
:1037600020F48070B2F5806FC8662FD151F8140C28
:10377000012262F34A2041F8140C40F21C00C2F20C
:1037800000000068322250434DF68362C4F21B32BF
:10379000A0FB0202900C00BF0A68520511D5421C22
:1037A0000FD00A6852050CD558B10A68520508D5E1
:1037B000012806D00A68520503D50228A0F10400AA
:1037C000EAD10868400544BF0320704700207047D5
:1037D000C86E02F4C06240F48070B2F5806FC866B3
:1037E000F4D151F8140C012262F34A2041F8140C70
:1037F00040F21C00C2F200000068322250434DF635
:103800008362C4F21B32A0FB0202900C0A685205CC
:1038100011D5421C0FD00A6852050CD558B10A6860
:10382000520508D5012806D00A68520503D502289A
:10383000A0F10400EAD10868400544BF03207047A6
:10384000C4E700BF022060F34A2241F8142C002094
:103850007047000047F20800C4F20000016841F41C
:1038600080410160704700002DE9F04182B00446BC
:10387000807841F288060007C4F2020602D40020D4
:103880002FE000BF56F8300C5FEAC0080BD456F8A2
:10389000300C40F0805046F8300C56F8300C00F0F8
:1038A00080500190019847F20007C4F20007386881
:1038B00040F480703860FFF757FE05463868C00551
:1038C00000F10C81FFF750FE401B0228F6D90320BF
:1038D000B8F1000F05D456F8301C21F0805146F89D
:1038E000301C2168CA0717D18A071DD44A0723D480
:1038F0000A0729D4CA062FD48A0635D44A063BD4EF
:103900000A0641D4CA0547D48A034DD48A0553D444
:103910004A0559D467E000BF3268636822F00302A9
:103920001A4332608A07E1D53268A36822F00C029C
:103930001A4332604A07DBD53268E36822F030026E
:103940001A4332600A07D5D53268236922F0C002D3
:103950001A433260CA06CFD53268636922F44072D6
:103960001A4332608A06C9D53268A36922F44062DC
:103970001A4332604A06C3D53268E36922F44052E2
:103980001A4332600A06BDD53268236A22F44042E7
:103990001A433260CA05B7D53268636A22F44032EE
:1039A0001A4332608A03B1D57269A36A22F0030216
:1039B0001A4372618A05ABD53268E36A22F4402269
:1039C0001A4332604A050ED53268236B22F4401246
:1039D0001A43B3F5801F326005D156F87C2C42F4AF
:1039E000801246F87C2C0A050ED53268636B22F4EF
:1039F00040021A43B3F5800F326005D156F87C2C93
:103A000042F4801246F87C2CCA040ED53268A36BAF
:103A100022F040721A43B3F1807F326005D156F82C
:103A20007C2C42F4801246F87C2C8A040ED5326835
:103A3000E36B22F040621A43B3F1006F326005D1AC
:103A400056F87C2C42F4801246F87C2C4A040ED5A1
:103A50003268236C22F040621A43B3F1006F326087
:103A600005D156F87C2C42F4801246F87C2C0A04CE
:103A70000ED53268636C22F040521A43B3F1805F76
:103A8000326005D156F87C2C42F4803246F87C2C0A
:103A9000CA030ED53268A36C22F040421A43B3F138
:103AA000804F326005D156F87C2C42F4803246F8C3
:103AB0007C2C49030ED57169E26C21F4401111434D
:103AC000B2F5001F716105D156F87C1C41F48011DC
:103AD00046F87C1C02B0BDE8F08100BFB06810F46D
:103AE000407010D0216D88420BD0B068B16820F4CE
:103AF000407041F48031B160B16821F48031B1602F
:103B0000B060C0070CD1B068216D20F4407008434C
:103B1000B0600020B8F1000F3FF5E3AEDBE600BF78
:103B2000FFF722FD054641F2883700BFB0688007E5
:103B3000E9D4FFF719FD401BB842F7D9C7E60000EA
:103B40002DE9F047002863D042F2000AC4F2020ACD
:103B50000446DAF800000D4600F00F0081420CD94F
:103B6000DAF8000020F00F002843CAF80000DAF865
:103B7000000000F00F00A8424AD1216841F2080875
:103B8000C807C4F2020803D1880740F1D080B5E02D
:103B9000606858F8082C022838D003283CD19201DC
:103BA00036D5D8F80420D8F8043042F20046C3F3E2
:103BB000031302F00302D8F804700133C0F2F406D4
:103BC000032A04BF41F20026C0F27A06B6FBF3F2E4
:103BD000D8F80430C7F306277A43C3F341630227BA
:103BE00007EB4303B2FBF3F24BF20043C0F2C443D2
:103BF0009A4259D9D8F8002012F0F00F49D089071D
:103C000052D5A16800294FD143E000BF910305D4EC
:103C10000120BDE8F08700BF5105F9D5D8F80010A4
:103C200001F00C0104293FD0D8F8001001F00C017C
:103C3000082939D0D8F8001001F00C010C2933D133
:103C4000D8F80410D8F8042042F20047C2F3031257
:103C500001F00301D8F804300132C0F2F40703295F
:103C600004BF41F20027C0F27A07B7FBF2F1D8F89F
:103C70000420C3F306235943C2F34162022303EB3A
:103C80004202B1FBF2F14BF20042C0F2C442914257
:103C90000AD9D8F80010082262F307114FF0010981
:103CA000C8F8001002E000BF4FF00009D8F800107B
:103CB00021F003010843C8F80000FFF755FC064651
:103CC00041F28837D8F80000616800F00C00B0EBD2
:103CD000810F07D0FFF748FC801BB842F2D90320C0
:103CE000BDE8F0872168880708D4B9F1000F1ED01D
:103CF000D8F8000020F0F00017E000BF480705D515
:103D0000D8F8000040F4E060C8F80000080706D5C5
:103D1000D8F80000072262F30D20C8F80000D8F898
:103D20000000A26820F0F0001043C8F80000DAF8A4
:103D3000000000F00F0085421BD2DAF8000020F0EE
:103D40000F002843CAF80000FFF70EFC064641F2B8
:103D5000883700BFDAF8000000F00F00A84207D053
:103D6000FFF702FC801BB842F4D90320BDE8F087BE
:103D70002168480707D5D8F80000E26820F4E06021
:103D80001043C8F80000080708D5D8F800002169DA
:103D900020F4605040EAC100C8F80000D8F80000E4
:103DA00042F20041C0F2F40100F00C000428084681
:103DB0002DD0D8F8000000F00C00082841F20020B7
:103DC000C0F27A0023D0D8F8002002F00C020C2AAE
:103DD0001CD1D8F80420D8F8043002F00302C3F351
:103DE0000313D8F804700133032A08BF0146B1FB5E
:103DF000F3F0D8F80410C7F30627C1F3416102229B
:103E0000784302EB4101B0FBF1F000E00020D8F86C
:103E100000104EF6C852C1F30311C0F60002515C07
:103E200040F21C0201F01F0120FA01F140F21400DF
:103E3000C2F200000068C2F200021160BDE8F04763
:103E4000FFF7EEBB40F21C0041F20801C2F2000095
:103E5000C4F20201006809684EF6D852C1F302218B
:103E6000C0F60002515C01F01F01C840704700001D
:103E700040F21C0041F20801C2F20000C4F202014B
:103E8000006809684EF6D852C1F3C221C0F600029C
:103E9000515C01F01F01C8407047000041F20C0165
:103EA000C4F2020151F8040C42F20042C0F2F402E2
:103EB00000F00C000428104608BF704751F8040CAD
:103EC00000F00C00082841F20020C0F27A0025D052
:103ED00051F8043C03F00C030C2B1CBF002070476E
:103EE00080B5D1F800C00B680CF0030CC3F3031EBF
:103EF0000B680EF1010EBCF1030F08BF0246096802
:103F0000B2FBFEF0C3F30623C1F341610222584322
:103F100002EB4101B0FBF1F0BDE8804070470000CA
:103F2000002804BF012070472DE9F04182B004460B
:103F3000007841F20006C007C4F202061ED12078C4
:103F400080073DD42078000764D42078400700F132
:103F500087802078800600F1D980E569002D00F087
:103F60004282B06800F00C000C2840F03181012D35
:103F700040F08E81012002B0BDE8F081B06800F011
:103F80000C01F068082961D0032281F00C0122EABB
:103F900000000844B0FA80F0400957D161683068E9
:103FA000B1F5803F07D0B1F5A02F40F0E38040F499
:103FB00080203060306840F480303060E4E000BF42
:103FC000B068F16800F00C00042871D001F0030122
:103FD00080F00C0081F002010844B0FA80F0400942
:103FE00066D1E1683068002900F0E08040F480701C
:103FF0003060FFF7B9FA05463068400500F10A81E4
:10400000FFF7B2FA401B0228F6D9032002B0BDE840
:10401000F08100BF6169D6F89400002900F0948017
:1040200040F00100C6F89400FFF79EFA054600BF75
:10403000D6F8940080073FF588AFFFF795FA401B4C
:104040000228F5D9032002B0BDE8F0813068800372
:104050007FF575AF606800287FF471AF3EE000BF68
:10406000B06D5FEAC00808D4B06D40F08050B06514
:10407000B06D00F080500190019847F20007C4F243
:1040800000073868C0052DD4386840F48070386067
:10409000FFF76AFA054600BF3868C00522D4FFF76B
:1040A00063FA401B0228F7D9032002B0BDE8F08173
:1040B0003068400501D5E06880B17068216920F062
:1040C000FE4040EA0160706040F21400C2F200005D
:1040D0000068FFF7A5FA00283FF434AF012002B0D2
:1040E000BDE8F081A168D6F89000012908D0052923
:1040F00040F0AE8040F00400C6F89000D6F8900082
:1041000040F00100C6F89000AEE000BFA169D6F80B
:104110009800002900F0868040F00100C6F8980061
:10412000FFF722FA054600BFD6F8980080073FF552
:1041300014AFFFF719FA401B02284FF00300F3D920
:1041400002B0BDE8F08100BF20F00100C6F8940085
:10415000FFF70AFA054600BFD6F8940080077FF5FE
:10416000F4AEFFF701FA401B0228F5D9032002B094
:10417000BDE8F08120F4803030603068002920F400
:104180008020306000F0BE80FFF7EEF9054600BFEA
:10419000306880033FF5D3AEFFF7E6F9401B642893
:1041A000F6D9032002B0BDE8F08100BF20F4807092
:1041B0003060FFF7D9F90546306840057FF5C2AE9B
:1041C000FFF7D2F9401B02284FF00300F4D9B7E7FC
:1041D000306820F080703060FFF7C6F9022D054688
:1041E0000CD100BF3068800140F1B880FFF7BCF906
:1041F000401B02284FF00300F4D9A1E7306880018A
:1042000040F1EA80FFF7B0F9401B02284FF00300AD
:10421000F4D995E77068216920F0FE4040EA01601A
:1042200070608FE620F00100C6F89800FFF79CF957
:10423000054600BFD6F8980080077FF58EAEFFF7E1
:1042400093F9401B02284FF00300F3D978E700BF31
:1042500020F00100C6F89000D6F89000002920F068
:104260000400C6F890005DD0FFF77EF9054641F2E4
:10427000883700BFD6F89000800765D4FFF774F93F
:10428000401BB842F6D9032002B0BDE8F08100BF60
:10429000F068216A00F003028A427FF41FAF626A6D
:1042A0006FF00F0300F0F00103EB021291427FF474
:1042B00015AFA16A00F4FE42B2EB012F7FF40EAFFE
:1042C000E16A00F07842B2EBC16F7FF407AF226B76
:1042D0000023CFF6E07303EA025200F4C001A2F516
:1042E000001291427FF4FAAE616B4FF07E4202EA17
:1042F000016100F0C06001F17E4188427FF4EEAEC2
:1043000071E000BFFFF730F9054600BF3068800359
:104310007FF515AEFFF728F9401B64284FF0030026
:10432000F4D90DE7FFF720F9054641F2883700BFC1
:10433000D6F89000800707D5FFF716F9401BB84262
:104340004FF00300F4D9FBE6B8F1000F3FF501AEE2
:10435000B06D20F08050B065FBE500BFF06848F21A
:104360000C01C0F29F1104F1200700EA010C8ECF6E
:104370006FF00F00D4E90C5400EB02100022CFF6CE
:10438000E07241EA0C0102EA05520843A2F500126C
:104390004FF07E4540EA032005EA0465104305F12D
:1043A0007E4540EAC7602843F060306840F0807086
:1043B0003060F06840F08070F060FFF7D5F8044698
:1043C000306880010FD4FFF7CFF8001B02284FF0B0
:1043D0000300F5D9B4E600BFF0684FF6FC71CFF6E4
:1043E000EE610840F060002002B0BDE8F0810000FE
:1043F000411E0020B0EB116F1CBF012070474EF230
:104400001002CEF2000251604EF62351CEF20001AE
:10441000F0230B7007219060116070477047000017
:1044200070470000704700007047000070470000B0
:104430007047000090F83C20012A4FF0020266D03D
:1044400070B580F83D20026842F6004C54689368CD
:10445000C4F2010C45F2000E6245C4F2010E18BF11
:1044600072452BD14D6824F470042C434FF68F75A0
:10447000CFF6FF550E682C4042F6FF35C4F2010519
:104480003443AA4254600DDC40F2FF76C4F20006C9
:10449000B2421BDCB2F1804F2CD040F20046C4F295
:1044A000000625E043F6FF74C4F20104A24219DCC1
:1044B00062451FD043F2004618E000BF43F20045BA
:1044C000C4F20105AA42CDD0D0E700BF40F60006F5
:1044D000C4F20006B2420DD040F60046C4F2000617
:1044E00006E000BF724505D044F20006C4F20106A2
:1044F000B24204D1896823F08003194391600121FD
:10450000002280F83D1080F83C20BDE87040104645
:104510007047000070470000002804BF012070476A
:1045200010B5044690F83D0028B9002084F83C00FE
:10453000204600F023F8022084F83D002068211D69
:1045400001F050FA012084F8480084F83E0084F815
:104550003F0084F8400084F8410084F8420084F869
:10456000430084F8440084F8450084F8460084F849
:10457000470084F83D00002010BD0000006845F2AF
:104580000001C4F20101884218BF704780B582B0B3
:1045900041F26000C4F202000168002241F480117F
:1045A00001600068002100F48010019001984E2005
:1045B000FFF78CF84E2002B0BDE88040FFF774B8DA
:1045C00090F83D1001291BD1022180F83D100168AF
:1045D00042F6FF32C868C4F20102914240F0010085
:1045E000C8600FDC40F2FF70C4F20000814219DCA9
:1045F000B1F1804F2ED040F20040C4F2000027E01D
:104600000120704743F6FF70C4F20100814215DCBF
:1046100042F60040C4F2010081421BD043F2004048
:1046200014E000BF40F60000C4F20000814211D047
:1046300040F60040C4F200000AE000BF45F200006E
:10464000C4F20100814205D044F20000C4F201002E
:1046500081420CD188680722C0F201020240062A7A
:104660004FF00000CDD0B2F5803F08BF704708681A
:1046700040F00100086000207047000090F83C20E6
:10468000012A4FF0020200F0998080B580F83D20A9
:10469000D0F800C08822DCF80830CFF6CE721A407D
:1046A000CCF808200B68B3F5005F0DDA3F2B21DD55
:1046B0005F2B3BDD602B00F0AB80702B00F0948013
:1046C000B3F5805F71D0E7E02F22C0F21002934271
:1046D00018DD4F21C0F210018B424FDD5021C0F296
:1046E00010018B4255D06021C0F210018B4250D096
:1046F000702149E01F2B0FDC002B4AD0102B48D033
:10470000CAE000BFB3F1101F0CDAB3F5005F57D059
:10471000B3F5801F3DD0BFE0202B3AD0302B38D0EE
:10472000BAE000BF35D020212EE000BF402B00F0C2
:104730009180502B40F0B080D1F804E0C968DCF8DB
:104740002030DCF8202022F00102CCF82020DCF818
:10475000182022F0F00242EA011123F00A0242EA94
:104760000E02CCF81810CCF82020DCF808104FF618
:104770008872CFF6CF721140573114E03021C0F269
:1047800010018B4205D04021C0F210018B4240F055
:104790008380DCF808104FF68872CFF6CF72114094
:1047A000194341F00701CCF808100022012180F8DC
:1047B0003D10002180F83C10BDE880401046704755
:1047C000D1E901E3C968DCF8082043EA0E0322F4CA
:1047D0007F4243EA01211143CCF80810DCF80810AD
:1047E00041F48041DFE700BFD1E901E3C968DCF8AB
:1047F000082043EA0E0322F47F4243EA01211143D9
:10480000CCF80810DCF8081041F07701CBE700BFC6
:10481000D1F804E0C968DCF82030DCF8202022F070
:104820001002CCF82020DCF8182022F4704242EA72
:10483000013123F0A00242EA0E12CCF81810CCF895
:104840002020DCF808104FF68872CFF6CF721140A6
:104850006731A8E7D1F804E0C968DCF82030DCF85B
:10486000202022F00102CCF82020DCF8182022F0D1
:10487000F00242EA011123F00A0242EA0E02CCF8E9
:104880001810CCF82020DCF808104FF68872CFF60C
:10489000CF721140473186E7012287E77047000059
:1048A000F0B581B004460068C5680669B10717D540
:1048B00015F0020114D06FF002010161012121778E
:1048C0008069800704D02046FFF7E8FF06E000BFBC
:1048D000204600F0CBF8204600F0CAF800202077F0
:1048E000700719D515F0040016D020686FF0040188
:1048F000016102212177806910F4407F04D02046B5
:10490000FFF7CCFF06E000BF204600F0AFF82046DE
:1049100000F0AEF800202077300717D515F008001A
:1049200014D020686FF00801016104212177C0696B
:10493000800703D02046FFF7B1FF05E0204600F0D6
:1049400095F8204600F094F800202077F00619D55D
:1049500015F0100016D020686FF0100101610821D9
:104960002177C06910F4407F04D02046FFF796FFFE
:1049700006E000BF204600F079F8204600F078F805
:1049800000202077F00718BF15F0010006D020683E
:104990006FF001010161204600F06CF816F4025F2F
:1049A00005F0800718BF002F02D1F00509D410E0F0
:1049B00020686FF4025101612046FFF731FDF005D8
:1049C00007D537B120686FF4807101612046FFF789
:1049D00025FD700609D515F0400006D020686FF05F
:1049E00040010161204600F04FF8B00609D515F0EE
:1049F000200006D020686FF0200101612046FFF7FB
:104A000011FDF00209D515F4801006D020686FF46E
:104A1000801101612046FFF709FDB00209D515F4A8
:104A2000001006D020686FF4001101612046FFF7E6
:104A3000FBFC700209D515F4800006D020686FF4E5
:104A4000800101612046FFF7F3FC30020CD515F41C
:104A5000000009D021686FF4000220460A6101B00D
:104A6000BDE8F040FFF756BD01B0F0BD7047000053
:104A70007047000042F6B411C2F20001884218BF2C
:104A8000704704F0AFBF00007047000090F884103A
:104A9000012904BF022070472421C0F88810016852
:104AA0000A680B6822F0005223F001030B60002318
:104AB00043660A602021C0F8881080F88430002006
:104AC00070470000D0F88C30202B1CBF02207047AC
:104AD00010B5044600294FF0010018BF002A01D18B
:104AE00010BD00BFE06600202067204601F062FC98
:104AF0000028F5D1E06E01281CBF012010BD206800
:104B000010210162206850E8000F216840F0100079
:104B100041E8000202B3206850E8000F216840F02D
:104B2000100041E80002BAB1206850E8000F216887
:104B300040F0100041E8000272B1206850E8000F18
:104B4000216840F0100041E80002002A4FF0000008
:104B500008BF10BDD6E700BF002010BD42F60022FE
:104B6000C2F20002904218BF7047F0B581B040F227
:104B70000827C2F20007D7E90102D7E90435161A5F
:104B8000141A4FF0FF3C18BF0CEB460442F62836CF
:104B9000EA18C2F200069442318006D1384608F085
:104BA0000FFBD7E9041278680A446FF0030101EAA9
:104BB0005201405802F0070101EB811100EB410066
:104BC00031468222FBF752FF7869822101307861F9
:104BD0003046FCF70FF842F60020B11CC2F200008C
:104BE0007F2201B0BDE8F040FFF76CBF70470000C6
:104BF00090F88420012A04BF02207047B0B5242217
:104C0000C0F888200268D0F864E0D2F800C01368C9
:104C1000BEF1000F23F001031360936823F060637B
:104C200041EA0301916019D0936891684FF25C0EDC
:104C3000490FC0F6000E4FF264051EF80140C0F6A1
:104C40000005695CC3F34263E400B4FBF1F11EF8B4
:104C50000340EB5CE500B5FBF3F301E00121012328
:104C6000A0F86A102021A0F86830C2F800C0C0F88F
:104C70008810002180F884100020B0BD90F88420B6
:104C8000012A04BF02207047B0B52422C0F8882052
:104C90000268D0F864E0D2F800C01368BEF1000FDB
:104CA00023F001031360936823F0604341EA03019A
:104CB000916019D0936891684FF25C0E490FC0F66D
:104CC000000E4FF264051EF80140C0F60005695C55
:104CD000C3F34263E400B4FBF1F11EF80340EB5C64
:104CE000E500B5FBF3F301E001210123A0F86A1010
:104CF0002021A0F86830C2F800C0C0F88810002158
:104D000080F884100020B0BD70470000704700009C
:104D100010B50446206850E8000F216820F4907018
:104D200041E80002DAB1206850E8000F216820F461
:104D3000907041E8000292B1206850E8000F2168AD
:104D400020F4907041E800024AB1206850E8000F5A
:104D5000216820F4907041E80002002ADAD14FF671
:104D6000FE70CEF6FF7000BF216851E8021F226876
:104D7000014042E80213C3B1216851E8021F2268D2
:104D8000014042E8021383B1216851E8021F226802
:104D9000014042E8021343B1216851E8021F226832
:104DA000014042E80213002BDED1E06E012824D13D
:104DB000206850E8000F216820F0100041E8000250
:104DC000DAB1206850E8000F216820F0100041E8B7
:104DD000000292B1206850E8000F216820F0100016
:104DE00041E800024AB1206850E8000F216820F035
:104DF000100041E80002002ADAD1206880684006ED
:104E000038D500BF206850E8020F216820F040002C
:104E100041E80202DAB1206850E8020F216820F070
:104E2000400041E8020292B1206850E8020F216878
:104E300020F0400041E802024AB1206850E8020F29
:104E4000216820F0400041E80202002ADAD1D4F8BB
:104E5000800078B100218163FDF7C8FD50B1D4F81E
:104E60008000FDF73BFE202804D11020C4F89000FC
:104E7000032010BD0020A4F85E0021680F220A6202
:104E80008A6942F008028A612021C4F88C10E06629
:104E900010BD000042F60021C2F20001884218BF96
:104EA000704710B542F62834C2F200042046822131
:104EB000FBF7A0FE42F60020A11CC2F200007F22F8
:104EC000BDE81040FFF7FEBD70B5026840F62F0444
:104ED000D369116896681C40202C0BD101F0200486
:104EE00006F080552D1916D0416F61B3BDE87040B2
:104EF000084700BF40F60F052B420CD00125C1F238
:104F0000000506EA050C40F22015C0F200450D40F0
:104F100015EB0C0524D1C46EDD0615D5012C13D17B
:104F200011F0100510D0102111629168490661D46A
:104F3000B0F85C10B0F85E20B0F85E30002B18BFFF
:104F4000914240F0518270BDDD0215D516F4800506
:104F500012D04FF480111162BDE87040FFF7D6BE49
:104F6000DD0718BF11F4807540F020819D0706F021
:104F7000010E00F1278130E11A0606D501F080020A
:104F800006F40006921940F0AF825A0640F1028101
:104F900011F0400200F0FE80016851E8001F026835
:104FA00021F0400142E80013DBB1016851E8001F25
:104FB000026821F0400142E8001393B1016851E812
:104FC000001F026821F0400142E800134BB1016864
:104FD00051E8001F026821F0400142E80013002B55
:104FE000DAD12021C0F8881000218167BDE8704027
:104FF00000F0DABCD0F880100A685368B0F85C4062
:1050000099B2002900F0B880A14280F0B580A0F8E4
:105010005E301168890600F1A38000BF016851E885
:10502000001F026821F4807142E80013E3B10168B7
:1050300051E8001F026821F4807142E800139BB11F
:10504000016851E8001F026821F4807142E80013F2
:1050500053B1016851E8001F026821F4807142E8F1
:105060000013002BDAD100BF016851E8021F02686B
:1050700021F0010142E80213BBB3016851E8021FAD
:10508000026821F0010142E8021373B3016851E89C
:10509000021F026821F0010142E802132BB30168EC
:1050A00051E8021F026821F0010142E80213002BBF
:1050B000DAD11AE0016851E8021F026821F04001CC
:1050C00042E80213DBB1016851E8021F026821F0D7
:1050D000400142E8021393B1016851E8021F0268DF
:1050E00021F0400142E802134BB1016851E8021F70
:1050F000026821F0400142E80213002BDAD120219E
:10510000C0F88C100021C166016851E8001F0268D8
:1051100021F0100142E80013DBB1016851E8001FE3
:10512000026821F0100142E8001393B1016851E8D0
:10513000001F026821F0100142E800134BB1016822
:1051400051E8001F026821F0100142E80013002B13
:10515000DAD1D0F8801004460846FDF747FC204617
:1051600002210167B0F85C10B0F85E20891A89B29C
:10517000BDE87040FFF7F2BC8C427FF4E4AE1268E9
:1051800092067FF5E0AE02220267BDE87040FFF7AD
:10519000E5BC00BF1A0240F1B38111F0804200F07B
:1051A000AF81BDE87040FFF7AFBD00BF01251562BC
:1051B000D0F8905045F00105C0F890509D0706F0DA
:1051C000010E0AD5BEF1000F07D002241462D0F8F8
:1051D000904044F00404C0F890405C070AD5BEF14A
:1051E000000F07D004251562D0F8905045F0020555
:1051F000C0F890501D070CD501F0200555EA0C05AC
:1052000007D008251562D0F8905045F00805C0F881
:1052100090501D050BD511F0806508D04FF4006546
:105220001562D0F8905045F02005C0F89050D0F8A5
:105230009050002D3FF487AE9B060BD501F0200166
:1052400006F08053C91805D0416F19B1044688474C
:1052500022682046D0F89010926801F0280102F0F0
:105260004002891806D10446FFF714FE0020C4F856
:10527000900070BD016851E8001F026821F4907130
:1052800042E80013DBB1016851E8001F026821F415
:10529000907142E8001393B1016851E8001F026861
:1052A00021F4907142E800134BB1016851E8001FEE
:1052B000026821F4907142E80013002BDAD14FF616
:1052C000FE71CEF6FF7100BF026852E8022F03683C
:1052D0000A4043E80226C6B1026852E8022F03687A
:1052E0000A4043E8022686B1026852E8022F0368AA
:1052F0000A4043E8022646B1026852E8022F0368DA
:105300000A4043E80226002EDED1C16E012924D1D5
:10531000016851E8001F026821F0100142E8001303
:10532000DBB1016851E8001F026821F0100142E87A
:10533000001393B1016851E8001F026821F01001C9
:1053400042E800134BB1016851E8001F026821F0E8
:10535000100142E80013002BDAD12021C0F88C1094
:105360000021C166026841679168490640F1C48026
:10537000016851E8021F026821F0400142E802136F
:10538000DBB1016851E8021F026821F0400142E8E8
:10539000021393B1016851E8021F026821F0400135
:1053A00042E802134BB1016851E8021F026821F084
:1053B000400142E80213002BDAD1D0F88010002916
:1053C00000F09A8045F69952C0F60002044608465D
:1053D0008A63FDF743FB00283FF4B5ADD4F88000A5
:1053E000816BBDE870400847891A00BF026852E827
:1053F000002F036822F4907243E80026DEB10268B1
:1054000052E8002F036822F4907243E8002696B118
:10541000026852E8002F036822F4907243E80026E5
:105420004EB1026852E8002F036822F4907243E8FC
:105430000026002EDAD14FF6FE72CEF6FF7200BFC4
:10544000036853E8023F0668134046E80235C5B1D9
:10545000036853E8023F0668134046E8023585B109
:10546000036853E8023F0668134046E8023545B139
:10547000036853E8023F0668134046E80235002DF2
:10548000DED12022C0F88C200022C266426700BF15
:10549000026852E8002F036822F0100243E8002659
:1054A000DEB1026852E8002F036822F0100243E8E0
:1054B000002696B1026852E8002F036822F010021D
:1054C00043E800264EB1026852E8002F036822F03C
:1054D000100243E80026002EDAD1022289B20267C8
:1054E000BDE87040FFF73ABB816F00293FF42BAD58
:1054F000BDE87040084700BFBDE87040FFF7CABC78
:10550000DA017FF520ADB1F1FF3FC8BF70BDBDE846
:105510007040FFF76BBB000010B5D0B10446D0F867
:10552000880028B9002084F88400204600F026F87E
:105530002420C4F888002068A16A026822F00102D1
:10554000026011B1204600F0FDFA204600F0D8FDBF
:1055500010B1012010BD00BF2168486820F49040C0
:105560004860886820F02A008860086840F00102DE
:1055700020460A60BDE8104000F058BB2DE9F0411C
:105580009CB0044600201B90CDE91900CDE917001E
:1055900002A85421FBF750FB206845F20001C4F239
:1055A000000188425CD044F60041C4F20001884208
:1055B00040F09E800820029002A8FEF755F90028CE
:1055C00018BFFDF707F841F24C00C4F20200C168B1
:1055D000002641F40021C160C16801F4002101915D
:1055E0000199016841F004010160006817A900F009
:1055F0000400019001984FF4406017900220189029
:1056000005201B9040F60000C4F60000CDE91966A5
:10561000FDF7C2FE42F654150820C2F20005C4F29E
:1056200002001E21802285E843002846C5E9036266
:10563000C5E90566C5E90766FDF7A8FA002818BFA1
:10564000FCF7C8FF342000210022C4F88050AC626F
:10565000FEF73CF83420FEF727F81CB0BDE8F081D7
:105660001020029002A8FEF7FFF8002818BFFCF7F0
:10567000B1FF41F24C00C4F20200C16840F60004E0
:1056800041F48011C160C168C4F6000401F48011C6
:1056900001910199016817AD41F0040101600168B1
:1056A0004FF0020801F004010191019901680027FF
:1056B00041F0080101600068052600F00800019033
:1056C00001984FF48050179020462946CDF860800D
:1056D000CDE919771B96FDF75FFE0420CDE9170889
:1056E00004F580602946CDE919771B96FDF754FE35
:1056F0001CB0BDE8F08100002DE9F04381B0044604
:10570000D0F88C00202809D10E4600294FF0010066
:1057100018BF002A06D101B0BDE8F083022001B015
:10572000BDE8F083002022219946C4F89000C4F817
:105730008C10E0661546FDF717FFA4F85C50A4F83E
:105740005E50A1688046C9B1B1F1805F12D0B1F559
:10575000805F17D12069FF27014600281CBF314612
:105760000026002808BF40F2FF17A4F860703546F5
:105770000E4617E0206918B13F2706E0206918B1EE
:105780007F2702E0002700E0FF270025A4F86070D3
:1057900008E000BF384006F8010BB4F85E0001389D
:1057A000A4F85E00B4F85E0090B1204620210022EB
:1057B0004346CDF8009000F0A1FE88B92068002E85
:1057C000406AE7D1384025F8020B0026E5E700BF24
:1057D00000202021C4F88C1001B0BDE8F08300BF88
:1057E00003202021C4F88C1001B0BDE8F083000034
:1057F00070470000704700002DE9F04381B0044677
:10580000D0F88800202809D100294FF0010018BFE6
:10581000002A07D101B0BDE8F08300BF022001B02B
:10582000BDE8F0830020C4F8900021201D460E46FC
:10583000C4F888001746FDF797FEA4F85470A4F842
:105840005670A1688146B1F5805F02D120690028B9
:1058500066D037460020B4F856202168002A67D069
:105860006A1C28D0002D53D0804600BFC8690006AE
:105870000AD4FDF779FEA0EB0900A84200F284806B
:1058800021680868F2E700BF17B117F8010B04E0C0
:1058900038F8020B00276FF35F208862B4F85600D7
:1058A0000138A4F85600B4F856000028DED13FE0D5
:1058B000CA69120609D4CA69120606D4CA69120650
:1058C0005CBFCA695FEA0262F2D51FB117F8012B0B
:1058D00005E000BF30F8022B00276FF35F228A62D9
:1058E000B4F85620013AA4F85620B4F85620002AFD
:1058F000E1D11DE030F8022B00276FF35F228A62AE
:10590000B4F85620013AA4F85620B4F856207AB1DB
:10591000CA69120636D5002FECD017F8012BEEE736
:1059200000273046B4F856202168002A7FF498AF4B
:10593000C86940061ED42DB3681C14D1C86940063E
:105940002AD4C869400627D4C869400624D4C86947
:1059500040064FF00000F1D50DE000BF206801685F
:10596000C069400618D4FDF7FFFDA0EB0900A8426E
:10597000F4D909E000202021C4F8881001B0BDE866
:10598000F08300BFFDF7F0FD03202021C4F888104C
:1059900001B0BDE8F08300BF00202021C4F88810CA
:1059A00001B0BDE8F083000070470000FEE7000092
:1059B000FEE70000FEE700007047000070470000AF
:1059C000FDF710BE4EF68850CEF20000016841F49B
:1059D000700101607047000042F6B410C2F200008E
:1059E000FEF75EBF40F6FF330268C4F2000343F2E5
:1059F000FF3C9842C4F2010C0ADD60452EDC40F603
:105A00000043C4F20003984234D042F600432DE034
:105A1000B0F1804F2ED040F20043C4F20003984210
:105A200028D040F60003C4F20003984222D060451B
:105A300026DC40F2FF73C4F20003984236DD40F6E4
:105A40000003C4F20003984246D040F60043C4F27B
:105A50000003984240D042F6004339E045F200038B
:105A6000C4F20103984205D043F20043C4F201039B
:105A70009842DCD14B6822F070021A436045D8DDB1
:105A800044F2FF33C4F20103984219DD44F20043AB
:105A9000C4F2010398421FD045F20003C4F201038F
:105AA000984219D044F6000312E000BFB0F1804FD5
:105AB00012D040F20043C4F2000398420CD00FE031
:105AC00043F20043C4F20103984205D044F20003BC
:105AD000C4F20103984203D1CB6822F440721A4306
