:020000040800F2
:1000000070230020F5020008C92D0008C12D00084A
:10001000C52D0008D91300082D3600080000000087
:10002000000000000000000000000000D12D0008CA
:10003000DD13000800000000CD2D0008D52D0008BC
:100040000F0300080F0300080F0300080F03000848
:100050000F0300080F0300080F0300080F03000838
:100060000F0300080F0300080F0300080F03000828
:100070000F0300080F0300080F0300080F03000818
:100080000F0300080F0300080F0300080F03000808
:100090000F0300080F0300080F0300080F030008F8
:1000A0000F0300080F0300080F0300080F030008E8
:1000B0000F0300080F0300080F0300080F030008D8
:1000C0000F0300080F0300080F0300080F030008C8
:1000D0000F0300080F0300080F0300080F030008B8
:1000E0000F0300080F0300080F0300080F030008A8
:1000F0000F0300080F0300080F0300080F03000898
:100100000F0300080F0300080F0300080F03000887
:100110000F0300080F0300080F0300080F03000877
:100120000F0300080F0300080F0300080F03000867
:100130000F0300080F0300080F0300080F03000857
:100140000F0300080F0300080F0300080F03000847
:100150000F0300080F0300080F0300080F03000837
:100160000F0300080F0300080F0300080F03000827
:100170000F0300080F0300080F0300080F03000817
:100180000F0300080F0300080F0300080F03000807
:100190000F030008000000000F0300080F03000811
:1001A0000F0300080F0300080F0300080F030008E7
:1001B0000F0300080F0300080F0300080F030008D7
:1001C0000F0300080F0300080F0300080F030008C7
:1001D0000F0300080F03000800F002F800F07BF89E
:1001E00014A696E8000CB244B344DA4501D100F0FD
:1001F00072F8BAE80F000FA696E83000A5EB0405E8
:1002000004EB0607AAEB0704A7F101074FEA15154F
:100210004FEA3414A4F10104AC4201D300F05BF8BE
:1002200013F0010F18BFFB1A43F0010300F001F8AF
:10023000DBE7184778410000984100000A4410F8B5
:10024000014B14F00F0508BF10F8015B240908BF2B
:1002500010F8014B6D1E05D010F8013B6D1E01F822
:10026000013BF9D1641E03D0641E01F8015BFBD190
:100270009142E4D37047000070470000002300243F
:1002800000250026103A28BF78C1FBD8520728BFA6
:1002900030C148BF0B607047782900F01F81732977
:1002A00000F0E382002070471FB503F0A3FF9DE834
:1002B000030000F02DFF00F051FD0400002000219C
:1002C00003F082FF401C606000F086FC1FBD10B58B
:1002D00000F0EBFC10BD00F01BFD1146FFF7E4FF42
:1002E00003F096FE00F0E8FE03B4FFF7F0FF03BC56
:1002F00000F0E0FF0948804709480047FEE7FEE7B5
:10030000FEE7FEE7FEE7FEE7FEE7FEE7FEE7FEE7C5
:1003100004480549054A064B70470000D92D0008DE
:10032000D901000870030020702300207013002002
:100330007013002053EA020C00F069802DE9F04BA5
:100340004FF00006002B1FBFB3FA83F503FA05F444
:1003500024FA05F65E4012BF1643B2FA82F502FA9D
:1003600005F4C5F120051EBF22FA05FC44EA0C0481
:10037000203556EA044C4FEA144418BF641C4FF071
:1003800000084FF00009904271EB030C39D30029AB
:1003900019BFB1FA81F701FA07F6B0FA80F700FA4F
:1003A00007F6C7F120071EBF20FA07FC46EA0C0635
:1003B0002037B6FBF4FCA7EB0507103F07F01F0B37
:1003C000CBF120062CFA06F60CFA0BFB44BFB34621
:1003D0000026202FA4BF5E464FF0000B5BEA060C00
:1003E00008BF4FF0010B19EB0B0948EB0608ABFBFC
:1003F000027C06FB02CC0BFB03CCC01B71EB0C0197
:10040000C1E70B46024641464846BDE8F08B13B5AE
:10041000084318BF4FF0FF300146AFF30080BDE83E
:100420001C4070470FB4044910B503AA029800F0AD
:1004300021FA10BC5DF814FBCC01002070B5044615
:1004400085690068C10601D5302600E02026C00776
:1004500007D070BDD4E9012130469047206A401C86
:1004600020626D1EF6D570BD70B5044685690078B2
:10047000C00707D170BDD4E9012120209047206A30
:10048000401C20626D1EF6D570BD70B50C46054649
:10049000012A05D02878800600D5EA69002302E009
:1004A000012305E05B1C934202D2E05C0028F9D1F5
:1004B000A869E618C01AA861286A18442862284664
:1004C000FFF7BCFF04E0D5E9012114F8010B9047C8
:1004D000B442F8D32846FFF7C7FF70BD70B5044695
:1004E0000D4621461068AFF300802188090502D52A
:1004F0000F4A7A4402E00E4A7A440E32002104F197
:10050000240305E000F00F060009965D5E54491CC7
:100510000028F7D120780023000704D5702D02D0E1
:1005200009B1022311322046BDE8704000F032B913
:10053000183D00002DE9F05F894604464FF0000A9F
:10054000DFF824B1FB44C0F820A02046E1688847CA
:1005500000287DD0252806D0D4E901219047206AC3
:10056000401C2062F1E700255F462046E16888478D
:100570002028064607DB312E05D2B81910F8200CCA
:1005800008B10543F1E7A80701D525F00405C4F833
:100590001CA00027C4F818A02A2E09D0304603F06A
:1005A000FEFD38B304EB8708303EC8F8186019E048
:1005B00059F8041B204604EB87029161E1688847E3
:1005C000012F064618D1E069002820DA25F0200521
:1005D0001DE0D8F8180000EB800006EB4000303832
:1005E000C8F818002046E1688847064603F0D7FDA2
:1005F0000028EED1012F0AD02E2E08D12046E16826
:1006000088477F1C0646022F45F02005C4DBA06901
:10061000002803DA404245F00105A061E80701D057
:1006200025F01005A6B1A6F14100192802D8203600
:1006300045F400654A463146204625604D46FFF7A1
:100640002BFE60B1012807D0ED1D25F0070000E06A
:1006500007E000F1080978E705F1040975E730467D
:100660007AE7206ABDE8F09FEE3C000070B50646D0
:1006700000F08CF80468054630460A22002100F09C
:100680000BF92C6070BD000010B5044603E003F0C8
:100690008DFD401C09D014F8010B05490028F6D146
:1006A000BDE810400A2003F081BD4FF0FF3010BDBF
:1006B000CC0100204FF0000200B513469446964648
:1006C000203922BFA0E80C50A0E80C50B1F1200165
:1006D000BFF4F7AF090728BFA0E80C5048BF0CC013
:1006E0005DF804EB890028BF40F8042B08BF704771
:1006F00048BF20F8022B11F0804F18BF00F8012BE3
:10070000704700000000000030B44FF0013C50F88A
:10071000042B51F8043BCCFA52F4D51A20D1FCB981
:1007200050F8042B51F8043BCCFA52F4D51A17D1E7
:10073000B4B950F8042B51F8043BCCFA52F4D51A52
:100740000ED16CB950F8042B51F8043BCCFA52F49A
:10075000D51A05D1002CDAD030BC4FF0000070471C
:1007600029BAB1FA81F111F01801D1F120008440C9
:10077000F2D1CA40CB4012F0FF0213F0FF0330BCAD
:10078000D01A7047704770477047000000487047A4
:10079000740200202DE9F0470D4699469246044622
:1007A00000F124080168880604D5E06921F01001F1
:1007B000216000E00120A84201DD471B00E0002786
:1007C000A1697A1902EB0900081AA0612078C00615
:1007D00002D42046FFF732FE002608E0D4E90121CA
:1007E0001AF806009047206A401C761C20624E458D
:1007F000F4DB2078C0060AD52046FFF71FFE06E08E
:10080000D4E9012130209047206A401C2062381E24
:10081000A7F10107F4DC07E0D4E9012118F805008D
:100820009047206A401C2062281EA5F10105F3DCD8
:100830002046FFF719FE2078000602D50220BDE809
:10084000F0870120FBE710B5436913B1AFF30080D7
:1008500001E0FFF71AFE012010BD127800F124011B
:100860000A7000224A700122EDE711684FF0FF3252
:10087000E9E70000074B70B50D467B4400F055F8E2
:100880000446284600F0B3F810B14FF0FF3070BDB9
:10089000204670BD2F3900002DE9F04791460F46E4
:1008A00080460446002614F8015B2DB100F030F8B4
:1008B0000068405DC007F6D12B2D02D02D2D18D039
:1008C000641E4A463946204600F042F827B139688E
:1008D000A14201D1C7F800804FF0020471050BD589
:1008E0004042002803DDFFF751FF0460A007BDE888
:1008F000F08746F48066E4E70028F8DAFFF746FF61
:1009000004606FF00040F2E7004870477402002076
:1009100010B500F023FA001D10BD00BFAD38000077
:1009200001694A1C02610878704700B58FB0CDE9B3
:1009300001310021059105497944CDE903101146A3
:100940006846FFF7F7FD0FB000BD0000E5FFFFFFB1
:100950002DE9F05F824615468B4600270AF1010417
:10096000B9460078302801D09DB113E014F8010B8E
:100970000127782803D0582801D045B10AE00DB1ED
:10098000102D07D1002714F8010B102502E00825CF
:1009900000E00A250026B0460EE005FB080005FB36
:1009A00006F101271FFA80F801EB1046B6F5803FEB
:1009B00000D3B94614F8010B294600F029FA0028A3
:1009C000EBDABBF1000F05D00FB1641E00E0544616
:1009D000CBF80040B9F1000F06D0FFF7D7FE022197
:1009E0000160C81EBDE8F09F48EA0640FAE7007BB8
:1009F00000F0800070472DE9F05F054617460C4671
:100A0000C86820F4201040F48000C860800602D539
:100A1000084600F092FAE06841F282014FF0FF3A96
:100A20000140022903D0204600F024FAB9E000F486
:100A30002041B1F5004F0FD1C00306D56168E06ACF
:100A4000884200D80846606006E02069E062606085
:100A5000606903F087FAA061A0680022EEB2002866
:100A60000DDAE1688B050AD4C043A06041F49030F0
:100A70002260E0606068411C61600670AAE0E06886
:100A80009146226040F40050E060206978BB6069C4
:100A900003F06AFA04F124054FF00108A8B1A08917
:100AA00010F4407F08D0E06900F05CF9206118B1D3
:100AB000E06840F4006017E0C4F81C802561E0683D
:100AC00020F4407040F480600EE0E06900F04AF9E4
:100AD00000282061F0D0E06840F4006010F4407F0E
:100AE000E06002D140F48070E06020696060E068FE
:100AF00025696FF0010BC1051ED56168E06A884267
:100B000000D80846411B04D02246284600F0BCF914
:100B1000E8BB1FB1E562C4E9015959E0681CE06215
:100B20006060E069401EA060E06840F48030E060F2
:100B300030462E70BDE8F09F17B100F480320AE015
:100B40006068411C61600670E0680A2E40F48030E5
:100B5000E06006D00022E16A6068814203D90B465A
:100B600002E00122F7E70346B4F80CC05B1B5FEA22
:100B70004C5C04D4D4F81CC09C4500DD02B3814217
:100B800000D80146002BA1EB0008E56200E008E078
:100B9000C4E9015907DD22461946284600F074F9D8
:100BA00008B15046C6E7B8F1000F09D0A169E56267
:100BB0006560A1EB0800A061E06840F01000E06013
:100BC00047B16168A069E562491B08446560A0619E
:100BD0005846AFE73046ADE710B542485421FFF71D
:100BE00069FD41485421FFF765FD40485421FFF756
:100BF00061FD3F493B483C4A3F4B08603D490A6024
:100C00003A491960531C0365481C106501200865AA
:100C10003B48344A39A1784400F0B0F920B938484B
:100C200078440A3800F051FA37482F4A35A1784401
:100C300000F0A4F920B9344878440A3800F045FAA5
:100C400032482A4A2FA1784400F098F920B92F4859
:100C500078440A3800F039FA40232248DC000021A9
:100C6000224600F0E3F820B125487844543800F0DB
:100C70002CFA1D4822464023002100F0D7F820B16D
:100C800021487844543800F020FA184822461023AE
:100C9000002100F0CBF8002806D01C487844BDE8BD
:100CA0001040563800F011BA10BD104870B5006DF4
:100CB00020F001040B4800F0D9F90B4800F0D6F9F8
:100CC0000A4800F0D3F909E0206D20F00105204624
:100CD00000F0CCF9204600F074F82C46002CF3D13B
:100CE00070BD000078010020CC010020200200200F
:100CF0000000002004000020080000207200000016
:100D00007636000077000000653600003E360000B1
:100D10007546FFF7F9FDAE4605006946534620F0DB
:100D20000700854618B020B5FFF7F2FABDE820406D
:100D30004FF000064FF000074FF000084FF0000B97
:100D4000AC46ACE8C009ACE8C009ACE8C009ACE806
:100D5000C00921F007018D46704700000048704728
:100D60009402002070B5064600F0B6F9056806F159
:100D70000B0020F00704B4429CBF002070BD2B463E
:100D80006A68BAB11068A04210D304F10801884221
:100D90003CBF5068586007D3516810194160116812
:100DA000091B016058601460101D70BD1346526825
:100DB000002AE7D12146284600F096F90028DED126
:100DC00070BD70B50446051F00F086F90068002C60
:100DD00014BF446870BD002C18BFAC423CBF204615
:100DE0006468F8D301680A18AA4218BF456003D1A5
:100DF0002A6805461144016028684119A1421CBFB8
:100E00006C6070BD6168696021680844286070BDCD
:100E10003A2800D2303820F02002412A01D3A2F132
:100E20003700884201D34FF0FF30704770B5C46877
:100E3000A50713D0650211D4B2F5807F09D0B2F5B1
:100E4000007F06D0B2F5806F08D1012300F12401A4
:100E500006E05D1E6FF07F46B54201D3012070BDF4
:100E60000161C361416024F470611143C1600020DD
:100E700070BD0000C16821F4001141F08001C16023
:100E800000218160016070472DE9F74F15460C463F
:100E90004FF0FF3B3848D768D2F814A0074209D07A
:100EA0005046A96903F098F8002819DB3248C0437E
:100EB0000740EF604FF000496FF000484C4501D308
:100EC000464600E0264600993B465046324603F02F
:100ED00087F8A96920F00042B21A1144A96128B12B
:100EE0002846FFF7C7FF5846BDE8FE8FA41BE5D193
:100EF0000020F9E770B504460569C06A6168884258
:100F000000D80846E16821F42011E160C90312D538
:100F1000A84208D02246411B2846FFF7B5FF10B172
:100F20004FF0FF3070BD0020E562C4E90150E06879
:100F300020F48030E060002070BD10B50446C06829
:100F400020F02000E060A16AA06988420DD0204610
:100F5000FFF7D0FFE06820F4405040F01000E06060
:100F6000A06AA0612069E062606044F24001E0682C
:100F70008843E06010BD0000100002002DE9F04140
:100F80000C461646070047D0104600F06FF8207850
:100F9000611C61280AD0722802D077283CD102E077
:100FA0000125002405E00225042402E0082448F27B
:100FB000020511F8010B2B2806D0622809D011F880
:100FC000010C74280AD00BE045F0030544F002043C
:100FD000EFE745F0040544F00104EAE744F01004AB
:100FE0003846214602F0C8FF411C15D0002131616E
:100FF00071604FF40071F560F1617061200704D5F4
:1010000030460222002100F0B9F8306D40F00100B6
:1010100030653046BDE8F0810020FBE72DE9F04166
:101020000D460646104C206DC10704D0410804D07F
:1010300020F00104F7E722460EE05420FFF792FE6D
:1010400007000ED0206D47F00101084354212065B0
:101050003846FFF72FFB3A4629463046BDE8F041B7
:101060008CE70020D6E70000780100202DE9F0474A
:1010700004464FF0FF380026C568D4E90497A80756
:1010800018D02046FFF736FF384602F061FF0028EF
:1010900000DA4646280502D54846FFF792FE4C2165
:1010A0002046FFF707FB206D20F001002065304649
:1010B000BDE8F0874046FBE710B50446AFF300807B
:1010C0002046BDE81040FFF70FB910B500F0D8F882
:1010D000BDE8104000F0CEB8004870477C02002008
:1010E000704770477047704738B504460A4600207D
:1010F0006946AFF30080002808BF38BD024600995A
:10110000204600F0DDF8012038BD012000F02CB9A8
:10111000F8B5AFF30080054600200C460C2000BF58
:101120000646A819A0420DD9324669460020AFF301
:101130000080070008BF00F017F90098A04218BF10
:101140000546C419FFF7C8FF05600746F01D20F0EB
:1011500007004619284600F00AF8B44208BFF8BD57
:10116000A21B31463868BDE8F84000F0A9B800215C
:101170000160416070470C20704700002DE9F0418C
:10118000044616460D464769007B80072ED0384638
:1011900002F0EAFE50BB3EB3012E02D0022E25D152
:1011A00004E0204600F0A6F805441DE0384602F0B1
:1011B000D9FEE168002841F01001E16005DA20461F
:1011C000FFF758FE0120BDE8F081C9030BD5626826
:1011D000E16A914200D81146A26911442269891A34
:1011E000814200DD08460544002D01DA0220EAE7CD
:1011F000E16A6068E268814206D29103E06203D549
:1012000022F4003141F01002A6690027AE4213DC3F
:10121000E16A814201D90B4600E0034603EB060C6C
:101220002369ACEB030CAC4506DD814201D98C4649
:1012300000E084469C4505D1A760276042F020006D
:10124000A5620DE0AD1BE669AE1B8142A66000D928
:101250000846C01A281A20605819606022F0200041
:1012600003490840E060002084F84870ABE70000C4
:10127000BFCFD7FF002801D000F01CB87047000096
:1012800010B5014602A000F056F8012010BD000084
:1012900053494752545245443A2052656469726535
:1012A00063743A2063616E2774206F70656E3A2014
:1012B0000000000001491820ABBEFEE72600020036
:1012C000034640688C46002818BF88423CBF03464E
:1012D0004068F8D318681844884207D00CF103001E
:1012E00020F00700001D411A521A0146081D0A602D
:1012F000FFF767BD10B50146C268900703D090069E
:1013000007D5886A0AE0FFF741FA01210160881ECB
:1013100010BD8B69486818440B69C01A91F84830B1
:101320001BB191F84910401A10BD1103FCD50028DB
:10133000FADD401E10BD70B505460C460A2000E0DF
:101340006D1C00F018F835B128780028F8D102E0BB
:10135000641C00F010F814B120780028F8D1BDE822
:1013600070400A2000F007B810B500F00DF8BDE895
:101370001040FFF77FBF08B569468DF800000320D5
:10138000ABBE08BD7047000010B5012805D0002194
:1013900003A0FFF7D0FF012010BD09A1F8E700006E
:1013A00053494752544D454D3A204F7574206F664E
:1013B0002068656170206D656D6F727900000000B6
:1013C0003A2048656170206D656D6F727920636F9A
:1013D0007272757074656400FEE70000704700006B
:1013E000EFF3108072B600BFFEE7000040F2541029
:1013F000C2F20000027F02F0FD01012942F2000169
:10140000C4F2020106D002F0FE02022A16D0002128
:10141000017770470B6823F400730B600B6843F48B
:1014200000630B600B6823F400630B600B6843F4EC
:1014300000730B6002F0FE02022AE8D10A6842F44F
:1014400080520A600A6822F480520A600A6842F4F4
:1014500080620A60002101777047000070B542F297
:1014600010060446C4F2020600F024FB054600BF45
:101470003068C00306D500F01DFB401BA042F7D921
:10148000032070BD30684CF2FA3101400AD040F2BE
:101490005410C2F2000042680A43426001203160E9
:1014A00070BD00BF3068C0074FF0000008BF70BDBE
:1014B0000121316070BD000080B541F22800C4F206
:1014C00002004FF0FF3100220161026181618261FF
:1014D00001600260416042608160826000F036FB22
:1014E000002080BDB0B5044600F0E4FA054640F2A5
:1014F0000C00C2F200004068611C18BF044400BF29
:1015000000F0D8FA401BA042FAD3B0BD2DE9F04755
:1015100040F25419C2F2000999F80020012A04BFD0
:101520000220BDE8F0870546012089F800004FF44D
:101530007A708846FFF792FF20B1002189F80010E9
:10154000BDE8F08742F214070020C4F20207C9F890
:10155000040057F8140C57F8141C49054CD4C0F378
:10156000402089F81C002868012856D04FF0FF3031
:10157000C8F80000D5E902402044844234D2E60095
:1015800040F2FA3A6868F968490203D4386820F4EE
:10159000006006E0C00739680CBF41F4006021F428
:1015A00000603860386806F4FF6120F47E700843FC
:1015B0003860386840F002003860386840F48030A5
:1015C00038604FF47A70FFF749FF3968002821EA44
:1015D0000A01396040F07E80D5E9020101340844F7
:1015E000844206F10806CDD3002099F81C1001F0C2
:1015F000FD02012A38D04FE057F8141C10F4007097
:101600004FF0030021F4806108BF022047F8141C4A
:1016100089F81C0028680128A8D16868F96849027F
:1016200002D448F2040009E0C10703D0396841F050
:1016300004013960800704D54FF40040396808433D
:101640003860386840F4803038604FF47A70FFF7C3
:1016500005FF396848F204029143396099F81C107B
:1016600001F0FD02012A17D157F8142C22F4007260
:1016700047F8142C57F8142C42F4006247F8142C45
:1016800057F8142C22F4006247F8142C57F8142C45
:1016900042F4007247F8142C01F0FE01022911D126
:1016A00057F8141C41F4805147F8141C57F8141CC7
:1016B00021F4805147F8141C57F8141C41F4806140
:1016C00047F8141C002189F81C10002189F800102B
:1016D000BDE8F087C8F8004099F81C1001F0FD0241
:1016E000012AC1D0D8E7000042F21400C4F202007F
:1016F000016841F0004101600068C043C00F7047BD
:101700002DE9F04740F25419C2F2000999F800702F
:10171000012F04BF0220BDE8F087054642F2100603
:10172000012098468A461746C4F2020689F800004E
:1017300000F0C0F9044600BF3068C0030CD500F0CB
:10174000B9F9001BB0F57A7FF6D90320002189F89A
:101750000010BDE8F08700BF30684CF2FA31084055
:101760000CD0D9F804100143C9F8041030600120EE
:10177000002189F80010BDE8F08700BF3068002123
:10178000C0071CBF01203060C9F8041056F8100CC7
:101790004005284606D556F8101C21F4806146F80D
:1017A000101C0221002889F81C1041D002284DD8B5
:1017B0007168A7F1400341F480217160EFF310815B
:1017C000EFF3108272B6AAF14002402753F8405F4F
:1017D000103F42F8405F5D683C0655609D6895602B
:1017E000DD68D5601D6915615D6955619D6995610B
:1017F000DD69D5611D6A15625D6A55629D6A9562F3
:10180000DD6AD5621D6B15635D6B55639D6B9563DA
:10181000DD6BD563DAD1871E18BF012781F31088ED
:101820006FF48028022818BF4FF0FF3811E000BF86
:10183000706840F001007060CAF80070BFF36F8FED
:10184000CAF804806FF00108002702E04FF0FF386B
:10185000012700F02FF904463068C00308D500F0D6
:1018600029F9001BB0F57A7FF6D9032013E000BFF9
:1018700030684CF2FA31014006D0D9F80400084330
:10188000C9F80400012005E03068C0074FF00000EF
:1018900001D00121316004461FB9706800EA0800D8
:1018A0007060FFF7A3FD2046002189F80010BDE815
:1018B000F087000042F20800C4F20200C168B1F1F2
:1018C000FF3FC4BF0020704740F22311C4F26751AC
:1018D000016048F6AB11CCF6EF510160C068C00F53
:1018E000704700002DE9F04F83B00E68002E00F025
:1018F000CF8000F1200241F2004C009200F1384705
:10190000C4F6000C06224FEAB725604508BF052241
:10191000052D38BF4FEAB722002500274FF00008F9
:1019200001920AE00E6808F1010836FA08F207F1A0
:10193000020705F1040500F0AB80012202FA08FE5F
:1019400016EA0E09EED0D1F804C003220CF0030B06
:10195000ABF1010602FA07F4012E6FEA040A11D86E
:101960008468CE6804EA0A04BE4034438460446854
:1019700024EA0E06CCF3001404FA08F42643466069
:1019800006E000BFBBF1030F02D14FF0030B21E0D3
:10199000C6688C6806EA0A06BC402643BBF1020F03
:1019A000C66017D16FF00302009B02EA580605F0EB
:1019B0001C020F2453F806C004FA02FE0C692CEA3C
:1019C0000E0C04FA02F242EA0C029A51D1F804C059
:1019D0000CF0030B02680BFA07F302EA0A021A433F
:1019E0001CF4403F02609DD041F26003C4F2020348
:1019F0001A6840F2004E42F001021A601A68C4F2FE
:101A0000010E02F001020292029A28F003024FF640
:101A1000084C7244CFF6FF7C52F80C3005F00C06EF
:101A20000F24B440A343019C04FA06F6334342F862
:101A30000C30DEF808204B6842EA090640F20C4CF4
:101A4000DC0258BF22EA0906CEF80860C4F2010C95
:101A5000DCF800209C0242EA090658BF22EA090687
:101A6000CCF80060DEF804209C0342EA090658BF67
:101A700022EA0906CEF80460DEF80020DB0342EA21
:101A8000090658BF22EA0906CEF800604AE700BFFF
:101A900003B0BDE8F08F0000426902EA0103914300
:101AA00041EA0341816170471823002A08BF2823B7
:101AB000C150704740F26C30C2F2000000687047BD
:101AC00040F20C0040F26C31C2F20000C2F20001A0
:101AD00040680A68104408607047000080B5032021
:101AE00000F07CF80F2000F009F800281CBF01204E
:101AF00080BD00F02DF8002080BD0000B0B540F2A0
:101B00000C05C2F200056968F1B1044640F2140008
:101B1000C2F200004FF47A720068B2FBF1F1B0FB40
:101B2000F1F000F0C1FE01460F2C4FF001000AD881
:101B3000002918BFB0BD4FF0FF302146002200F051
:101B400021F800202C60B0BD0120B0BD704700001E
:101B500082B041F25800C4F20200816841F00101F4
:101B60008160816801F0010101910199016841F0F2
:101B700080510160006800F080500090009802B031
:101B800000F0C4B810B54EF60C5CCEF2000CDCF8D8
:101B90000030C3F3022E8EF00704042C28BF042467
:101BA000BEF103034FF0FF3E0EFA04F438BF0023EA
:101BB000A14399400EFA03F39A43114300F00F0238
:101BC00000F160430901043A03F5644362440028CC
:101BD00048BF02F10C03197010BD00004EF60C5105
:101BE000CEF200010A684FF6FF031A4060F30A22A2
:101BF00042F0806040F0FD700860704747F21401C9
:101C0000C4F2000151F8142CB0F5007F3CD000283C
:101C100074D1C86E02F4C06220F48070B2F5806F97
:101C2000C8662FD151F8140C012262F34A2041F802
:101C3000140C40F21400C2F200000068322250433B
:101C40004DF68362C4F21B32A0FB0202900C00BF6F
:101C50000A68520511D5421C0FD00A6852050CD5EE
:101C600058B10A68520508D5012806D00A685205FD
:101C700003D50228A0F10400EAD10868400544BF5A
:101C80000320704700207047C86E02F4C06240F421
:101C90008070B2F5806FC866F4D151F8140C01223F
:101CA00062F34A2041F8140C40F21400C2F2000022
:101CB0000068322250434DF68362C4F21B32A0FB0F
:101CC0000202900C0A68520511D5421C0FD00A6816
:101CD00052050CD558B10A68520508D5012806D01E
:101CE0000A68520503D50228A0F10400EAD1086869
:101CF000400544BF03207047C4E700BF022060F3E3
:101D00004A2241F8142C00207047000047F20800D6
:101D1000C4F20000016841F4804101607047000096
:101D20002DE9F04182B00446807841F28806000730
:101D3000C4F2020602D400202FE000BF56F8300C97
:101D40005FEAC0080BD456F8300C40F0805046F8DB
:101D5000300C56F8300C00F080500190019847F29A
:101D60000007C4F20007386840F480703860FFF75D
:101D7000A1FE05463868C00500F10C81FFF79AFE08
:101D8000401B0228F6D90320B8F1000F05D456F8FD
:101D9000301C21F0805146F8301C2168CA0717D149
:101DA0008A071DD44A0723D40A0729D4CA062FD488
:101DB0008A0635D44A063BD40A0641D4CA0547D41C
:101DC0008A034DD48A0553D44A0559D467E000BF2D
:101DD0003268636822F003021A4332608A07E1D551
:101DE0003268A36822F00C021A4332604A07DBD53E
:101DF0003268E36822F030021A4332600A07D5D510
:101E00003268236922F0C0021A433260CA06CFD575
:101E10003268636922F440721A4332608A06C9D577
:101E20003268A36922F440621A4332604A06C3D57D
:101E30003268E36922F440521A4332600A06BDD583
:101E40003268236A22F440421A433260CA05B7D589
:101E50003268636A22F440321A4332608A03B1D591
:101E60007269A36A22F003021A4372618A05ABD534
:101E70003268E36A22F440221A4332604A050ED5E2
:101E80003268236B22F440121A43B3F5801F32608C
:101E900005D156F87C2C42F4801246F87C2C0A05B9
:101EA0000ED53268636B22F440021A43B3F5800FFB
:101EB000326005D156F87C2C42F4801246F87C2C16
:101EC000CA040ED53268A36B22F040721A43B3F1F4
:101ED000807F326005D156F87C2C42F4801246F89F
:101EE0007C2C8A040ED53268E36B22F040621A43E0
:101EF000B3F1006F326005D156F87C2C42F48012A9
:101F000046F87C2C4A040ED53268236C22F04062DD
:101F10001A43B3F1006F326005D156F87C2C42F4BD
:101F2000801246F87C2C0A040ED53268636C22F0CD
:101F300040521A43B3F1805F326005D156F87C2CD1
:101F400042F4803246F87C2CCA030ED53268A36C6A
:101F500022F040421A43B3F1804F326005D156F867
:101F60007C2C42F4803246F87C2C49030ED57169F2
:101F7000E26C21F440111143B2F5001F716105D1EB
:101F800056F87C1C41F4801146F87C1C02B0BDE878
:101F9000F08100BFB06810F4407010D0216D88420D
:101FA0000BD0B068B16820F4407041F48031B1606A
:101FB000B16821F48031B160B060C0070CD1B06865
:101FC000216D20F440700843B0600020B8F1000F8C
:101FD0003FF5E3AEDBE600BFFFF76CFD054641F2DF
:101FE000883700BFB0688007E9D4FFF763FD401B66
:101FF000B842F7D9C7E600002DE9F047002863D0C2
:1020000042F2000AC4F2020A0446DAF800000D4661
:1020100000F00F0081420CD9DAF8000020F00F0028
:102020002843CAF80000DAF8000000F00F00A842C8
:102030004AD1216841F20808C807C4F2020803D156
:10204000880740F1D080B5E0606858F8082C022875
:1020500038D003283CD1920136D5D8F80420D8F8DE
:10206000043042F20046C3F3031302F00302D8F82F
:1020700004700133C0F2F406032A04BF41F20026C3
:10208000C0F27A06B6FBF3F2D8F80430C7F306279D
:102090007A43C3F34163022707EB4303B2FBF3F236
:1020A0004BF20043C0F2C4439A4259D9D8F80020F9
:1020B00012F0F00F49D0890752D5A16800294FD1FD
:1020C00043E000BF910305D40120BDE8F08700BFC5
:1020D0005105F9D5D8F8001001F00C0104293FD0C2
:1020E000D8F8001001F00C01082939D0D8F80010F8
:1020F00001F00C010C2933D1D8F80410D8F80420D1
:1021000042F20047C2F3031201F00301D8F8043091
:102110000132C0F2F407032904BF41F20027C0F2E4
:102120007A07B7FBF2F1D8F80420C3F3062359432A
:10213000C2F34162022303EB4202B1FBF2F14BF224
:102140000042C0F2C44291420AD9D8F800100822D5
:1021500062F307114FF00109C8F8001002E000BF58
:102160004FF00009D8F8001021F003010843C8F827
:102170000000FFF79FFC064641F28837D8F80000C0
:10218000616800F00C00B0EB810F07D0FFF792FC04
:10219000801BB842F2D90320BDE8F0872168880788
:1021A00008D4B9F1000F1ED0D8F8000020F0F000DC
:1021B00017E000BF480705D5D8F8000040F4E060FC
:1021C000C8F80000080706D5D8F80000072262F317
:1021D0000D20C8F80000D8F80000A26820F0F00038
:1021E0001043C8F80000DAF8000000F00F00854244
:1021F0001BD2DAF8000020F00F002843CAF80000D4
:10220000FFF758FC064641F2883700BFDAF80000B5
:1022100000F00F00A84207D0FFF74CFC801BB8422B
:10222000F4D90320BDE8F0872168480707D5D8F81E
:102230000000E26820F4E0601043C8F800000807DE
:1022400008D5D8F80000216920F4605040EAC100A8
:10225000C8F80000D8F8000042F20041C0F2F401D2
:1022600000F00C00042808462DD0D8F8000000F03B
:102270000C00082841F20020C0F27A0023D0D8F8E0
:10228000002002F00C020C2A1CD1D8F80420D8F847
:10229000043002F00302C3F30313D8F804700133CF
:1022A000032A08BF0146B1FBF3F0D8F80410C7F3C6
:1022B0000627C1F341610222784302EB4101B0FBE2
:1022C000F1F000E00020D8F8001044F24722C1F3FA
:1022D0000311C0F60002515C40F2140201F01F012C
:1022E00020FA01F140F20C00C2F200000068C2F2D4
:1022F00000021160BDE8F047FFF700BC40F2140097
:1023000041F20801C2F20000C4F20201006809684B
:1023100044F25722C1F30221C0F60002515C01F0E1
:102320001F01C8407047000040F2140041F208014C
:10233000C2F20000C4F202010068096844F25722A8
:10234000C1F3C221C0F60002515C01F01F01C84078
:102350007047000041F20C01C4F2020151F8040C74
:1023600042F20042C0F2F40200F00C0004281046D1
:1023700008BF704751F8040C00F00C00082841F227
:102380000020C0F27A0025D051F8043C03F00C0381
:102390000C2B1CBF0020704780B5D1F800C00B6823
:1023A0000CF0030CC3F3031E0B680EF1010EBCF11D
:1023B000030F08BF02460968B2FBFEF0C3F3062311
:1023C000C1F341610222584302EB4101B0FBF1F03D
:1023D000BDE8804070470000002804BF012070471E
:1023E0002DE9F04182B00446007841F20006C007B2
:1023F000C4F202061ED1207880073DD42078000761
:1024000064D42078400700F187802078800600F1AE
:10241000D980E569002D00F04282B06800F00C0020
:102420000C2840F03181012D40F08E81012002B056
:10243000BDE8F081B06800F00C01F068082961D0B7
:10244000032281F00C0122EA00000844B0FA80F077
:10245000400957D161683068B1F5803F07D0B1F5C8
:10246000A02F40F0E38040F480203060306840F4DA
:1024700080303060E4E000BFB068F16800F00C002C
:10248000042871D001F0030180F00C0081F00201FA
:102490000844B0FA80F0400966D1E168306800294C
:1024A00000F0E08040F480703060FFF703FB0546E9
:1024B0003068400500F10A81FFF7FCFA401B022852
:1024C000F6D9032002B0BDE8F08100BF6169D6F8FB
:1024D0009400002900F0948040F00100C6F89400B8
:1024E000FFF7E8FA054600BFD6F8940080073FF5ED
:1024F00088AFFFF7DFFA401B0228F5D9032002B0AE
:10250000BDE8F081306880037FF575AF6068002812
:102510007FF471AF3EE000BFB06D5FEAC00808D441
:10252000B06D40F08050B065B06D00F0805001900B
:10253000019847F20007C4F200073868C0052DD49F
:10254000386840F480703860FFF7B4FA054600BF81
:102550003868C00522D4FFF7ADFA401B0228F7D92E
:10256000032002B0BDE8F0813068400501D5E06885
:1025700080B17068216920F0FE4040EA016070601F
:1025800040F20C00C2F200000068FFF7B7FA002822
:102590003FF434AF012002B0BDE8F081A168D6F865
:1025A0009000012908D0052940F0AE8040F00400D9
:1025B000C6F89000D6F8900040F00100C6F89000F0
:1025C000AEE000BFA169D6F89800002900F086802F
:1025D00040F00100C6F89800FFF76CFA054600BF0E
:1025E000D6F8980080073FF514AFFFF763FA401B59
:1025F00002284FF00300F3D902B0BDE8F08100BF1C
:1026000020F00100C6F89400FFF754FA054600BF19
:10261000D6F8940080077FF5F4AEFFF74BFA401B25
:102620000228F5D9032002B0BDE8F08120F4803003
:1026300030603068002920F48020306000F0BE80D7
:10264000FFF738FA054600BF306880033FF5D3AE88
:10265000FFF730FA401B6428F6D9032002B0BDE82A
:10266000F08100BF20F480703060FFF723FA054648
:10267000306840057FF5C2AEFFF71CFA401B022808
:102680004FF00300F4D9B7E7306820F08070306075
:10269000FFF710FA022D05460CD100BF306880010B
:1026A00040F1B880FFF706FA401B02284FF0030004
:1026B000F4D9A1E73068800140F1EA80FFF7FAF928
:1026C000401B02284FF00300F4D995E77068216998
:1026D00020F0FE4040EA016070608FE620F00100CB
:1026E000C6F89800FFF7E6F9054600BFD6F898004F
:1026F00080077FF58EAEFFF7DDF9401B02284FF013
:102700000300F3D978E700BF20F00100C6F890007D
:10271000D6F89000002920F00400C6F890005DD0A3
:10272000FFF7C8F9054641F2883700BFD6F8900098
:10273000800765D4FFF7BEF9401BB842F6D90320E5
:1027400002B0BDE8F08100BFF068216A00F003022A
:102750008A427FF41FAF626A6FF00F0300F0F0014E
:1027600003EB021291427FF415AFA16A00F4FE421E
:10277000B2EB012F7FF40EAFE16A00F07842B2EBCA
:10278000C16F7FF407AF226B0023CFF6E07303EA3B
:10279000025200F4C001A2F5001291427FF4FAAE99
:1027A000616B4FF07E4202EA016100F0C06001F10E
:1027B0007E4188427FF4EEAE71E000BFFFF77AF908
:1027C000054600BF306880037FF515AEFFF772F94C
:1027D000401B64284FF00300F4D90DE7FFF76AF9B6
:1027E000054641F2883700BFD6F89000800707D52C
:1027F000FFF760F9401BB8424FF00300F4D9FBE645
:10280000B8F1000F3FF501AEB06D20F08050B0651B
:10281000FBE500BFF06848F20C01C0F29F1104F123
:10282000200700EA010C8ECF6FF00F00D4E90C54A2
:1028300000EB02100022CFF6E07241EA0C0102EA3E
:1028400005520843A2F500124FF07E4540EA0320EE
:1028500005EA0465104305F17E4540EAC760284358
:10286000F060306840F080703060F06840F0807058
:10287000F060FFF71FF90446306880010FD4FFF7BE
:1028800019F9001B02284FF00300F5D9B4E600BF88
:10289000F0684FF6FC71CFF6EE610840F060002062
:1028A00002B0BDE8F0810000411E0020B0EB116FC6
:1028B0001CBF012070474EF21002CEF200025160A0
:1028C0004EF62351CEF20001F0230B7007219060E9
:1028D0001160704790F88410012904BF02207047EE
:1028E0002421C0F8881001680A680B6822F00052A1
:1028F00023F001030B60002343660A602021C0F827
:10290000881080F8843000207047000090F8842000
:10291000012A04BF02207047B0B52422C0F88820E5
:102920000268D0F864E0D2F800C01368BEF1000F6E
:1029300023F001031360936823F0606341EA03010D
:10294000916019D09368916844F2B02E490FC0F697
:10295000000E44F2B8251EF80140C0F60005695C7F
:10296000C3F34263E400B4FBF1F11EF80340EB5CF7
:10297000E500B5FBF3F301E001210123A0F86A10A3
:102980002021A0F86830C2F800C0C0F888100021EB
:1029900080F884100020B0BD90F88420012A04BF84
:1029A00002207047B0B52422C0F888200268D0F811
:1029B00064E0D2F800C01368BEF1000F23F00103F9
:1029C0001360936823F0604341EA0301916019D0DA
:1029D0009368916844F2B02E490FC0F6000E44F29D
:1029E000B8251EF80140C0F60005695CC3F34263D8
:1029F000E400B4FBF1F11EF80340EB5CE500B5FB2D
:102A0000F3F301E001210123A0F86A102021A0F8CE
:102A10006830C2F800C0C0F88810002180F8841027
:102A20000020B0BD10B5D0B10446D0F8880028B958
:102A3000002084F88400204600F026F82420C4F802
:102A400088002068A16A026822F00102026011B1C8
:102A5000204600F0CBF9204600F0F2FA10B1012038
:102A600010BD00BF2168486820F490404860886825
:102A700020F02A008860086840F0010220460A60C1
:102A8000BDE8104000F026BA10B59CB00446002006
:102A90001B90CDE91900CDE9170002A804305021A0
:102AA000FDF708FE206844F20041C4F200018842AC
:102AB00002D01CB010BD00BF022402A80294FFF790
:102AC0002FF9002818BFFEF78BFC41F24C00C4F22E
:102AD0000200C16841F40031C160C16801F40031F5
:102AE00001910199016841F002010160006817A994
:102AF00000F00200019001981820CDE91704002091
:102B0000CDE9190007201B9040F20040C4F60000F8
:102B1000FEF7E8FE1CB010BD2DE9F04381B004467D
:102B2000D0F88C00202809D10E4600294FF0010072
:102B300018BF002A06D101B0BDE8F083022001B021
:102B4000BDE8F083002022219946C4F89000C4F823
:102B50008C10E0661546FEF7ADFFA4F85C50A4F8B3
:102B60005E50A1688046C9B1B1F1805F12D0B1F565
:102B7000805F17D12069FF27014600281CBF31461E
:102B80000026002808BF40F2FF17A4F86070354601
:102B90000E4617E0206918B13F2706E0206918B1FA
:102BA0007F2702E0002700E0FF270025A4F86070DF
:102BB00008E000BF384006F8010BB4F85E000138A9
:102BC000A4F85E00B4F85E0090B1204620210022F7
:102BD0004346CDF8009000F08DFB88B92068002EA8
:102BE000406AE7D1384025F8020B0026E5E700BF30
:102BF00000202021C4F88C1001B0BDE8F08300BF94
:102C000003202021C4F88C1001B0BDE8F08300003F
:102C10002DE9F04381B00446D0F88800202809D17E
:102C200000294FF0010018BF002A07D101B0BDE80C
:102C3000F08300BF022001B0BDE8F0830020C4F89B
:102C4000900021201D460E46C4F888001746FEF766
:102C500031FFA4F85470A4F85670A1688146B1F50C
:102C6000805F02D12069002866D037460020B4F882
:102C700056202168002A67D06A1C28D0002D53D026
:102C8000804600BFC86900060AD4FEF713FFA0EB18
:102C90000900A84200F2848021680868F2E700BFBA
:102CA00017B117F8010B04E038F8020B00276FF397
:102CB0005F208862B4F856000138A4F85600B4F8D2
:102CC00056000028DED13FE0CA69120609D4CA695D
:102CD000120606D4CA6912065CBFCA695FEA0262BC
:102CE000F2D51FB117F8012B05E000BF30F8022B19
:102CF00000276FF35F228A62B4F85620013AA4F8E5
:102D00005620B4F85620002AE1D11DE030F8022BFD
:102D100000276FF35F228A62B4F85620013AA4F8C4
:102D20005620B4F856207AB1CA69120636D5002F5B
:102D3000ECD017F8012BEEE700273046B4F8562008
:102D40002168002A7FF498AFC86940061ED42DB3CD
:102D5000681C14D1C86940062AD4C869400627D423
:102D6000C869400624D4C86940064FF00000F1D578
:102D70000DE000BF20680168C069400618D4FEF766
:102D800099FEA0EB0900A842F4D909E00020202117
:102D9000C4F8881001B0BDE8F08300BFFEF78AFEDA
:102DA00003202021C4F8881001B0BDE8F08300BFE3
:102DB00000202021C4F8881001B0BDE8F083000095
:102DC000FEE70000FEE70000FEE70000704700009D
:102DD00070470000FEF774BE4EF68850CEF2000039
:102DE000016841F47001016070470000816A0A07C0
:102DF0000CD4CA0715D18A071ED44A0727D4CA069D
:102E000030D48A0639D44A0642D457E00268D0F852
:102E100038C0536823F4004343EA0C035360CA07E5
:102E2000E9D00268D0F82CC0536823F4003343EA99
:102E30000C0353608A07E0D50268D0F830C05368AD
:102E400023F4803343EA0C0353604A07D7D5026862
:102E5000D0F834C0536823F4802343EA0C03536052
:102E6000CA06CED50268D0F83CC0936823F48053DC
:102E700043EA0C0393608A06C5D50268D0F840C0C7
:102E8000936823F4005343EA0C0393604A0615D574
:102E9000D0F800C0436CDCF80420B3F5801F22F4A6
:102EA000801242EA0302CCF8042007D1DCF80420A7
:102EB000836C22F4C0021A43CCF80420090658BFE0
:102EC00070470168C06C4A6822F4002210434860D1
:102ED00070470000B0B582B004460020C4F89000EE
:102EE000FEF7E8FD216805460A68120737D56FF03E
:102EF0007E4C20464FF4001100222B46CDF800C036
:102F000000F0F8F950B300BF206850E8000F2168C6
:102F100020F0800041E80002DAB1206850E8000F9C
:102F2000216820F0800041E8000292B1206850E85A
:102F3000000F216820F0800041E800024AB12068BB
:102F400050E8000F216820F0800041E80002002ACC
:102F5000DAD10320202188226BE000BF21680868B5
:102F600040075DD56FF07E4C20464FF48001002273
:102F70002B46CDF800C000F0BDF9002850D000BFAE
:102F8000206850E8000F216820F4907041E80002AA
:102F9000BAB3206850E8000F216820F4907041E82F
:102FA000000272B3206850E8000F216820F490708E
:102FB00041E800022AB3206850E8000F216820F49D
:102FC000907041E80002002ADAD11AE0206850E847
:102FD000020F216820F0010041E80202DAB1206806
:102FE00050E8020F216820F0010041E8020292B18E
:102FF000206850E8020F216820F0010041E8020239
:103000004AB1206850E8020F216820F0010041E831
:103010000202002ADAD1032020218C2209E000BF1D
:103020002020C4F88800C4F88C0000217022002001
:10303000E166A150002184F8841002B0B0BD000008
:1030400070B5054605F108041ECC0068194341EA35
:103050000403EE69046846F6F311CCF6FF712140D3
:10306000194331430160416848F2000C21F440519A
:1030700011434160AA69C4F2000C60451CBF296A73
:103080000A4381684FF2FF43C1F2FF131940114315
:103090008160C16AD5F824E021F00F0141EA0E01F8
:1030A000C16244F6FF71C4F2000188424FF0100380
:1030B00018DC44F20041C4F20001884228D044F6F2
:1030C0000001C4F20001884232D044F60041C4F24B
:1030D0000001884242D141F28801C4F2020109682C
:1030E0008B0933E045F20001C4F20001884217D099
:1030F000604525D043F60001C4F2010188422DD17C
:1031000041F28801C4F202010B6876A222E000BFFE
:1031100041F28801C4F2020109688B0816E000BF81
:1031200041F28801C4F2020109680B0A0EE000BFF7
:1031300041F28801C4F2020109680B0906E000BFF0
:1031400041F28801C4F2020109688B0A44F2A0220C
:10315000C0F6000203F0030152F82130604542F24C
:103160000040C0F2F40015D0B6F5004F22D1082B74
:103170004FF0010100F2AD80DFE803F0065C74ABB4
:1031800064ABABAB720000BFFFF7B8F8002840F0AB
:103190005D809AE0082B4FF0010100F29A80DFE891
:1031A00003F0059825981B9898982300FFF7A6F838
:1031B000B0B98AE0082B4FF0010100F28A80DFE805
:1031C00003F0053D6F88498888886D00FFF796F801
:1031D000002842D179E000BFFFF7BCF8002874D086
:1031E000D5F824E002E000BF4FF4004044F2602133
:1031F000C0F6000131F81E106A68B0FBF1F002EB76
:10320000420188424FF0010163D31303984260D812
:10321000010E000210EB520041F100010023FDF706
:1032200089F84FF60052A0F54071C0F20F029142AA
:1032300049D34DE0FFF778F840B946E0FFF774F85E
:1032400058B942E0FFF786F800283ED0D5F824E0D0
:1032500008E000BFFFF77EF8B8B3D5F824E01FE020
:103260004FF4004044F26021C0F6000131F81E1016
:103270006A68B0FBF1F0510801EB4000B0FBF2F0DE
:103280004FF6EF72A0F11001914221D84FF6F07184
:103290000140C0F34200084415E000BF4FF4004075
:1032A00044F26021C0F6000131F81E104FF6EF72B3
:1032B000B0FBF1F0696800EB5100B0FBF1F0A0F158
:1032C0001001914204D82968C860002101E000BFC4
:1032D00001214FF00110A866002208466A67AA671C
:1032E00070BD00BF010000000400000002000000EB
:1032F000080000002DE9F041804600681546C269CB
:103300000E461140891BB1FA81F149098D4223D142
:10331000069C2CB3611C29D1C1693140891BB1FACB
:1033200081F149098D4217D1C1693140891BB1FA38
:1033300081F149098D420FD1C1693140891BB1FA30
:1033400081F149098D4207D1C1693140891BB1FA28
:1033500081F149098D42DFD00020BDE8F08100BF36
:10336000FEF7A8FB0320BDE8F08100BF1F4607E081
:10337000C0693040801BB0FA80F040098542EBD133
:10338000FEF798FBC01BA04200F2AE80D8F8000008
:1033900001684907ECD5402EEAD0802EE8D0C169FB
:1033A000090700F1A580C1690905E1D54FF4006165
:1033B0000162D8F8000050E8000FD8F8001020F49F
:1033C000907041E800020AB3D8F8000050E8000FFE
:1033D000D8F8001020F4907041E80002B2B1D8F89B
:1033E000000050E8000FD8F8001020F4907041E879
:1033F00000025AB1D8F8000050E8000FD8F80010C9
:1034000020F4907041E80002002AD2D14FF6FE70FD
:10341000CEF6FF70D8F8001051E8021FD8F800204F
:10342000014042E80213F3B1D8F8001051E8021F3E
:10343000D8F80020014042E80213A3B1D8F80010E8
:1034400051E8021FD8F80020014042E8021353B1AE
:10345000D8F8001051E8021FD8F80020014042E8D7
:103460000213002BD6D1D8F86C0001282CD1D8F843
:10347000000050E8000FD8F8001020F0100041E8DC
:1034800000020AB3D8F8000050E8000FD8F8001086
:1034900020F0100041E80002B2B1D8F8000050E876
:1034A000000FD8F8001020F0100041E800025AB1D7
:1034B000D8F8000050E8000FD8F8001020F01000F5
:1034C00041E80002002AD2D120200021C8F88C0057
:1034D000C8F86C10C8F87410C8F89000032088F879
:1034E0008410BDE8F08100BF0320BDE8F08100BF7B
:1034F00008210162D8F8000050E8000FD8F8001049
:1035000020F4907041E800020AB3D8F8000050E8B7
:10351000000FD8F8001020F4907041E80002B2B11A
:10352000D8F8000050E8000FD8F8001020F4907090
:1035300041E800025AB1D8F8000050E8000FD8F86E
:10354000001020F4907041E80002002AD2D14FF61A
:10355000FE70CEF6FF70D8F8001051E8021FD8F8C0
:103560000020014042E80213F3B1D8F8001051E8FE
:10357000021FD8F80020014042E80213A3B1D8F896
:10358000001051E8021FD8F80020014042E8021361
:1035900053B1D8F8001051E8021FD8F800200140BC
:1035A00042E80213002BD6D1D8F86C0001282CD1A8
:1035B000D8F8000050E8000FD8F8001020F01000F4
:1035C00041E800020AB3D8F8000050E8000FD8F82C
:1035D000001020F0100041E80002B2B1D8F800005D
:1035E00050E8000FD8F8001020F0100041E8000269
:1035F0005AB1D8F8000050E8000FD8F8001020F0B9
:10360000100041E80002002AD2D12020C8F88C0026
:1036100000200821C8F86C00C8F87400C8F89010A1
:1036200088F884000120BDE8F0810000FEE700007A
:1036300070B5054640F21800C2F2000014460E466E
:1036400000F0E6FB2968401AB04298BF70BD40F216
:103650001800C2F2000000F0DBFB0146A268204621
:103660002960BDE87040104782B040F21804C2F2F1
:10367000000420464FF4FA7100F0C6FB204600F02B
:103680009DFB28B940F21800C2F2000000F0C2FB16
:1036900062A0FCF7F9FF00F037FC44F26830C0F696
:1036A0000000FCF7F1FF44F28130C0F60000FCF7A7
:1036B000EBFF40F21804C2F20004204600F0CAF802
:1036C00044F29330C0F60000FCF7DEFF204600F025
:1036D00083FB44F23830C0F60000FCF7D5FF2046EB
:1036E00000F046F90546204640F6C41100F08CFB78
:1036F00095B1681C08D0A81C27D144F20430C0F64C
:103700000000FCF7C1FF20E044F2EE20C0F600000C
:10371000FCF7BAFF19E000BF44F21A3004F12801A7
:10372000C0F60000FCF77EFE44F2293004F22911B5
:10373000C0F60000FCF776FE44F2C020C0F60000A0
:10374000FCF7A2FF204600F065FB44F2683944F222
:10375000813744F2933544F238360FF2D808C0F678
:103760000009C0F60007C0F60005C0F6000604F127
:10377000280004F2291B019006E000BF44F2EE206D
:10378000C0F60000FCF780FF4046FCF77DFF00F02C
:10379000BBFB4846FCF778FF3846FCF775FF204630
:1037A00000F058F82846FCF76FFF204600F014FBA5
:1037B0003046FCF769FF204600F0DAF882462046E2
:1037C00040F6C41100F020FB1AF102001ED01AF1DD
:1037D0000100D3D0BAF1000FD6D144F21A300199CA
:1037E000C0F60000FCF71EFE44F22930C0F60000CF
:1037F0005946FCF717FE44F2C020C0F60000FCF763
:1038000043FF204600F006FBBEE700BF44F2043051
:10381000C0F60000FCF738FFB6E700BF426F6F74D8
:103820006C6F616465722072756E6E696E672E2EA4
:103830002E000000556E6B6E6F776E204572726FB2
:10384000722C204E6F772052657472792E2E2E0ABC
:1038500000000000B0B586B00446EFF31085EFF32A
:10386000108072B6FEF726F80020CDE90100012095
:10387000E169039020200490080B059002A801A99B
:10388000FDF744FEFDF730FF15B106B0B0BD00BF37
:1038900062B606B0B0BD00002DE9F04381B0002B48
:1038A00058D0984615468946FEF704F838F00706C2
:1038B0000FD00024002700BF28192A59436809EBBC
:1038C00004010020FDF71CFF00284AD10834B4424F
:1038D000F2D318F0070043D0A95D012861F0FF0280
:1038E0004FF0FF3327D0A9194F7822F47F420228E6
:1038F00042EA07221FD08F7822F47F02032842EA8F
:10390000074218D0CF7822F07F42042842EA0762AB
:1039100011D00F7923F0FF0305283B440BD04F79DA
:1039200023F47F43062843EA072304D0887923F44D
:103930007F0141EA004306EB090100200027FDF763
:10394000DFFE002808BF0127FDF7CEFE384601B094
:10395000BDE8F0830127384601B0BDE8F08300BF21
:103960000127FDF7C1FE384601B0BDE8F083000035
:103970002DE9F04FADF2144D03AE0446D0F820A06F
:10398000304640F20541FCF795FE002706F1030999
:1039900004F229100DF1080B4FF000080297019076
:1039A000002502E0204600F0DBF8204631465A466A
:1039B0004FF47A7300F0E6F840B1012800F0A280DD
:1039C0004544052D00F3A2804321EBE7029D681CCE
:1039D00000F0A48045B19DF80D00F9B2884209D0ED
:1039E00000251521DEE700BF2046062100F0B8F8CB
:1039F0000027D5E767B1204651464A462B46FFF7D8
:103A00004BFF002800F09680AA44062172E000BF18
:103A10009DF80F10002900F08180002032181579E0
:103A2000231883F828109DB1517983F8295089B162
:103A3000957983F82A107DB1D179021D83F82B5036
:103A400019B10330FF281046E8D3B018023004E063
:103A5000D01C02E0101D00E0501D8278002A3ED0EC
:103A6000C178019B1A70D1B3027984F82A11B2B3DC
:103A7000417984F82B2191B3827984F82C1172B3A7
:103A8000C17984F82D2151B3027A84F82E1132B312
:103A9000417A84F82F2111B3827A84F83011F2B17F
:103AA000C17A84F83121D1B1027B84F83211B2B1EC
:103AB000417B84F8332191B1827B84F8341172B157
:103AC000C17B84F8352151B1027C84F8361132B1C2
:103AD000407C84F83721002818BF84F83801019809
:103AE000FCF7C4FDE169884228D82046062100F091
:103AF00037F84321204600F033F801374FF0010832
:103B00004EE700BF6FF0020501E000BF0025204630
:103B10001821182600F024F802E000BF0025062630
:103B20002046314600F01CF828460DF2144DBDE841
:103B3000F08F00BF6FF00105E9E700BF4FF0FF35E0
:103B4000E5E7000080B540F2D8201346C2F200003D
:103B50000122FEF7E1FFB0FA80F0400980BD0000CD
:103B600080B582B040F2D8208DF80710C2F2000074
:103B70000DF1070101224FF0FF33FFF749F802B0C2
:103B800080BD00002DE9F04F81B00746002092462D
:103B9000884610600DF1030138461A469B46FFF730
:103BA000D1FF002800F0F0809DF803104A1E172A6C
:103BB00000F2E28000204FF08009DFE812F01B00E5
:103BC0001900E500FC00E500E500E500E500E50082
:103BD000E500E500E500E500E500E500E500E500BD
:103BE000E500E500E500E500E500E500EB0000BFCD
:103BF0004FF48069454605F8011B49F0050401268C
:103C0000384629465A46FFF79DFF002800F0BC8041
:103C10000136B44205F10105F2D898F8010098F890
:103C200002104840FF2840F0AF804FF6FE7008F1C8
:103C30000301C0F2010001EB0902002641F2210359
:103C400011F8017B00EA460545EAD715360448BF5E
:103C50005D40C7F3801646EA45062D0448BF5E4026
:103C6000C7F3401545EA4605360448BF5D40C7F333
:103C7000001646EA45062D0448BF5E40C7F3C0055E
:103C800045EA4605360448BF5D40C7F3800646EA6C
:103C900045062D0448BF5E40C7F3400545EA46058A
:103CA000360407F0010748BF5D4047EA45062F0488
:103CB00048BF5E409142C3D3B2B241F2210181EAD2
:103CC0004203B2F5004F38BF530081EA43021F049C
:103CD00058BF5A0081EA4203170458BF530081EAD3
:103CE00043021F0458BF5A0081EA4203170458BF19
:103CF000530081EA43021F0458BF5A0081EA42037D
:103D0000170458BF530081EA43021F0458BF5A00EA
:103D100000EA4200120448BF484081EA400203041E
:103D200058BF420081EA4200130458BF500081EAA4
:103D30004002030458BF420081EA4200130458BF06
:103D4000500081EA4002030458BF420081EA420069
:103D5000130458BF500081EA4001020458BF4100DB
:103D600008EB0900C278007989B240EA0220884253
:103D70000AD1CAF800901DE0412901D0612903D180
:103D8000012001B0BDE8F08F4FF0FF3001B0BDE879
:103D9000F08F00BF0DF1030138465A46FFF7D2FEFF
:103DA00000284FF0FF3006D09DF80310182902D1EB
:103DB000CAF80000002001B0BDE8F08F41F2940184
:103DC000C4F202010868820003D50A6842F40002C6
:103DD0000A60C0F34070704781B040F2D820C2F250
:103DE0000000016800230A6822F020020A602022F5
:103DF0000A620093CB690093896A00910099C0F828
:103E00008C2001B0704700000846FDF76BBB000036
:103E1000FDF750BE70B50546006AE96804688C423B
:103E20003ED3686984423BD822A0FCF72DFC4EF2B9
:103E30001006CEF200064FF0FF30C6F87001C6F84B
:103E40007002C6F87401C6F87402C6F87801C6F8A4
:103E50007802C6F87C01C6F87C02C6F88001C6F874
:103E60008002C6F88401C6F88402C6F88801C6F844
:103E70008802C6F88C01C6F88C02FDF71DFB0020F5
:103E800030607060B060286A4EF60851CEF20001D2
:103E90000860406884F30888BDE87040004700BFB0
:103EA00008A0FCF7F1FB13A02146BDE87040FCF729
:103EB000B9BA00BF4A756D7020746F204150502E02
:103EC0002E2E00004572726F7220537461636B5422
:103ED0006F702C204150502050726F636564757272
:103EE00065206D6179206E6F742065786973742E1A
:103EF00000000000537461636B546F703A20307897
:103F0000253038580A00000080B584B043F641706F
:103F1000C0F60000029044F27820C0F60000039042
:103F200040F2D420C2F200006A464FF4FA71FFF763
:103F30007FFB0398416809B10098884704B080BDB1
:103F400040F60000C4F600004FF40071FDF7A4BD78
:103F500048F20401411A002011F1030F38BF4FF05D
:103F6000FF3070470020704748F20101411A0020DD
:103F7000032938BF0120704710B301783A291FD1B7
:103F800010B544F29021C0F600010446FCF7BCFBDA
:103F9000D0B144F29721C0F600012046FCF7B4FBF3
:103FA000B0B144F28821C0F600012046FCF7ACFB1A
:103FB00001464FF0FF30002908BF48F2030010BD52
:103FC0004FF0FF30704700BF48F2010010BD00BF46
:103FD00048F2020010BD00004FF0FF3070470000B3
:103FE000B0B5144648F2030290420BD048F20202E8
:103FF000904209D134B14D1E15F8010F00F0BAF806
:10400000013CF9D10020B0BD4FF0FF30B0BD000041
:1040100094B0FDF763FD00240020CDE90B44CDE909
:104020000944CDE90744FDF7E9FD4FF4807109919A
:1040300040210A91042102200F9155210690CDE9DB
:104040000D00CDE91010CDE9120006A8FEF7C4F965
:1040500020B1EFF3108072B6FEE700BF0F20019091
:104060000320CDE9020401A80421CDE90444FDF7B1
:10407000C3FF28B1EFF3108072B600BFFEE700BFA8
:10408000002541F24C000A95CDE90855CDE90655C9
:10409000C4F20200016840F6000441F0040101602E
:1040A0000168C4F6000401F004010191019901685E
:1040B000012241F00201016000684FF4007100F03C
:1040C00002000190019820464FF400760127FDF789
:1040D000EBFC06A92046CDE90667CDE90855FDF7BA
:1040E00001FC40F2D82044F20041C2F20000C4F2C8
:1040F00000010C234FF4E13280E82600C0E90355AB
:10410000C0E90535C0E90755C0E90955FEF78AFC45
:1041100020B1EFF3108072B6FEE700BF40F2D82066
:10412000C2F200000021FEF737FC28B1EFF3108047
:1041300072B600BFFEE700BF40F2D820C2F2000016
:104140000021FEF7E3FB28B1EFF3108072B600BF49
:10415000FEE700BF40F2D820C2F20000FEF7BAFB33
:1041600020B1EFF3108072B6FEE700BFFFF77CFAD4
:10417000FCE7000040F2D821C2F200010968CA69D8
:10418000520609D4CA6952065CBFCA695FEA426234
:1041900002D4CA695206F2D5C2B28A627047303878
:1041A0000A2801D201207047002070478A68002A3F
:1041B00002DC0022FCF71FBC521E8A604A68C0B2B3
:1041C000531C4B601070704710B500290AD0087856
:1041D000002807D005487844FCF796FA002801D05B
:1041E000002010BD0248784410BD0000F601000018
:1041F000EE010000F1EE100A4FF6FF71C0F2C0317F
:1042000020EA010040F04070E1EE100A70473031C2
:1042100032333435363738394142434445464030ED
:10422000580030313233343536373839616263649F
:1042300065664030780004000008000000000000BF
:10424000000200010000100000000000000000015A
:10425000020304060708090000000001020304002D
:10426000010002000400060008000A000C00100013
:10427000200040008000000100000000000000005D
:1042800000000000000000003A5354444552520020
:104290003A535444494E003A5354444F5554000045
:1042A0000000000004000000020000000800000000
:1042B00001010103070100000804020408010101D3
:1042C000596D6F64656D20646F776E6C6F616420EB
:1042D00066696E69736865642C204E6F77204A7535
:1042E0006D7020746F204150502E2E2E0A004669AA
:1042F0006C652053697A6520546F6F204C6172673A
:10430000652E0A00466C6173682050726F67726197
:104310006D204572726F722E0A0046696C65204EE0
:10432000616D653A2025730A0046696C6520536902
:104330007A653A2025730A004E6F77206C616E759E
:10434000636820426C6F636B696E6720596D6F64A0
:10435000656D2C20506C656173652073656E6420FB
:1043600066696C652E2E2E00596D6F64656D206434
:104370006F776E6C6F61642073746172742E2E2E71
:10438000004E6F7720457261736520466C617368DB
:104390002E2E00457261736520466C61736820465D
:1043A000696E69736865642E00000000E0440008CF
:1043B00000000020780100003C02000808450008C9
:1043C00078010020F82100007C02000810010000A4
:1043D00043000000F8FFFFFF0040404040404040E5
:1043E00040404141414141404040404040404040C8
:1043F000404040404040404040050202020202026C
:1044000002020202020202020220202020202020BA
:1044100020202002020202020202909090909090CE
:10442000101010101010101010101010101010108C
:104430001010101002020202020288888888888800
:1044400008080808080808080808080808080808EC
:1044500008080808020202024000000000000000F4
:10446000000000000000000000000000000000004C
:10447000000000000000000000000000000000003C
:10448000000000000000000000000000000000002C
:10449000000000000000000000000000000000001C
:1044A000000000000000000000000000000000000C
:1044B00000000000000000000000000000000000FC
:1044C00000000000000000000000000000000000EC
:1044D00000000000000000000000000000000000DC
:1044E000D1421052015324F43208420843080832E2
:1044F0002042023302204202420433020803FF0634
:0845000008012702140100006C
:04000005080001D915
:00000001FF
