:020000040800F2
:10000000C02B01206D030008516B0008496B0008EC
:100010004D6B0008C12500082D7E0008000000007F
:10002000000000000000000000000000616C0008FB
:100030003528000800000000C16B0008B96C0008FA
:100040008703000887030008870300088703000868
:100050008703000887030008870300088703000858
:1000600087030008870300088703000805270008A6
:100070008703000887030008870300088703000838
:100080008703000887030008870300088703000828
:100090008703000887030008870300088703000818
:1000A0008703000887030008870300088703000808
:1000B00087030008870300088703000887030008F8
:1000C00087030008870300088703000887030008E8
:1000D00087030008870300081D7E000887030008C7
:1000E00087030008870300088703000887030008C8
:1000F00087030008870300088703000887030008B8
:1001000087030008870300088703000887030008A7
:100110008703000887030008870300088703000897
:100120008703000887030008870300088703000887
:100130008703000887030008870300088703000877
:100140008703000887030008870300088703000867
:100150008703000887030008870300088703000857
:100160008703000887030008870300088703000847
:100170008703000887030008D56C00088703000880
:100180008703000887030008870300088703000827
:1001900087030008000000008703000887030008A9
:1001A0008703000887030008870300088703000807
:1001B00087030008870300088703000887030008F7
:1001C00087030008870300088703000887030008E7
:1001D000870300088703000800F002F800F0B7F872
:1001E00014A696E8000CB244B344DA4501D100F0FD
:1001F000AEF8BAE80F000FA696E83000A5EB0405AC
:1002000004EB0607AAEB0704A7F101074FEA15154F
:100210004FEA3414A4F10104AC4201D300F097F882
:1002200013F0010F18BFFB1A43F0010300F001F8AF
:10023000DBE718473C6D01005C6D0100103A24BFFC
:1002400078C878C1FAD8520724BF30C830C144BF3B
:1002500004680C6070470000704700000023002411
:1002600000250026103A28BF78C1FBD8520728BFC6
:1002700030C148BF0B6070476E2900F05D84702963
:1002800000F0B385662915F05E83652915F05B8360
:10029000672915F05883612915F0578303681B0AF5
:1002A00028BF41F08001692900F00A84642900F028
:1002B0000784752900F004846F2900F041857829AE
:1002C00000F07F85E92900F0DB84E42900F0D88480
:1002D000F52900F0D584EF2900F03E85F82900F0DB
:1002E0007E850368DB0928BF41F08001632901F0A6
:1002F0008383732901F08883E32901F09383F32931
:1003000001F09883002070471FB515F00FFB9DE8A2
:10031000030000F007FF01F0FBFD040000200021B6
:1003200015F0D8FA401C60600020002115F0E8FAB2
:10033000E06001F0B9FD01F0C5FC00F093FA1FBDCB
:1003400010B5002001F07EFD01F025FD10BD01F08B
:10035000B9FD1146FFF7D8FF14F064FE01F0FCFF71
:1003600003B4FFF7EDFF03BC00F0A8FE0948804787
:1003700009480047FEE7FEE7FEE7FEE7FEE7FEE787
:10038000FEE7FEE7FEE7FEE704480549054A064B9F
:1003900070470000C16C0008D9010008C02B002084
:1003A000C02B0120C0AB0020C0AB002053EA020CE0
:1003B00000F069802DE9F04B4FF00006002B1FBFC5
:1003C000B3FA83F503FA05F424FA05F65E4012BF8A
:1003D0001643B2FA82F502FA05F4C5F120051EBFF4
:1003E00022FA05FC44EA0C04203556EA044C4FEA94
:1003F000144418BF641C4FF000084FF000099042ED
:1004000071EB030C39D3002919BFB1FA81F701FA56
:1004100007F6B0FA80F700FA07F6C7F120071EBF0B
:1004200020FA07FC46EA0C062037B6FBF4FCA7EBE3
:100430000507103F07F01F0BCBF120062CFA06F63C
:100440000CFA0BFB44BFB3460026202FA4BF5E4628
:100450004FF0000B5BEA060C08BF4FF0010B19EBE5
:100460000B0948EB0608ABFB027C06FB02CC0BFB3E
:1004700003CCC01B71EB0C01C1E70B4602464146A1
:100480004846BDE8F08B13B5084318BF4FF0FF3066
:100490000146AFF30080BDE81C4070470FB404492B
:1004A00010B503AA029800F07BFB10BC5DF814FBAA
:1004B000CC0000200FB41CB50C0007AA009007D098
:1004C0004142A14202D32044401E01E04FF0FF30E0
:1004D000074B7B4469460190069800F046FB0021DB
:1004E000002C01D0009A11701CBC5DF814FB0000B8
:1004F000BB06000010B5044603E015F0DCF9401C13
:1005000009D014F8010B05490028F6D1BDE81040C8
:100510000A2015F0D0B94FF0FF3010BDCC000020FC
:100520000B460146184600F073BD40EA010310B5C2
:100530009B070FD1042A0DD310C808C9121F9C4273
:10054000F8D020BA19BA884201D9012010BD4FF065
:10055000FF3010BD1AB1D30703D0521C07E00020B2
:1005600010BD10F8013B11F8014B1B1B07D110F80F
:10057000013B11F8014B1B1B01D1921EF1D1184612
:1005800010BD10B5431C02E010F8011B71B18107CA
:10059000FAD14FF0013202C88C1A8C4314EAC2110E
:1005A000F9D0C01A0A0603D0C01E10BDC01A10BD73
:1005B0000A0401D0801E10BD0902FCD0401E10BDEF
:1005C000032A40F2308010F0030C00F0158011F87F
:1005D000013BBCF1020F624498BF11F801CB00F857
:1005E000013B38BF11F8013BA2F1040298BF00F8AB
:1005F00001CB38BF00F8013B11F0030300F02C855C
:10060000083AC0F0088051F8043B083A51F804CB8E
:10061000A0E80810F5E7121D5CBF51F8043B40F854
:10062000043BAFF30080D20724BF11F8013B11F85F
:1006300001CB48BF11F8012B24BF00F8013B00F8A3
:1006400001CB48BF00F8012B7047431A28BF9A42DC
:100650007FF6B6AF10441144032A40F2268010F012
:10066000030F1EBF11F8013D521E00F8013D10F0AE
:10067000030F7FF4F6AF11F0030300F03B80083A5C
:10068000C0F00B8051F8043D083A51F804CD40F811
:10069000043D40F804CDFFF7F3BF121D5CBF51F8D5
:1006A000043D40F8043DAFF30080D20724BF11F8A9
:1006B000013D11F801CD48BF11F8012C24BF00F80D
:1006C000013D00F801CD48BF00F8012C7047431AE6
:1006D00028BF9A4240F2C0841044114410F0030F26
:1006E0001EBF11F8013D521E00F8013D10F0030F2E
:1006F0007FF4F6AF103AC0F00A8010B531E9185017
:1007000020E91850103ABFF4F9AFBDE81040530784
:1007100024BF31E9081020E9081044BF51F8043D16
:1007200040F8043D12F0030F08BF7047D20728BFFE
:1007300031F8023D48BF11F8012C28BF20F8023DD6
:1007400048BF00F8012C70474FF000020429C0F0A8
:10075000128010F0030C00F01B80CCF1040CBCF1F3
:10076000020F18BF00F8012BA8BF20F8022BA1EB45
:100770000C0100F00DB85FEAC17C24BF00F8012B2A
:1007800000F8012B48BF00F8012B70474FF0000222
:1007900000B5134694469646203922BFA0E80C5077
:1007A000A0E80C50B1F12001BFF4F7AF090728BF52
:1007B000A0E80C5048BF0CC05DF804EB890028BFCE
:1007C00040F8042B08BF704748BF20F8022B11F0F7
:1007D000804F18BF00F8012B704700000000000098
:1007E00030B44FF0013C50F8042B51F8043BCCFAE4
:1007F00052F4D51A20D1FCB950F8042B51F8043B1F
:10080000CCFA52F4D51A17D1B4B950F8042B51F8D8
:10081000043BCCFA52F4D51A0ED16CB950F8042B23
:1008200051F8043BCCFA52F4D51A05D1002CDAD099
:1008300030BC4FF00000704729BAB1FA81F111F0D5
:100840001801D1F120008440F2D1CA40CB4012F00F
:10085000FF0213F0FF0330BCD01A70477047704797
:100860007047000008487CB57844009007487844F9
:10087000009C0546019004E020460168084480473A
:10088000241DAC42F8D17CBD506801005E680100B7
:10089000004870477401002070B5064600F022FC45
:1008A000056806F10B0020F00704B4429CBF00204D
:1008B00070BD2B466A68BAB11068A04210D304F12B
:1008C000080188423CBF5068586007D3516810192E
:1008D00041601168091B016058601460101D70BDF3
:1008E00013465268002AE7D12146284600F006FC4C
:1008F0000028DED170BD70B50446051F00F0F2FB84
:100900000068002C14BF446870BD002C18BFAC42B6
:100910003CBF20466468F8D301680A18AA4218BF91
:10092000456003D12A6805461144016028684119D1
:10093000A1421CBF6C6070BD616869602168084499
:10094000286070BD2DE9F04791460C46804600F0C6
:10095000C9FB0768604234EA000001D1042C02D2CE
:100960000520BDE8F087601E40F0070609F10B0086
:1009700020F007054D4539D93B467A6882B31468A3
:10098000101D404206EA000C644525D9A4EB0C007A
:10099000854221D8BCF1000F0BD01046016862449B
:1009A000A1EB0C01116041685160C0F800C05860B3
:1009B0000346116805F10800814205D35019491B0F
:1009C000016015605860034652F8040F586000201B
:1009D000C8F80020BDE8F08713465268002ACED13F
:1009E0002946384600F08AFB0028C5D10620BDE81C
:1009F000F0870B460146184600F0D2B870B50446A1
:100A000085690068C10601D5302600E02026C007B0
:100A100007D070BDD4E9012130469047206A401CC0
:100A200020626D1EF6D570BD70B5044685690078EC
:100A3000C00707D170BDD4E9012120209047206A6A
:100A4000401C20626D1EF6D570BD09684A0501D5AF
:100A500040B27047C905FCD500B2704709684A0525
:100A600001D5C0B27047C905FCD580B2704770B5DA
:100A70000C460546012A05D02878800600D5EA698B
:100A8000002302E0012305E05B1C934202D2E05CFC
:100A90000028F9D1A869E618C01AA861286A184484
:100AA00028622846FFF7AAFF04E0D5E9012114F8DF
:100AB000010B9047B442F8D32846FFF7B5FF70BD4D
:100AC0002DE9F0410646002410687529314616A527
:100AD00010D0FFF7BAFF002802DA404213A507E062
:100AE00031688A0701D512A502E0490704D511A58E
:100AF000012401E0FFF7B2FF00210A2206F12407DA
:100B000009E0B0FBF2FCB0FBF2F302FB1C0030305A
:100B100078541846491C0028F3D123462A4630460B
:100B2000BDE8F04100F078BB000000002D0000009F
:100B30002B0000002000000011680268006A5305C5
:100B400001D508700AE0D30501D5088006E0130638
:100B500003D5C217C1E9000200E008600120704718
:100B600001694A1C02610878704700B58FB0CDE971
:100B700001310021059105497944CDE90310114661
:100B8000684600F03DF90FB000BD0000E5FFFFFF33
:100B9000D1E900239A4202D2531C0B6010707047B7
:100BA000074B70B50D467B44FFF7DFFF0446284630
:100BB00000F093FF10B14FF0FF3070BD204670BDC4
:100BC0000D4D01002DE9FF5F15468A460446DFF80A
:100BD000AC80F8440027D8E900103E46CDE900106B
:100BE00010E03AF816106A4602A801F007F9411C15
:100BF00007D02178890603D5E269391891420DD8CA
:100C00000744761C2078800602D5E069B84205DDED
:100C1000AE42E6DB3AF816000028E2D1A069C01B1C
:100C2000A0612046FFF7EAFED8E90010CDE90010E8
:100C3000002017E03AF818106A4602A801F0DEF822
:100C4000B0F1FF3F81460BD000250DF1080B05E008
:100C5000D4E901211BF8050090476D1C4D45F7D3E1
:100C600008F10100B0428046E4DB206A384420628B
:100C70002046FFF7D9FEBDE8FF9F00007A4D010036
:100C80002DE9F0418046D21D22F007020025D2E96D
:100C90000002F52915A614D0011E72F1000106DA32
:100CA0000023D0EB030063EB020211A608E0D8F8A2
:100CB00000108B0701D50FA602E0490701D50EA64B
:100CC00001251146002408F1240704E000F05FFA32
:100CD00030323A55641C50EA0102F7D12B463246B5
:100CE00021464046BDE8F04100F096BA0000000001
:100CF0002D0000002B0000002000000030B4002177
:100D000000F1240408E002F00705D208303542EA79
:100D10004372DB086554491C52EA0305F3D10468A9
:100D2000002310A2250708D504F020040C4304D0AA
:100D3000C46901230CA2641EC46130BC00F06CBA0B
:100D400010B5044621461068FFF788FE024620468B
:100D5000BDE810400023D1E7D21D22F00701D1E900
:100D60000023CBE70000000030000000F0B40D4687
:100D70000188090502D5214C7C4402E01F4C7C44CB
:100D80000E34002100F1240608E002F00F071209DA
:100D9000E75D42EA03721B097754491C52EA0307D4
:100DA000F3D102780023120704D5702D06D009B1C3
:100DB000022311342246F0BC00F02EBA0123103475
:100DC000F8E770B504460D4621461068FFF746FE69
:100DD000024629462046BDE870400023C6E7D21DE2
:100DE00022F00703D3E90023C0E70368126843F049
:100DF000200303600823C3610023B7E7DC4B010035
:100E00002DE9F05F894604464FF0000ADFF874B11F
:100E1000FB44C0F820A02046E1688847002874D031
:100E2000252806D0D4E901219047206A401C206281
:100E3000F1E700265F462046E168884720280546FE
:100E400007DB312D05D2781910F8200C08B10643C4
:100E5000F1E7B00701D526F00406C4F81CA000276E
:100E6000C4F818A02A2D09D0284614F01DFD38B367
:100E700004EB8708303DC8F8185019E059F8041BF6
:100E8000204604EB87029161E1688847012F0546FF
:100E900018D1E069002820DA26F020061DE0D8F8F5
:100EA000180000EB800005EB40003038C8F818004F
:100EB0002046E1688847054614F0F6FC0028EED18C
:100EC000012F0AD02E2D08D12046E16888477F1CCB
:100ED0000546022F46F02006C4DBA069002803DA8D
:100EE000404246F00106A061F00701D026F010064E
:100EF0006C2D0BD0682D09D04C2D39D06A2D35D0F2
:100F0000742D35D07A2D33D016E038E0E1682F46C5
:100F100020468847B842054609D16C2F26D04FF4A9
:100F20008060E168064320468847054604E06C2F50
:100F30001AD04FF4807006430DB3A5F14100192873
:100F400002D8203546F400664A46294620462660E7
:100F50004E46FFF791F980B101280BD0F61D26F01F
:100F6000070000F1080956E74020E4E78020D8E7B1
:100F70000020D6E706F104094DE7284652E7206A2B
:100F8000BDE8F09F6C4B01002DE9F05F93460F46E2
:100F9000804604460026FFF77BFCD0F8009082468E
:100FA00014F8015B2DB100F095F80068405DC007B2
:100FB000F6D12B2D02D02D2D1AD0641E0021CAF897
:100FC00000105A463946204600F038FD014627B148
:100FD0003868A04201D1C7F80080DAF80000022882
:100FE00009D0CAF80090700505D54842BDE8F09FC9
:100FF00046F48066E2E70846F8E710B5002000F006
:1010000059FFFFF79DF9BDE81040012000F056B8E8
:101010002DE9F041074615460E461020FFF73CFC2F
:10102000040013D06760C4E902650948AFF300808B
:1010300000F05CF801682160064904600020086047
:101040000348AFF300800020BDE8F0810120FBE7FA
:10105000100000200C00002010B5203AC0F00B80DA
:10106000B1E81850A0E81850B1E81850A0E818509E
:10107000203ABFF4F5AF5FEA027C24BFB1E8185014
:10108000A0E8185044BF18C918C0BDE810405FEA76
:10109000827C24BF51F8043B40F8043B08BF7047F2
:1010A000D20728BF31F8023B48BF11F8012B28BFF7
:1010B00020F8023B48BF00F8012B70470149182077
:1010C000ABBEFEE726000200004870477401002016
:1010D0000020704710B500F01BFF001D10BD00BFC1
:1010E000F5470100004870477C0100200048704728
:1010F000AC010020704770477047704738B5044610
:101100000A4600206946AFF30080002808BF38BDBA
:1011100002460099204600F0FFFE012038BD012064
:1011200001F047B9F8B5AFF30080054600200C4642
:101130000C2000BF0646A819A0420DD932466946C8
:101140000020AFF30080070008BF01F032F90098DB
:10115000A04218BF0546C419FFF7C4FF0560074643
:10116000F01D20F007004619284600F00AF8B442A6
:1011700008BFF8BDA21B31463868BDE8F84000F052
:10118000CBBE00210160416070470C20704730B534
:10119000B0F10A0271F100034FEA900E4EEA817E2F
:1011A000B0EB0E0061EB91014FEA101E4EEA017E9A
:1011B00010EB0E0041EB11114FEA102E4EEA016EBA
:1011C00010EB0E0041EB11214FEA104E4EEA014E9A
:1011D00010EB0E0041EB1141401841F100014FEAC4
:1011E000D00040EA41704FEAD1014FEA810444EA5D
:1011F000907410EB800544EB01046D1944EB04047A
:10120000521BA3414FF0000348BF0A3200D530BD46
:10121000401C41F1000130BD2DE9F0470D469946D3
:101220009246044600F124080168880604D5E06966
:1012300021F01001216000E00120A84201DD471BE0
:1012400000E00027A1697A1902EB0900081AA061E1
:101250002078C00602D42046FFF7D0FB002608E025
:10126000D4E901211AF806009047206A401C761C38
:1012700020624E45F4DB2078C0060AD52046FFF7F1
:10128000BDFB06E0D4E9012130209047206A401CD4
:101290002062381EA7F10107F4DC07E0D4E9012140
:1012A00018F805009047206A401C2062281EA5F10E
:1012B0000105F3DC2046FFF7B7FB2078000602D5D6
:1012C0000220BDE8F0870120FBE72DE9FF4F0C4627
:1012D0001E464FF0FF378BB0D2E90001DDF8608089
:1012E0000A908A46C1F30A5505B93D4600210846D1
:1012F0004FF00000BAF1000F00F4400005DA00EBF7
:1013000080004FF4400101EA50004FEA9059B9F1D2
:10131000010F00DDB9460A9850EA4A000ED044F6A3
:101320001050A5F2FF3545432F14B8F1000F1ED021
:101330007542291E1EDDC9F100021CE0B8F1010F43
:101340004FF0000001D0302103E0F24305E02154CA
:10135000401CB042FBDB30460022002121540B9997
:10136000C1F80880C1E900200FB0BDE8F08FBD1BB7
:101370006D1CDEE74A4600DA694206A800F034FE3A
:1013800006AB93E8070003AB83E8070050460A99D1
:1013900013F098FE8DE80700A0F500501F3800906C
:1013A0000398002D0ADD42F21F014A46084400233B
:1013B00003A90390684614F001F909E0A0F5005074
:1013C0004A461F38002303A90390684614F00BF91E
:1013D0008DE807000004000C03D04FF0FF304108F7
:1013E00000E01046B8F1000F03D00022009215462D
:1013F0001EE0751E05D4FFF7CAFE303262556D1E21
:10140000F9D5B3460122084302D000227F1C04E034
:101410002078302801D100227F1E002A099784D02D
:101420001DE0112D07DAFFF7B2FE303262556D1C58
:1014300050EA0102F5D1084302D00098C8B10EE08D
:101440000021681E05E0235C625C63542254401E48
:10145000491C8142F7DBAB46A81B401E09900020C7
:1014600004F80B000B98099AC0F80880C0E9002B1B
:101470007AE711264FF0000857E72DE9F04F88462C
:101480000446D21D22F0070191B0D1E90001CDE957
:101490000A0114F0F1F902460B98C00F01D02D207B
:1014A00007E02068810701D52B2002E0202101EA16
:1014B000C000032A099001D0072A05DB03464146F4
:1014C000204600F043FD0BE12078800601D5E0695D
:1014D00000E00620B8F1650F814606D0B8F1660F2E
:1014E00018D0B8F1670F70D131E00020B9F1110FB9
:1014F000009001DB112301E009F101030AAA01A90F
:101500000CA8FFF7E2FEDDE90C70002609F10105E9
:10151000834647E001204B4600904FF000470AAA5F
:1015200001A90CA8FFF7D1FEDDE90DB00C995D46CD
:10153000002610B909F101000D18B9EB050003D41C
:10154000C0F1FF3609F10105A5EB09002BE0B9F167
:10155000010F01DA4FF001090020B9F1110F0090DD
:10156000484601DD112300E003460AAA01A90CA8A0
:10157000FFF7ABFEDDE90C704D4600268346207870
:1015800000070AD4AB4500DA5D4601A8012D04DD51
:10159000411911F8011C302907D04F4502DA17F123
:1015A000040F04DA012082460FE06D1EEEE7002FE3
:1015B00002DCED1B3E4403E0781CA84200DD7D1CEC
:1015C000B81B00F1010A4FF000472078000703D450
:1015D000AA4501DB4FF0FF3A0021B7F1004F0DF1B2
:1015E00043088DF8431024D002202B23002F01DA6A
:1015F0007F422D230A21021EA0F1010000DC5FB111
:1016000097FBF1FC97FBF1F201FB1C7C17460CF1F8
:10161000300C08F801CDEEE7A8F101000370218835
:10162000090501D5452100E06521A0F1010800F878
:10163000011C09980FA9A1EB0807FF1D00B10120AB
:10164000411901EBEA70A1693844081A401EA061F3
:101650002078C00602D42046FFF7D0F9099828B1B7
:10166000D4E901219047206A401C20622078C006FE
:1016700022D52046FFF7C2F91EE0002E04DBB34559
:1016800002DD01A8805D00E03020D4E9012190470F
:10169000206A401C2062761CAAF101005FEA000A61
:1016A0000AD100F035FCC0680168405CD4E9012132
:1016B0009047206A401C2062281EA5F10105DCDC51
:1016C00007E0D4E9012118F8010B9047206A401C7B
:1016D0002062381EA7F10107F3DC2046FFF7A4F9CA
:1016E000032011B041E600002DE9F04F04460D46FD
:1016F000D21D22F0070089B0D0E90097484639464C
:1017000014F0BAF80246F80F01D02D2307E0206844
:10171000810701D52B2302E0202101EAC0038DF8C7
:1017200020300BB1012000E00020032A824601D0C6
:10173000072A04DB2946204600F008FC3FE1207818
:10174000800601D40D2500E0E569C7F30A560D2D8A
:1017500049DA00214FEA175B08464FF00000002FDE
:1017600000F4400007DA00EB80004FF4400100EB8A
:10177000D07001EA60008115012901DD4FF0FF31D1
:1017800000224FEA850CBCF1180F06D31346ACF1CA
:1017900018004FF08052C24003E04FF4801323FA48
:1017A0000CF30CF10C0CBCF1200F04D3ACF1200CA9
:1017B00009FA0CF001E007FA0CF000294FF000489C
:1017C00001DD18B90FE00ED140450CD319EB020929
:1017D0005F4121B9404502D19F4329EA0209BBEB91
:1017E000175F00D0761C2088000502D57B4878441E
:1017F00002E07A487844193808AA302302F80A30FF
:10180000037C0AF10101002E0AF1020A53546A46D0
:1018100002DC4FF0300101E04FF031014FF00108E0
:101820008DF8001002D0A6F2FF3603E059EA470116
:1018300000D06B4E002D02DC2178090704D54FF053
:1018400002082E218DF80110C44600210BE0C7F3D9
:1018500003433F01C35C491C6D1E02F80830052993
:1018600008F1010801DA002DF1DC00210CE000EBA9
:101870001973491C1B786D1E082902F808304FEABD
:10188000091908F1010801DA002DF0DC21688B0646
:1018900002D516E0A8F10108E04505DD02EB0803DA
:1018A00013F8013C302BF5D0B8F1000F09DD02EB45
:1018B000080313F8013C2E2B03D1090701D4A8F12A
:1018C0000108002D05DD3E2102F808106D1E08F10B
:1018D0000108407C002E02F8080008F1010804DA33
:1018E0002D20764202F8080002E02B2002F80800C2
:1018F0000A214FF47A70864208F101080BDB96FB4F
:10190000F0F3303302F8083096FBF0F308F10108E9
:1019100000FB136601E0642E0CDB642096FBF0F301
:10192000303302F8083096FBF0F308F1010800FBB1
:10193000136601E00A2E06DB96FBF1F0303002F868
:10194000080008F1010896FBF1F001FB106030304F
:1019500002F80800A16908F1010808EB050202EB92
:101960000A00081AA0612078C00602D42046FFF7BA
:1019700045F8216A08AE01EB0A00206204E0D4E9D0
:10198000012116F8010B9047BAF1010AF7D220782D
:10199000C00602D52046FFF731F86E4609E016F87A
:1019A000010B3E280FD0D4E901219047206A401C4A
:1019B0002062B8F10108F2D22046FFF735F809B0ED
:1019C0000320BDE8F08F206A2844206203E0D4E9B8
:1019D0000121302090476D1EEBD3F8E7B2410100A2
:1019E00002FCFFFF10B5436913B1AFF3008001E0C3
:1019F000FFF73DF8012010BD127800F124010A70B4
:101A000000224A700122EDE711684FF0FF32E9E74A
:101A100010B5436913B1AFF3008001E0FFF7D2F8CE
:101A2000012010BD128800F1240182840022C284AA
:101A30000122EDE711684FF0FF32E9E72DE9F05F91
:101A4000824615468B4600270AF10104B946007804
:101A5000302801D09DB113E014F8010B012778283C
:101A600003D0582801D045B10AE00DB1102D07D19F
:101A7000002714F8010B102502E0082500E00A25D4
:101A80000026B0460EE005FB080005FB06F1012725
:101A90001FFA80F801EB1046B6F5803F00D3B94637
:101AA00014F8010B294600F091FA0028EBDABBF19B
:101AB000000F05D00FB1641E00E05446CBF8004083
:101AC000B9F1000F06D0FEF7E3FE02210160C81E47
:101AD000BDE8F09F48EA0640FAE7007B00F080008E
:101AE00070472DE9F05F054617460C46C86820F49C
:101AF000201040F48000C860800602D5084600F03F
:101B00006CFBE06841F282014FF0FF3A014002298C
:101B100003D0204600F0FEFAB9E000F42041B1F510
:101B2000004F0FD1C00306D56168E06A884200D833
:101B30000846606006E02069E0626060606913F05A
:101B400081F9A061A0680022EEB200280DDAE168F8
:101B50008B050AD4C043A06041F490302260E0605D
:101B60006068411C61600670AAE0E06891462260EE
:101B700040F40050E060206978BB606913F086F99A
:101B800004F124054FF00108A8B1A08910F4407FAA
:101B900008D0E069FEF780FE206118B1E06840F4EB
:101BA000006017E0C4F81C802561E06820F44070F4
:101BB00040F480600EE0E069FEF76EFE00282061D0
:101BC000F0D0E06840F4006010F4407FE06002D1A3
:101BD00040F48070E06020696060E06825696FF023
:101BE000010BC1051ED56168E06A884200D808462D
:101BF000411B04D02246284600F096FAE8BB1FB1EC
:101C0000E562C4E9015959E0681CE0626060E0697E
:101C1000401EA060E06840F48030E06030462E70E6
:101C2000BDE8F09F17B100F480320AE06068411C03
:101C300061600670E0680A2E40F48030E06006D0F3
:101C40000022E16A6068814203D90B4602E001226A
:101C5000F7E70346B4F80CC05B1B5FEA4C5C04D4A6
:101C6000D4F81CC09C4500DD02B3814200D8014677
:101C7000002BA1EB0008E56200E008E0C4E901598F
:101C800007DD22461946284600F04EFA08B15046B4
:101C9000C6E7B8F1000F09D0A169E5626560A1EB64
:101CA0000800A061E06840F01000E06047B16168A2
:101CB000A069E562491B08446560A0615846AFE72A
:101CC0003046ADE710B542485421FEF75FFD41486C
:101CD0005421FEF75BFD40485421FEF757FD3F4974
:101CE0003B483C4A3F4B08603D490A603A4919600D
:101CF000531C0365481C1065012008653B48344AA5
:101D000039A1784400F08AFA20B9384878440A3872
:101D100000F048FB37482F4A35A1784400F07EFA9E
:101D200020B9344878440A3800F03CFB32482A4A4B
:101D30002FA1784400F072FA20B92F4878440A386D
:101D400000F030FB40232248DC000021224600F056
:101D5000BDF920B125487844543800F023FB1D48D4
:101D600022464023002100F0B1F920B121487844F7
:101D7000543800F017FB184822461023002100F0C9
:101D8000A5F9002806D01C487844BDE81040563814
:101D900000F008BB10BD104870B5006D20F00104C4
:101DA0000B4800F0B3FA0B4800F0B0FA0A4800F014
:101DB000ADFA09E0206D20F00105204600F0A6FAFA
:101DC0002046FEF798FD2C46002CF3D170BD000094
:101DD00078000020CC00002020010020000000201E
:101DE0000400002008000020720000000E400100E6
:101DF00077000000FD3F0100D63F01002DE9F041D2
:101E000016460C460546FFF765F9036893F801018D
:101E1000012807D0FF2C12D8185D80B101202C704A
:101E2000BDE8F081D3F807013246214603F20713DB
:101E3000C7182846BC46BDE8F041002360474FF074
:101E4000FF30EDE72DE9F84306461548AFF3008073
:101E5000FFF74CF9134F8146E8464D4616E026B190
:101E6000E068B04201D0254610E0206828600C48A8
:101E7000C7F80080AFF30080D4E901018847084823
:101E8000AFF300803968414500D04D462C68002CE6
:101E9000E5D1002038600248AFF30080BDE8F88348
:101EA000100000200C0000200148FFF711B90000CD
:101EB0001000002010B500F05DFABDE8104000F001
:101EC00054BA70477546FFF7FFF8AE4605006946FD
:101ED000534620F00700854618B020B5FEF754FAA7
:101EE000BDE820404FF000064FF000074FF000081B
:101EF0004FF0000BAC46ACE8C009ACE8C009ACE858
:101F0000C009ACE8C00921F007018D467047000008
:101F10000048704794010020034640688C46002822
:101F200018BF88423CBF03464068F8D3186818447D
:101F3000884207D00CF1030020F00700001D411A71
:101F4000521A0146081D0A60FEF7D5BC2DE9F04182
:101F50001F46044603260168072A01F4006004DBDB
:101F600008B116A505E016A503E008B115A500E027
:101F700015A521F010002060A069C01EA0610FB15E
:101F8000401EA0612046FEF739FD4FB1D4E9012182
:101F900038469047206A401C2062C01C206206E040
:101FA000206AFAE7D4E9012115F8010B9047761E63
:101FB000F8D22046FEF738FDBDE8F0814E414E00D4
:101FC0006E616E00494E4600696E66003A2800D286
:101FD000303820F02002412A01D3A2F13700884294
:101FE00001D34FF0FF3070472DE9F0478146164688
:101FF0008AB0354878440DC88DE80D0032487844E1
:10200000801C03AC0DC884E80D0041F69B300844E9
:10201000372190FBF1F290FBF1F5A5F1800501FB72
:1020200012041B3C02D56442012000E00020DFF8CE
:1020300098A080460027FA44AAF1BE0A0EE0E00705
:102040000AD03246684607EB470101230AEB8101BB
:1020500013F0C9FA8DE8070064107F1C002CEED144
:10206000194F7F44AE3F19E0E80715D007EB041085
:102070000DF1180A90E80E008AE80E00C068F042E0
:1020800001D1981908903246012306A903A813F03C
:10209000AAFA03AB83E807006D10641C002DE3D19E
:1020A0004FF0010332466946B8F1000F03A802D091
:1020B00013F084FA01E013F096FAC9E90001C9F8B7
:1020C00008200AB0BDE8F0873C3A010070B5C4684A
:1020D000A50713D0650211D4B2F5807F09D0B2F5FF
:1020E000007F06D0B2F5806F08D1012300F12401F2
:1020F00006E05D1E6FF07F46B54201D3012070BD42
:102100000161C361416024F470611143C16000202A
:1021100070BD0000C16821F4001141F08001C16070
:1021200000218160016070472DE9F74F15460C468C
:102130004FF0FF3B3848D768D2F814A0074209D0C7
:102140005046A96912F008FF002819DB3248C04345
:102150000740EF604FF000496FF000484C4501D355
:10216000464600E0264600993B465046324612F06D
:102170001DFFA96920F00042B21A1144A96128B1DB
:102180002846FFF7C7FF5846BDE8FE8FA41BE5D1E0
:102190000020F9E770B504460569C06A61688842A5
:1021A00000D80846E16821F42011E160C90312D586
:1021B000A84208D02246411B2846FFF7B5FF10B1C0
:1021C0004FF0FF3070BD0020E562C4E90150E068C7
:1021D00020F48030E060002070BD10B50446C06877
:1021E00020F02000E060A16AA06988420DD020465E
:1021F000FFF7D0FFE06820F4405040F01000E060AE
:10220000A06AA0612069E062606044F24001E06879
:102210008843E06010BD0000100002002DE9F0418D
:102220000C461646070047D0104600F06FF820789D
:10223000611C61280AD0722802D077283CD102E0C4
:102240000125002405E00225042402E0082448F2C8
:10225000020511F8010B2B2806D0622809D011F8CD
:10226000010C74280AD00BE045F0030544F0020489
:10227000EFE745F0040544F00104EAE744F01004F8
:102280003846214612F026FE411C15D0002131614E
:1022900071604FF40071F560F1617061200704D541
:1022A00030460222002100F08BF8306D40F0010032
:1022B00030653046BDE8F0810020FBE72DE9F041B4
:1022C0000D460646104C206DC10704D0410804D0CD
:1022D00020F00104F7E722460EE05420FEF7DCFA76
:1022E00007000ED0206D47F00101084354212065FE
:1022F0003846FEF74BFA3A4629463046BDE8F041EB
:102300008CE70020D6E70000780000202DE9F04798
:1023100004464FF0FF380026C568D4E90497A807A3
:1023200018D02046FFF736FF384612F065FD00282A
:1023300000DA4646280502D54846FEF7DCFA4C216D
:102340002046FEF723FA206D20F00100206530467C
:10235000BDE8F0874046FBE710B50446AFF30080C8
:102360002046BDE81040FDF7FBBF002801D0FEF776
:10237000A5BE704710B5002102A000F09DF8012015
:1023800010BD0000534947414252543A2041626E09
:102390006F726D616C207465726D696E6174696FC6
:1023A0006E00000010B500F0A1F8BDE81040FFF786
:1023B000DCBF10B500F0B4F8BDE81040FFF7D5BFA2
:1023C0002DE9F041044616460D464769007B80071B
:1023D0002ED0384612F05AFD50BB3EB3012E02D02B
:1023E000022E25D104E0204600F0C9F805441DE086
:1023F000384612F027FDE168002841F01001E16045
:1024000005DA2046FFF786FE0120BDE8F081C9030A
:102410000BD56268E16A914200D81146A269114465
:102420002269891A814200DD08460544002D01DA3F
:102430000220EAE7E16A6068E268814206D291031D
:10244000E06203D522F4003141F01002A6690027B2
:10245000AE4213DCE16A814201D90B4600E003463B
:1024600003EB060C2369ACEB030CAC4506DD8142A3
:1024700001D98C4600E084469C4505D1A7602760C1
:1024800042F02000A5620DE0AD1BE669AE1B814263
:10249000A66000D90846C01A281A20605819606042
:1024A00022F0200003490840E060002084F84870D2
:1024B000ABE70000BFCFD7FF70B505460C460A203A
:1024C00000E06D1C00F054F835B128780028F8D1F0
:1024D00002E0641C00F04CF814B120780028F8D118
:1024E000BDE870400A2000F043B8000010B5014676
:1024F00002A0FFF7E1FF012010BD00005349475241
:10250000545245443A2052656469726563743A20B6
:1025100063616E2774206F70656E3A2000000000C2
:1025200010B5012805D0002103A0FFF7C5FF012049
:1025300010BD09A1F8E7000053494752544D454DDD
:102540003A204F7574206F662068656170206D6554
:102550006D6F7279000000003A2048656170206D4F
:10256000656D6F727920636F727275707465640047
:1025700008B569468DF800000320ABBE08BD10B554
:102580000146C268900703D0900607D5886A0AE022
:10259000FEF77EF901210160881E10BD8B69486835
:1025A00018440B69C01A91F848301BB191F84910D2
:1025B000401A10BD1103FCD50028FADD401E10BDE5
:1025C000FFE7FEE785B0049003910292002001909E
:1025D000FFE701980299B0EB510F11D2FFE7039981
:1025E000019A01EB820031F82210408840EA014054
:1025F000049909680860FFE7019801300190E8E755
:102600009DF80800C00750B1FFE7049800680090EB
:102610000398019930F8210000990880FFE7049899
:102620000068006805B0704786B005900491039279
:1026300000200290FFE702980399B0EB910F0DD2B2
:10264000FFE70498029950F8210000BA059909683B
:102650000860FFE7029801300290ECE79DF80C005B
:102660008007002849D0FFE7039800F00300012805
:1026700008D1FFE70498029910F82100059909682C
:102680000870FFE7039800F00300022813D1FFE76A
:102690000499029A01EB820011F82210407840EA76
:1026A0000120ADF80600059800680090BDF806000E
:1026B00000990880FFE7039800F0030003281BD16E
:1026C000FFE70499029A01EB820011F8221040788A
:1026D00040EA0120ADF80600059800680090BDF8BA
:1026E0000600009908800498029900EB8100807828
:1026F000059909680870FFE7FFE70598006800681A
:1027000006B0704780B542F61010C2F2000000F02B
:102710003DFC80BD84B003900398006840F20741FF
:10272000C4F20201884206D8FFE740F60000C4F276
:102730000200009005E040F62000C4F20200009084
:10274000FFE7009802900398007808384CF6CD41D6
:10275000CCF6CC41A0FB011000090190029803992E
:102760004A6C22F0030210448864039940F680000A
:10277000C4F20200C864019800F01F0101208840E3
:102780000399086504B0704782B001900198007900
:102790000090009940F6FC00C4F2020000EB8100BA
:1027A00001994865019940F64010C4F2020088651D
:1027B0000098013800F01F01012088400199C86588
:1027C00002B0704784B00390029101920093039885
:1027D000C16C006D48600398406D28B1FFE7039815
:1027E000816DC06D4860FFE70398016C406C00F09C
:1027F0001F020120904048600098039909684860D2
:1028000003988068102809D1FFE7019803990968A7
:102810008860029803990968C86008E002980399E3
:1028200009688860019803990968C860FFE704B0E7
:10283000704700007047000081B0EFF3108072B65F
:102840000090FFE7FEE7000081B040F25000C2F2C6
:102850000000007F8DF803009DF80300012805D0DB
:10286000FFE79DF8030003281FD1FFE742F20001B4
:10287000C4F20201086820F400700860FFE742F229
:102880000001C4F20201086840F4006008600868B2
:1028900020F400600860FFE742F20001C4F2020188
:1028A000086840F400700860FFE79DF80300022804
:1028B00005D0FFE79DF80300032817D1FFE7FFE7E6
:1028C00042F20001C4F20201086840F4805008603E
:1028D000086820F480500860FFE742F20001C4F26B
:1028E0000201086840F480600860FFE740F2500190
:1028F000C2F200010020087701B0704781B000905B
:1029000042F22000C4F202000068400200281ED5F6
:10291000FFE79DF80000C00748B1FFE742F214014D
:10292000C4F20201086840F004000860FFE79DF867
:1029300000008007002809D5FFE742F21401C4F225
:102940000201086840F400400860FFE709E042F235
:102950001401C4F20201086848F20402104308603E
:10296000FFE742F21401C4F20201086840F480302B
:10297000086001B07047000082B00190009142F2FF
:102980002000C4F2020000684002002809D4FFE7DA
:1029900042F21401C4F20201086820F400600860E9
:1029A00017E09DF80000C00748B1FFE742F21401AC
:1029B000C4F20201086820F40060086008E042F2F6
:1029C0001401C4F20201086840F400600860FFE7E7
:1029D000FFE742F21401C4F20201086820F47E709D
:1029E0009DF8042040EAC2000860086840F0020038
:1029F0000860086840F48030086002B0704700004A
:102A000084B003900193009242F21401C4F20201D7
:102A1000086840F001000860009803990860BFF35F
:102A20006F8F01980399486004B0704789B0059092
:102A3000049140208DF80F000598029004980190B1
:102A400042F21401C4F20201086840F480200860D8
:102A5000EFF31080069006980090EFF3108072B6A6
:102A60000790FFE701980068029908600298043017
:102A700002900198043001909DF80F0001388DF804
:102A80000F00FFE79DF80F000028EBD1FFE700984B
:102A90000890089880F3108809B0704780B584B01A
:102AA000029001F097F90190FFE742F21000C4F2A2
:102AB00002000068C00300280DD5FFE701F08AF985
:102AC0000199401A0299884204D9FFE703208DF842
:102AD0000F005AE0E9E742F21000C4F20200006879
:102AE0004CF2FA3108400090009860B3FFE7009A7A
:102AF00040F25001C2F20001486810434860FFE70D
:102B00009DF8030010F0F00F0BD0FFE7009800F0E5
:102B1000704242F21801C4F20201086810430860D2
:102B2000FFE70098000148B1FFE7009820F07040EF
:102B300042F21001C4F202010860FFE7FFE7012042
:102B40008DF80F0021E0012050B9FFE742F2180094
:102B5000C4F20200006800F00100012808D010E073
:102B600042F21000C4F202000068C00748B1FFE75B
:102B7000FFE742F21001C4F2020101200860FFE702
:102B8000FFE700208DF80F00FFE79DF80F0004B06D
:102B900080BD000087B006900591049200208DF85A
:102BA0000F001F2002909DF81400C00720B9FFE716
:102BB00001208DF80F004BE0FFE70299481E0290BC
:102BC0000020019051B1FFE70598029901F01F0123
:102BD00020FA01F1012088430190FFE70198C00726
:102BE00008B1FFE7E9E70498009018282BD800996E
:102BF000DFE801F028292929292929291F2929293C
:102C00002929292916292929292929290D00029844
:102C1000072804D3FFE701208DF80F00FFE716E037
:102C20000298082804D3FFE701208DF80F00FFE782
:102C30000DE00298102804D3FFE701208DF80F0063
:102C4000FFE704E003E001208DF80F00FFE7FFE756
:102C50009DF80F0078B9FFE7059806990968486163
:102C600006980068806820F01800049908430699C7
:102C700009688860FFE79DF80F0007B07047000003
:102C800080B586B0059004910392002001900599CB
:102C90000220487705980168886840F00100886044
:102CA0000598006A0090012821D0FFE700980228CB
:102CB00024D0FFE70098032827D1FFE700200290E7
:102CC000FFE70298039988420CD2FFE70498029923
:102CD00050F82100059909680860FFE70298013063
:102CE0000290EEE705980068006801900EE00598F4
:102CF0000499039AFFF798FC019007E0059804995E
:102D0000039AFFF75FFC019000E0FFE705990120BF
:102D10004877019806B080BD80B582B000900098D9
:102D200020B9FFE701208DF8070057E00098407FA9
:102D300038B9FFE7009900200877009800F052F8B2
:102D4000FFE70099022048770098007980B9FFE7F3
:102D50000098016841F6B750C0F2C1404861009840
:102D60000068806820F018000099096888600BE00E
:102D700000988168C268FFF70DFF20B1FFE70120CE
:102D80008DF807002AE0FFE70098407930B9FFE7A7
:102D9000009801684FF0FF30086104E00098016876
:102DA00000690861FFE700980068806820F0600013
:102DB000009A116852691043886000980068806822
:102DC00020F08000009A1168926910438860009991
:102DD0000120487700208DF80700FFE79DF80700E5
:102DE00002B080BD82B001900198006843F20001FA
:102DF000C4F20201884210D1FFE7FFE741F2480028
:102E0000C4F20200016841F480510160006800F4DE
:102E1000805000900098FFE7FFE702B07047000085
:102E200082B0019000208DF80300019890F82500F1
:102E3000022807D0FFE701990420C86301208DF81C
:102E400003002DE001980168086820F00E0008607A
:102E50000198816C086820F480700860019801680E
:102E6000086820F0010008600198016C406C00F0D7
:102E70001F020120904048600198C16C006D4860BD
:102E80000198406D58B1FFE70198416D086820F442
:102E9000807008600198816DC06D4860FFE7FFE7B2
:102EA0000199012081F82500FFE70199002081F8B0
:102EB0002400FFE79DF8030002B0704780B582B0A0
:102EC000019000208DF80300019890F82500022859
:102ED00011D0FFE701990420C8630199012081F80E
:102EE0002500FFE70199002081F82400FFE7012079
:102EF0008DF803003FE001980168086820F00E009B
:102F0000086001980168086820F0010008600198D5
:102F1000816C086820F4807008600198016C406C36
:102F200000F01F020120904048600198C16C006DC4
:102F300048600198406D58B1FFE70198416D0868FD
:102F400020F4807008600198816DC06D4860FFE7D3
:102F50000199012081F82500FFE70199002081F8FF
:102F60002400FFE70198806B20B1FFE70198816B97
:102F70008847FFE7FFE79DF8030002B080BD00002F
:102F800081B000900098C06B01B0704780B584B0EC
:102F900003900398006C0068029003980068006832
:102FA000019002980399496C01F01F01C840400745
:102FB000002825D5FFE79DF80400400700281FD50D
:102FC000FFE70398006800688006002807D4FFE741
:102FD00003980168086820F004000860FFE7039880
:102FE000016C406C00F01F02042090404860039880
:102FF000006B20B1FFE70398016B8847FFE76EE0A5
:1030000002980399496C01F01F01C840800700280D
:103010002FD5FFE79DF804008007002829D5FFE79A
:10302000039800680068800600280BD4FFE7039827
:103030000168086820F00A0008600399012081F8FF
:103040002500FFE70398016C406C00F01F0202208E
:1030500090404860FFE70399002081F82400FFE7D3
:103060000398C06A20B1FFE70398C16A8847FFE769
:1030700034E002980399496C01F01F01C840000731
:10308000002829D5FFE79DF804000007002823D574
:10309000FFE703980168086820F00E0008600398B5
:1030A000026C406C00F01F01012000FA01F1516038
:1030B0000399C863039981F82500FFE7039900206D
:1030C00081F82400FFE70398406B20B1FFE70398E5
:1030D000416B8847FFE700E0FFE7FFE7FFE704B049
:1030E00080BD000080B584B00290029820B9FFE74F
:1030F00001208DF80F009CE00298006840F2074123
:10310000C4F20201884218D8FFE7029908684FF616
:10311000F872CBF6FD7210444CF6CD42CCF6CC42A0
:10312000A0FB02026FF0030000EA920048640299DB
:103130000020C4F20200086418E0029908684FF603
:10314000F832CBF6FD7210444CF6CD42CCF6CC42B0
:10315000A0FB02026FF0030000EA920048640299AB
:1031600040F20040C4F202000864FFE70299022026
:1031700081F825000298006800680190019847F6E0
:10318000F0718843019002998868D1F80CC00B69EE
:103190004A6940EA0C00184310438A691043CA691F
:1031A0001043096A0143019808430190019802996C
:1031B000096808600298FFF7ADFA02988068B0F5D8
:1031C000804F04D1FFE7029900204860FFE7029991
:1031D0000879896C08600298C16C006D486002989B
:1031E000406888B1FFE70298406804280CD8FFE7E0
:1031F0000298FFF7C9FA0298416D00200860029812
:10320000816DC06D486007E0029900204865029911
:1032100088650299C865FFE702990020C863029A91
:10322000012182F82510029981F824008DF80F0001
:10323000FFE79DF80F0004B080BD000080B586B0A8
:10324000049003910292019300208DF80300FFE7A0
:10325000049890F82400012804D1FFE702208DF89B
:10326000170065E00499012081F82400FFE7FFE7DB
:10327000049890F8250001284BD1FFE7049902201B
:1032800081F8250004990020C86304980168086843
:1032900020F00100086004980399029A019BFFF74F
:1032A00091FA0498006B38B1FFE704980168086848
:1032B00040F00E0008600CE004980168086820F0F7
:1032C0000400086004980168086840F00A0008607B
:1032D000FFE70498806C0068C003002807D5FFE76B
:1032E0000498816C086840F480700860FFE70498D7
:1032F000406D38B1FFE70498416D086840F4807074
:103300000860FFE704980168086840F00100086061
:1033100009E0FFE70499002081F82400FFE702207C
:103320008DF80300FFE79DF803008DF81700FFE715
:103330009DF8170006B080BD80B582B041F238011B
:10334000C4F202014FF0FF320A60002001900860D1
:1033500041F24001C4F202010A60086041F2280112
:10336000C4F202010A60086041F22C01C4F20201B9
:103370000A60086041F23001C4F202010A6008608C
:1033800000F0F6FD019802B080BD000080B584B069
:10339000039000F01FFD0290039801900198013006
:1033A00048B1FFE740F27000C2F2000001680198E6
:1033B00008440190FFE7FFE700F00CFD0299401A76
:1033C0000199884201D2FFE7F6E704B080BD000012
:1033D00080B586B004900391FFE740F25000C2F23E
:1033E00000000078012804D1FFE702208DF81700C3
:1033F000BDE040F25001C2F2000101200870FFE779
:10340000FFE74FF47A70FFF749FB8DF80B009DF84A
:103410000B00002840F09E80FFE740F25001C2F20E
:1034200000010020486042F20000C4F2020000687F
:103430008005002820D5FFE742F20000C4F2020018
:103440000068400500280FD5FFE742F20001C4F2F2
:103450000201086820F48060086040F25001C2F266
:1034600000010320087706E040F25001C2F200019B
:1034700001200877FFE71FE042F20000C4F20200DB
:103480000068400500280FD5FFE742F20001C4F2B2
:103490000201086820F48060086040F25001C2F226
:1034A00000010220087706E040F25001C2F200015C
:1034B00000200877FFE7FFE704980068012814D18F
:1034C000FFE704984068FFF719FA4FF47A70FFF7A6
:1034D000E5FA8DF80B0042F21401C4F2020108680B
:1034E00048F204029043086031E003994FF0FF3046
:1034F0000860049880680190FFE70198049A916839
:10350000D2681144884221D2FFE7019804994968A2
:10351000FFF732FA4FF47A70FFF7C0FA8DF80B001C
:1035200042F21401C4F20201086840F2FA329043F8
:1035300008609DF80B0020B1FFE70198039908602F
:1035400004E0FFE7019801300190D6E7FFE7FFF7BD
:103550007BF9FFE7FFE740F25001C2F200010020D3
:103560000870FFE79DF80B008DF81700FFE79DF846
:10357000170006B080BD000085B0039001208DF8D3
:103580000300FFE740F25000C2F20000007801287B
:1035900004D1FFE702208DF8130022E140F2500130
:1035A000C2F2000101200870FFE7FFE742F22400A9
:1035B000C4F2020000680190019842F22801C4F2AE
:1035C00002010968884240F2FF80FFE742F24400AE
:1035D000C4F2020000680190019842F24801C4F26E
:1035E00002010968884240F2EE80FFE742F20000E3
:1035F000C4F20200016821F4807101600068800556
:10360000002817D5FFE742F20001C4F20201086862
:1036100020F400700860FFE742F20001C4F20201EA
:10362000086840F400600860086820F400600860E2
:10363000FFE7FFE742F20000C4F202000068400525
:10364000002817D5FFE742F20001C4F20201086822
:1036500020F480600860FFE742F20001C4F202013A
:10366000086840F480500860086820F480500860C2
:10367000FFE7FFE742F22C00C4F20200006801906D
:10368000019901F07F0001F4FE01B0EB114F0AD85F
:10369000FFE742F22C01C4F20201086820F07F101B
:1036A0007F300860FFE742F23000C4F20200006899
:1036B0000190019901F07F0001F4FE01B0EB114F80
:1036C0000AD8FFE742F23001C4F20201086820F094
:1036D0007F107F300860FFE742F24C00C4F2020026
:1036E00000680190019901F07F0001F4FE01B0EB48
:1036F000114F0AD8FFE742F24C01C4F202010868F8
:1037000020F07F107F300860FFE742F25000C4F2E3
:10371000020000680190019901F07F0001F4FE01B0
:10372000B0EB114F0AD8FFE742F25001C4F2020198
:10373000086820F07F107F300860FFE742F2200128
:10374000C4F20201086820F48000039A1043086064
:1037500042F21401C4F20201086840F4003008602B
:1037600040F21400C2F200000068C00844F6D351D1
:10377000C1F26201A0FB011080094FF47A71484345
:103780000290FFE7029808B9FFE70FE002980138BE
:103790000290FFE742F21000C4F20200006800F459
:1037A00080310020B0EB114FECD1FFE742F2140161
:1037B000C4F20201086820F400300860086840F094
:1037C00000600860FFE7FFE7FFE740F25001C2F248
:1037D000000100200870FFE79DF803008DF813003A
:1037E000FFE79DF8130005B07047000081B001208D
:1037F0008DF8030042F21400C4F20200016841F0A7
:10380000004101600068C00F20B1FFE700208DF883
:103810000300FFE79DF8030001B0704780B542F256
:103820001401C4F20201086840F0006008604FF41F
:103830007A70FFF733F980BD81B000208DF8030066
:1038400042F21400C4F202000068400000281CD5B7
:10385000FFE742F20C01C4F2020142F63B20C0F63F
:103860001900086046F67F60C4F65D40086042F2C9
:103870001400C4F2020000684000002804D5FFE7ED
:1038800001208DF80300FFE7FFE79DF8030001B07A
:103890007047000080B588B00690059103930292AE
:1038A00000200090FFE740F25000C2F200000078D4
:1038B000012804D1FFE702208DF81F007BE040F2D1
:1038C0005001C2F2000101200870FFE7FFE74FF44A
:1038D0007A70FFF7E3F88DF807009DF807000028DD
:1038E0005CD1FFE740F25001C2F2000100204860C5
:1038F00042F20000C4F202000068400500280FD523
:10390000FFE742F20001C4F20201086820F480607F
:10391000086040F25001C2F200010220087706E080
:1039200040F25001C2F2000100200877FFE706983C
:1039300040B9FFE70598029A039BFFF761F8012061
:10394000009016E00698012804D0FFE706980228A8
:103950000DD1FFE705980299FFF768F8069802284D
:1039600004D1FFE74FF480200090FFE700E0FFE77D
:10397000FFE74FF47A70FFF791F88DF80700009891
:1039800048B1FFE7009A42F21401C4F2020108684C
:1039900090430860FFE7FEF757FFFFE7FFE740F2BD
:1039A0005001C2F2000100200870FFE79DF80700F7
:1039B0008DF81F00FFE79DF81F0008B080BD0000D4
:1039C00081B000208DF8030042F21400C4F202001E
:1039D0000068C00FD8B1FFE742F20801C4F202014B
:1039E00040F22310C4F26750086048F6AB10CCF6E2
:1039F000EF50086042F21400C4F202000068C00FE9
:103A000020B1FFE701208DF80300FFE7FFE79DF8F5
:103A1000030001B0704700008BB00A9009910020AC
:103A20000890FFE7099800680899C840002800F04E
:103A3000A581FFE709980068089A01219140084094
:103A400007900798002800F09581FFE709984068E3
:103A500000F00300012807D0FFE70998406800F054
:103A6000030002282FD1FFE70A9880680690089883
:103A70004100032000FA01F1069888430690099856
:103A8000C0680899490000FA01F1069808430690B9
:103A900006980A9988600A9840680690089901205B
:103AA00000FA01F106988843069009984068C0F32F
:103AB0000010089900FA01F106980843069006984C
:103AC0000A994860FFE70998406800F0030003285E
:103AD00018D0FFE70A98C0680690089841000320B4
:103AE00000FA01F1069888430690099880680899C1
:103AF000490000FA01F106980843069006980A99D1
:103B0000C860FFE70998406800F00300022826D14A
:103B1000FFE70A9808996FF0030202EA510108448E
:103B2000006A0690089800F0070081000F2000FA54
:103B300001F106988843069009980069089901F0F8
:103B40000701890000FA01F10698084306900698DB
:103B50000A99089B02EA530211440862FFE70A9897
:103B60000068069008984100032000FA01F10698C9
:103B7000884306900998406800F0030008994900BE
:103B800000FA01F106980843069006980A99086021
:103B9000099880798007002800F0EB80FFE7FFE7B5
:103BA00041F26000C4F20200016841F001010160CD
:103BB000006800F0010005900598FFE7089820F0E4
:103BC00003000821C4F2010140580690089800F053
:103BD000030081000F2000FA01F106988843069047
:103BE0000A98B0F1904F03D1FFE70020049042E023
:103BF0000A9840F20041C4F60001884203D1FFE771
:103C00000120039034E00A9840F60001C4F6000158
:103C1000884203D1FFE70220029026E00A9840F68E
:103C20000041C4F60001884203D1FFE70320019060
:103C300018E00A9841F20001C4F60001884203D15D
:103C4000FFE7042000900AE00A9941F20042C4F61E
:103C500000020620914208BF05200090FFE700986F
:103C60000190FFE701980290FFE702980390FFE7B9
:103C700003980490FFE70498089901F00301890074
:103C800000FA01F10698084306900698089921F079
:103C900003010822C4F20102885040F20840C4F235
:103CA00001000068069007990698884306900998D5
:103CB0008079C006002805D5FFE7079906980843D4
:103CC0000690FFE7069840F20841C4F2010108603F
:103CD00040F20C40C4F20100006806900799069873
:103CE00088430690099880798006002805D5FFE76B
:103CF0000799069808430690FFE7069840F20C41A2
:103D0000C4F20101086040F20440C4F201000068FE
:103D1000069007990698884306900998807980074D
:103D2000002805D5FFE70799069808430690FFE7A6
:103D3000069840F20441C4F20101086040F20040DC
:103D4000C4F201000068069007990698884306901F
:103D500009988079C00728B1FFE7079906980843BA
:103D60000690FFE7069840F20041C4F201010860A6
:103D7000FFE7FFE708980130089053E60BB0704763
:103D800083B00290ADF80610029840690090009A46
:103D9000BDF8060002EA0001904340EA01400299A2
:103DA000886103B07047000082B00190ADF8021046
:103DB0008DF801209DF8010028B1FFE7BDF8020051
:103DC0000199886104E0BDF8020001998862FFE76B
:103DD00002B0704742F6B830C2F200000068704787
:103DE00080B584B00290029820B9FFE701208DF8D9
:103DF0000F0045E0029801684CF6CC40086002983C
:103E0000016845F2555008600298016840684860B2
:103E10000298016880688860FFF7DCFF0190FFE787
:103E200002980068C068400798B1FFE7FFF7D2FF2B
:103E30000199401A32280BD3FFE702980068C06846
:103E4000400720B1FFE703208DF80F0018E0FFE7DF
:103E5000E6E70298006800690299C968884205D0BF
:103E6000FFE702980168C068086105E002980168F0
:103E70004AF6AA200860FFE700208DF80F00FFE750
:103E80009DF80F0004B080BD81B0009000980168DB
:103E90004AF6AA200860002001B0704740F2700086
:103EA000C2F20000026842F6B831C2F200010868AE
:103EB000104408607047000080B582B000208DF883
:103EC0000700032000F09CF80F2000F00DF820B14F
:103ED000FFE701208DF8070002E000F04BF8FFE754
:103EE0009DF8070002B080BD80B582B0019000202F
:103EF0008DF8030040F27000C2F20000006878B351
:103F0000FFE740F21400C2F20000006840F27001C6
:103F1000C2F200010A684FF47A71B1FBF2F1B0FB12
:103F2000F1F001F007FAB0B9FFE701980F280DD8BA
:103F3000FFE701994FF0FF30002200F049F80198A7
:103F400040F27401C2F20001086003E001208DF824
:103F50000300FFE703E001208DF80300FFE703E023
:103F600001208DF80300FFE79DF8030002B080BD3B
:103F70007047000080B582B0FFE741F26000C4F2F4
:103F80000200016841F001010160006800F00100D9
:103F900001900198FFE7FFE741F25800C4F20200E8
:103FA000016841F080510160006800F0805000908D
:103FB0000098FFE700F006F902B080BD80B582B03E
:103FC0008DF807009DF9070010F07AFC02B080BD63
:103FD00080B586B08DF817000491039210F088FC2C
:103FE00002909DF91700019002980499039A02F03B
:103FF000B1FD0146019810F083FC06B080BD0000C1
:1040000080B582B00190019810F09CFC02B080BD98
:1040100085B00390039800285ED1FFE747F20000C7
:10402000C4F20000006800F4C060B0F5806F49D1B0
:10403000FFE747F28001C4F20001086820F48070B5
:10404000086047F20002C4F200021168012060F328
:104050004A21116040F21401C2F2000109683222C3
:1040600051434DF68362C4F21B32A1FB022100EBE7
:1040700091400290FFE747F21400C4F2000001688B
:10408000002049050029019006D5FFE70298002885
:1040900018BF01200190FFE70198C00720B1FFE79A
:1040A000029801380290E6E747F21400C4F20000DB
:1040B00000684005002804D5FFE703208DF81300B1
:1040C0007CE008E047F28001C4F20001086820F4B7
:1040D00080700860FFE76DE00398B0F5007F5ED167
:1040E000FFE747F20000C4F20000006800F4C0607F
:1040F000B0F5806F49D1FFE747F28001C4F20001BB
:10410000086840F48070086047F20002C4F20002C0
:104110001168012060F34A21116040F21401C2F2DB
:1041200000010968322251434DF68362C4F21B320A
:10413000A1FB022100EB91400290FFE747F214003F
:10414000C4F200000168002049050029009006D54E
:10415000FFE70298002818BF01200090FFE70098B1
:10416000C00720B1FFE7029801380290E6E747F266
:104170001400C4F2000000684005002804D5FFE7E1
:1041800003208DF8130019E008E047F28001C4F223
:104190000001086840F480700860FFE709E047F21A
:1041A0000001C4F200010868022262F34A2008609C
:1041B000FFE7FFE700208DF81300FFE79DF81300ED
:1041C00005B0704747F20801C4F20001086840F4E6
:1041D000804008607047000080B586B005900020E0
:1041E0008DF80B008DF80A000598807800070028EC
:1041F00040F1B580FFE700208DF8090041F258003A
:10420000C4F202000068C000002813D4FFE7FFE7F3
:1042100041F25800C4F20200016841F0805101608F
:10422000006800F0805001900198FFE701208DF8B0
:104230000900FFE747F20001C4F20001086840F4FA
:1042400080700860FFF7C6FD0390FFE747F20000AB
:10425000C4F200000068C00500280CD4FFE7FFF797
:10426000B9FD0399401A032804D3FFE703208DF812
:104270000B0000E0EAE79DF80B0000285BD1FFE7A8
:1042800041F29000C4F20200006800F44070049013
:104290000498C8B1FFE704980599096D884213D0C6
:1042A000FFE741F29001C4F20201086820F4407077
:1042B0000490086840F480300860086820F480307A
:1042C000086004980860FFE79DF81000C007E0B19F
:1042D000FFE7FFF77FFD0390FFE741F29000C4F294
:1042E00002000068800700280ED4FFE7FFF772FD88
:1042F0000399401A41F28931884204D3FFE7032031
:104300008DF80B0000E0E8E7FFE79DF80B0060B9CF
:10431000FFE741F29001C4F20201086820F4407006
:10432000059A126D1043086004E09DF80B008DF8AB
:104330000A00FFE704E09DF80B008DF80A00FFE794
:104340009DF80900012809D1FFE741F25801C4F2A4
:104350000201086820F080500860FFE7FFE7059839
:104360000078C00760B1FFE741F28801C4F20201A2
:10437000086820F00300059A526810430860FFE7C0
:1043800005980078800700280CD5FFE741F28801E6
:10439000C4F20201086820F00C00059A92681043EC
:1043A0000860FFE705980078400700280CD5FFE774
:1043B00041F28801C4F20201086820F03000059A39
:1043C000D26810430860FFE70598007800070028CE
:1043D0000CD5FFE741F28801C4F20201086820F021
:1043E000C000059A126910430860FFE7059800783D
:1043F000C00600280CD5FFE741F28801C4F2020193
:10440000086820F44070059A526910430860FFE77D
:1044100005980078800600280CD5FFE741F2880156
:10442000C4F20201086820F44060059A92691043C2
:104430000860FFE705980078400600280CD5FFE7E4
:1044400041F28801C4F20201086820F44050059A44
:10445000D26910430860FFE705980078000600283D
:104460000CD5FFE741F28801C4F20201086820F48C
:104470004040059A126A10430860FFE705984078AB
:10448000C00760B1FFE741F28801C4F20201086889
:1044900020F44030059A526A10430860FFE70598FF
:1044A0008078800700280CD5FFE741F29C01C4F218
:1044B0000201086820F00300059A926A1043086020
:1044C000FFE705984078800700280CD5FFE741F208
:1044D0008801C4F20201086820F44020059AD26ADB
:1044E00010430860FFE705984078400700281BD577
:1044F000FFE741F28801C4F20201086820F440108D
:10450000059A126B104308600598006BB0F5801F88
:1045100009D1FFE741F20C01C4F20201086840F43E
:1045200080100860FFE7FFE7059840780007002843
:104530001BD5FFE741F28801C4F20201086820F4AC
:104540004000059A526B104308600598406BB0F527
:10455000800F09D1FFE741F20C01C4F202010868A3
:1045600040F480100860FFE7FFE705984078C00638
:1045700000281BD5FFE741F28801C4F20201086858
:1045800020F04070059A926B104308600598806B8C
:10459000B0F1807F09D1FFE741F20C01C4F20201C2
:1045A000086840F480100860FFE7FFE7059840784E
:1045B000800600281BD5FFE741F28801C4F2020102
:1045C000086820F04060059AD26B10430860059897
:1045D000C06BB0F1006F09D1FFE741F20C01C4F2EA
:1045E0000201086840F480100860FFE7FFE70598C3
:1045F0004078400600281BD5FFE741F28801C4F24D
:104600000201086820F04060059A126C10430860AF
:104610000598006CB0F1006F09D1FFE741F20C0181
:10462000C4F20201086840F480100860FFE7FFE769
:1046300005984078000600281BD5FFE741F2880165
:10464000C4F20201086820F04050059A526C1043F1
:1046500008600598406CB0F1805F09D1FFE741F236
:104660000C01C4F20201086840F480300860FFE7E2
:10467000FFE705988078C007D8B1FFE741F28801CD
:10468000C4F20201086820F04040059A926C104381
:1046900008600598806CB0F1804F09D1FFE741F2C6
:1046A0000C01C4F20201086840F480300860FFE7A2
:1046B000FFE705988078400700281BD5FFE741F207
:1046C0009C01C4F20201086820F44010059AD26CE3
:1046D000104308600598C06CB0F5001F09D1FFE7D2
:1046E00041F20C01C4F20201086840F48010086035
:1046F000FFE7FFE79DF80A0006B080BD80B586B0F1
:104700000490039100200090049820B9FFE7012055
:104710008DF8170081E1039842F20001C4F2020112
:10472000096801F00F01884216D9FFE742F2000044
:10473000C4F20200016821F00F01039A11430160E5
:10474000006800F00F000399884204D0FFE70120C1
:104750008DF8170061E1FFE704980078C007002892
:1047600000F0A380FFE704984068032839D1FFE7F1
:1047700041F20000C4F2020000688001002804D465
:10478000FFE701208DF8170047E102F01BFA0190C6
:1047900001984BF20141C0F2C441884220D3FFE7A7
:1047A00041F20800C4F20200006810F0F00F0AD0D5
:1047B000FFE7049800788007002810D5FFE70498E9
:1047C000806860B9FFE741F20801C4F2020108689D
:1047D000082262F30710086080200090FFE7FFE7DF
:1047E00038E00498406802280ED1FFE741F200004B
:1047F000C4F2020000688003002804D4FFE701200F
:104800008DF8170009E10DE041F20000C4F202004A
:1048100000684005002804D4FFE701208DF8170048
:10482000FBE0FFE700F02CF9019001984BF2014109
:10483000C0F2C44188420CD3FFE741F20801C4F240
:1048400002010868082262F30710086080200090C7
:10485000FFE7FFE741F20801C4F20201086820F017
:104860000300049A526810430860FFF7B3FA0290FD
:10487000FFE741F20800C4F20200006800F00C00FB
:1048800004994968B0EB810F0ED0FFE7FFF7A2FA59
:104890000299401A41F28931884204D3FFE703208C
:1048A0008DF81700B9E0E4E7FFE704980078800787
:1048B00000282CD5FFE7049800784007002809D588
:1048C000FFE741F20801C4F20201086840F4E06029
:1048D0000860FFE704980078000700280BD5FFE781
:1048E00041F20801C4F20201086840F4E06020F4DB
:1048F00060500860FFE741F20801C4F20201086855
:1049000020F0F000049A9268104308600DE00098CF
:10491000802809D1FFE741F20801C4F202010868CA
:1049200020F0F0000860FFE7FFE7039842F2000183
:10493000C4F20201096801F00F01884228D2FFE7A2
:1049400042F20001C4F20201086820F00F00039A4D
:1049500010430860FFF73EFA0290FFE742F20000C2
:10496000C4F20200006800F00F00039988420ED0E4
:10497000FFE7FFF72FFA0299401A41F28931884286
:1049800004D3FFE703208DF8170046E0E6E7FFE7D2
:1049900004980078400700280CD5FFE741F2080191
:1049A000C4F20201086820F4E060049AD26810435F
:1049B0000860FFE704980078000700280DD5FFE79E
:1049C00041F20801C4F20201086820F46050049A20
:1049D000126940EAC2000860FFE700F051F841F2B6
:1049E0000801C4F202010968C9B20A0945F64C215E
:1049F000C0F60101895C01F01F01C84040F21401BA
:104A0000C2F20001086040F27400C2F200000068C7
:104A1000FFF76AFA8DF81700FFE79DF8170006B058
:104A200080BD000040F21400C2F200000068704730
:104A300080B5FFF7F7FF41F20801C4F202010968EF
:104A4000C1F3022245F65C21C0F60101895C01F048
:104A50001F01C84080BD000080B5FFF7E3FF41F2B1
:104A60000801C4F202010968C1F3C22245F65C21C3
:104A7000C0F60101895C01F01F01C84080BD000043
:104A800086B041F20800C4F20200006800F00C0099
:104A9000042806D1FFE742F20040C0F2F400019082
:104AA00069E041F20800C4F20200006800F00C0066
:104AB000082806D1FFE741F20020C0F27A000190F9
:104AC00058E041F20800C4F20200006800F00C0057
:104AD0000C284BD1FFE741F20C00C4F20200016840
:104AE00001F0030104910068C1B2012000EB111034
:104AF000029004980090022815D0FFE70098032840
:104B000012D1FFE7029941F20020C0F27A00B0FB17
:104B1000F1F041F20C01C4F202010968C1F306216F
:104B20004843059011E0FFE7029942F20040C0F2CD
:104B3000F400B0FBF1F041F20C01C4F2020109688B
:104B4000C1F3062148430590FFE741F20C00C4F28F
:104B50000200006800F0C061022000EB11600390C9
:104B600005980399B0FBF1F0019002E0002001905C
:104B7000FFE7FFE7FFE7019806B07047B0B588B0E0
:104B80000690069820B9FFE701208DF81F00CCE3BE
:104B900006980078C007002800F09B80FFE741F2EC
:104BA0000800C4F20200006800F00C00049041F21A
:104BB0000C00C4F20200006800F0030003900498A7
:104BC0000C2804D1FFE70398032804D0FFE70498DA
:104BD000082812D1FFE741F20000C4F20200006889
:104BE0008003002808D5FFE70698406820B9FFE752
:104BF00001208DF81F0098E36AE0FFE706984068FF
:104C0000B0F5803F09D1FFE741F20001C4F2020193
:104C1000086840F48030086020E006984068B0F5ED
:104C2000A02F0DD1FFE741F20001C4F20201086894
:104C300040F480200860086840F4803008600CE090
:104C400041F20001C4F20201086820F480300860DB
:104C5000086820F480200860FFE7FFE7FFE7069878
:104C60004068D0B1FFE7FFF7B5F80590FFE741F2E4
:104C70000000C4F202000068800300280CD4FFE7A3
:104C8000FFF7A8F80599401A652804D3FFE7032029
:104C90008DF81F0049E3EAE719E0FFF79BF805905C
:104CA000FFE741F20000C4F2020000688003002820
:104CB0000CD5FFE7FFF78EF80599401A652804D355
:104CC000FFE703208DF81F002FE3EAE7FFE7FFE788
:104CD000FFE7069800788007002840F19F80FFE7F3
:104CE00041F20800C4F20200006800F00C000490D9
:104CF00041F20C00C4F20200006800F003000390CF
:104D000004980C2804D1FFE70398022804D0FFE799
:104D1000049804282CD1FFE741F20000C4F20200FD
:104D200000684005002808D5FFE70698C06820B94C
:104D3000FFE701208DF81F00F7E241F20401C4F201
:104D40000201086820F0FE40069A126940EA0260FB
:104D5000086040F27400C2F200000068FFF7C4F877
:104D600020B1FFE701208DF81F00DEE2FFE754E0ED
:104D70000698C06870B3FFE741F20001C4F2020177
:104D8000086840F480700860FFF724F80590FFE79A
:104D900041F20000C4F202000068400500280CD473
:104DA000FFE7FFF717F80599401A032804D3FFE738
:104DB00003208DF81F00B8E2EAE741F20401C4F2D3
:104DC0000201086820F0FE40069A126940EA02607B
:104DD000086021E041F20001C4F20201086820F4F9
:104DE00080700860FEF7F6FF0590FFE741F20000D3
:104DF000C4F202000068400500280CD5FFE7FEF76A
:104E0000E9FF0599401A032804D3FFE703208DF832
:104E10001F008AE2EAE7FFE7FFE7FFE7069800786E
:104E20000007002849D5FFE70698406910B3FFE75F
:104E300041F29401C4F20201086840F001000860E8
:104E4000FEF7C8FF0590FFE741F29400C4F20200AC
:104E50000068800700280CD4FFE7FEF7BBFF059928
:104E6000401A032804D3FFE703208DF81F005CE2FB
:104E7000EAE721E041F29401C4F20201086820F05F
:104E800001000860FEF7A6FF0590FFE741F29400DD
:104E9000C4F202000068800700280CD5FFE7FEF787
:104EA00099FF0599401A032804D3FFE703208DF8E2
:104EB0001F003AE2EAE7FFE7FFE7069800784007BD
:104EC000002840F1C680FFE700208DF80B0041F27A
:104ED0005800C4F202000068C000002813D4FFE7A5
:104EE000FFE741F25800C4F20200016841F080512E
:104EF0000160006800F0805001900198FFE70120F8
:104F00008DF80B00FFE747F20000C4F200000068D4
:104F1000C005002822D4FFE747F20001C4F20001D7
:104F2000086840F480700860FEF754FF0590FFE7C2
:104F300047F20000C4F200000068C00500280CD44D
:104F4000FFE7FEF747FF0599401A032804D3FFE760
:104F500003208DF81F00E8E1EAE7FFE7FFE7069886
:104F60008068012809D1FFE741F29001C4F20201F3
:104F7000086840F0010008601FE006988068052876
:104F80000DD1FFE741F29001C4F20201086840F040
:104F900004000860086840F0010008600CE041F27D
:104FA0009001C4F20201086820F00100086008685E
:104FB00020F004000860FFE7FFE7FFE7069880683D
:104FC000E0B1FFE7FEF706FF0590FFE741F2900032
:104FD000C4F202000068800700280ED4FFE7FEF745
:104FE000F9FE0599401A41F28931884204D3FFE75E
:104FF00003208DF81F0098E1E8E71BE0FEF7EAFECA
:105000000590FFE741F29000C4F2020000688007BB
:1050100000280ED5FFE7FEF7DDFE0599401A41F2A4
:105020008931884204D3FFE703208DF81F007CE11B
:10503000E8E7FFE79DF80B00012809D1FFE741F2FF
:105040005801C4F20201086820F080500860FFE7B0
:10505000FFE7069800788006002849D5FFE7069804
:10506000806910B3FFE741F29801C4F202010868B9
:1050700040F001000860FEF7ADFE0590FFE741F249
:105080009800C4F202000068800700280CD4FFE7F3
:10509000FEF7A0FE0599401A032804D3FFE703207A
:1050A0008DF81F0041E1EAE721E041F29801C4F2E6
:1050B0000201086820F001000860FEF78BFE0590F1
:1050C000FFE741F29800C4F2020000688007002860
:1050D0000CD5FFE7FEF77EFE0599401A032804D39E
:1050E000FFE703208DF81F001FE1EAE7FFE7FFE776
:1050F0000698C069002800F01481FFE741F208001B
:10510000C4F20200006800F00C000C2800F0B0802F
:10511000FFE70698C06902287CD1FFE741F2000151
:10512000C4F20201086820F080700860FEF752FEA9
:105130000590FFE741F20000C4F202000068800120
:1051400000280CD5FFE7FEF745FE0599401A032815
:1051500004D3FFE703208DF81F00E6E0EAE741F201
:105160000C01C4F20201086848F20C02C0F29F125E
:105170001040DDF818C0DCF82020DCF82450DCF802
:1051800028E0DCF82C306FF00F0404EB0514224308
:1051900042EA0E22DCF8304040F2000ECFF6E07E0C
:1051A0000EEA045EAEF5001E42EA0E02DCF834E0C0
:1051B0004FF07E4C0CEA0E6C0CF17E4C42EA0C0275
:1051C00042EAC3621043086041F20002C4F20202E4
:1051D000106840F080701060086840F080700860CF
:1051E000FEF7F8FD0590FFE741F20000C4F202006F
:1051F0000068800100280CD4FFE7FEF7EBFD05995D
:10520000401A032804D3FFE703208DF81F008CE029
:10521000EAE72CE041F20001C4F20201086820F044
:1052200080700860FEF7D6FD0590FFE741F20000B0
:10523000C4F202000068800100280CD5FFE7FEF7E9
:10524000C9FD0599401A032804D3FFE703208DF810
:105250001F006AE0EAE741F20C01C4F202010868AB
:105260004FF6FC72CFF6EE6210400860FFE757E0A1
:105270000698C069012804D1FFE701208DF81F00BE
:1052800053E041F20C00C4F202000068039003985E
:1052900000F003000699096A88423BD1FFE70398B2
:1052A00000F0F00006994A6A6FF00F0101EB02115D
:1052B00088422FD1FFE7039800F4FE400699896ADF
:1052C000B0EB012F26D1FFE7039800F07840069954
:1052D000C96AB0EBC16F1DD1FFE7039800F4C000AD
:1052E00006990A6B0021CFF6E07101EA0251A1F59F
:1052F000001188420ED1FFE7039800F0C0600699C4
:105300004A6B4FF07E4101EA026101F17E41884221
:1053100004D0FFE701208DF81F0006E0FFE7FFE75C
:10532000FFE700208DF81F00FFE79DF81F0008B081
:10533000B0BD000080B582B00190019801F092FCF0
:1053400002B080BD81B0009001B0704781B0009084
:1053500001B0704781B0009001B0704781B00090FB
:1053600001B0704781B0009001B0704781B00090EB
:1053700001B0704785B003900291FFE7039890F861
:105380003C00012804D1FFE702208DF81300A7E0BC
:105390000399012081F83C00FFE7FFE70399022011
:1053A00081F83D0003980068406801900398006808
:1053B000806800900398006842F60041C4F2010141
:1053C000884212D0FFE70398006843F20041C4F21C
:1053D0000101884209D0FFE70398006845F2000107
:1053E000C4F2010188420AD1FFE7019820F470005D
:1053F000019002984168019808430190FFE70198E5
:105400004FF68F71CFF6FF51084001900298016866
:10541000019808430190019803990968486003982E
:10542000006842F60041C4F2010188423CD0FFE727
:1054300003980068B0F1804F36D0FFE7039800680A
:1054400040F20041C4F2000188422DD0FFE70398EA
:10545000006840F60001C4F20001884224D0FFE752
:105460000398006840F60041C4F2000188421BD056
:10547000FFE70398006843F20041C4F2010188424B
:1054800012D0FFE70398006844F20001C4F2010162
:10549000884209D0FFE70398006845F20001C4F292
:1054A000010188420ED1FFE7009820F080000090B3
:1054B0000298816800980843009000980399096851
:1054C0008860FFE70399012081F83D00FFE7039919
:1054D000002081F83C00FFE700208DF81300FFE773
:1054E0009DF8130005B0704781B0009001B070477F
:1054F00080B582B00090009820B9FFE701208DF8B8
:10550000070045E0009890F83D0040B9FFE700999A
:10551000002081F83C00009800F03EF8FFE7009979
:10552000022081F83D00009951F8040B01F0DAFBEC
:105530000099012081F84800FFE70099012081F8D7
:105540003E00009981F83F00009981F840000099E1
:1055500081F84100009981F84200009981F84300E8
:10556000FFE7FFE70099012081F84400009981F8E6
:105570004500009981F84600009981F84700FFE74F
:105580000099012081F83D0000208DF80700FFE719
:105590009DF8070002B080BD80B584B003900398E9
:1055A000006845F20001C4F20101884219D1FFE709
:1055B000FFE741F26000C4F20200016841F480118B
:1055C0000160006800F4801002900298FFE74E200E
:1055D000019000221146FEF7FBFC0198FEF7EEFC5D
:1055E000FFE704B080BD000083B00190019890F8FF
:1055F0003D00012804D0FFE701208DF80B0072E088
:105600000199022081F83D0001980168C86840F0C6
:105610000100C8600198006842F60041C4F201012F
:1056200088423CD0FFE701980068B0F1804F36D047
:10563000FFE70198006840F20041C4F2000188428F
:105640002DD0FFE70198006840F60001C4F2000188
:10565000884224D0FFE70198006840F60041C4F278
:10566000000188421BD0FFE70198006843F2004127
:10567000C4F20101884212D0FFE70198006844F2A9
:105680000001C4F20101884209D0FFE701980068D7
:1056900045F20001C4F20101884219D1FFE70198E7
:1056A000006880680721C0F201010840009000985E
:1056B00006280CD0FFE70098B0F5803F07D0FFE741
:1056C00001980168086840F001000860FFE706E003
:1056D00001980168086840F001000860FFE70020B9
:1056E0008DF80B00FFE79DF80B0003B0704700003A
:1056F00080B586B00490039100208DF80B00FFE781
:10570000049890F83C00012804D1FFE702208DF8AE
:105710001700E7E00499012081F83C00FFE7FFE76C
:105720000499022081F83D00049800688068019087
:1057300001984FF68871CFF6CE710840019001981C
:1057400020F47F40019001980499096888600398CB
:1057500000680090002800F0AB80FFE70098102858
:1057600000F0A680FFE70098202800F0A180FFE766
:105770000098302800F09C80FFE70098402800F057
:105780008A80FFE7009850286BD0FFE700986028D8
:1057900074D0FFE7009870283FD0FFE70098B0F57D
:1057A000805F39D0FFE70098B0F5005F4AD0FFE78F
:1057B0000098B0F5801F7BD0FFE70098B0F1101F74
:1057C00076D0FFE700982021C0F2100188426FD008
:1057D000FFE700983021C0F21001884268D0FFE74F
:1057E00000984021C0F21001884261D0FFE7009884
:1057F0005021C0F2100188425AD0FFE70098602182
:10580000C0F21001884253D0FFE700987021C0F227
:10581000100188424CD052E055E004980068039B88
:105820005A689968DB6801F051FB04980068806849
:105830000190019840F0770001900198049909685F
:10584000886040E004980068039B5A689968DB68A8
:1058500001F03CFB04980168886840F4804088604F
:1058600031E004980068039A5168D26801F060FB47
:1058700004980068502101F043FB24E0049800687C
:10588000039A5168D26801F07BFB0498006860219C
:1058900001F036FB17E004980068039A5168D2685B
:1058A00001F046FB04980068402101F029FB0AE062
:1058B000049800680399096801F022FB03E00120C5
:1058C0008DF80B00FFE70499012081F83D00FFE708
:1058D0000499002081F83C00FFE79DF80B008DF84B
:1058E0001700FFE79DF8170006B080BD81B000905B
:1058F00001B0704780B584B0039003980068C06819
:10590000029003980068006901909DF804008007E8
:10591000002824D5FFE79DF80800800700281DD542
:10592000FFE7039801686FF0020008610399012006
:105930000877039800688069800720B1FFE7039823
:10594000FFF7D4FF06E0039800F054F9039800F045
:1059500055F9FFE7039900200877FFE7FFE79DF877
:1059600004004007002825D5FFE79DF80800400700
:1059700000281ED5FFE7039801686FF00400086156
:1059800003990220087703980068806910F4407F2B
:1059900004D0FFE70398FFF7A9FF06E0039800F0A3
:1059A00029F9039800F02AF9FFE703990020087706
:1059B000FFE7FFE79DF804000007002824D5FFE774
:1059C0009DF80800000700281DD5FFE7039801682F
:1059D0006FF00800086103990420087703980068B5
:1059E000C069800720B1FFE70398FFF77FFF06E05B
:1059F000039800F0FFF8039800F000F9FFE703991F
:105A000000200877FFE7FFE79DF80400C0060028A4
:105A100025D5FFE79DF80800C00600281ED5FFE742
:105A2000039801686FF01000086103990820087757
:105A300003980068C06910F4407F04D0FFE7039822
:105A4000FFF754FF06E0039800F0D4F8039800F045
:105A5000D5F8FFE7039900200877FFE7FFE79DF8F7
:105A60000400C00778B1FFE79DF80800C00748B1FF
:105A7000FFE7039801686FF001000861039800F0E8
:105A8000C1F8FFE7FFE7019800F08000802806D00A
:105A9000FFE79DF805008006002810D5FFE79DF878
:105AA00008000006002809D5FFE7039801686FF495
:105AB000025008610398FFF749FCFFE7FFE79DF8F4
:105AC0000500C00780B1FFE79DF808000006002828
:105AD00009D5FFE7039801686FF4807008610398A7
